{
  "contractName": "InstaAccount",
  "abi": [
    {
      "stateMutability": "payable",
      "type": "receive",
      "payable": true
    },
    {
      "inputs": [
        {
          "internalType": "address[]",
          "name": "_targets",
          "type": "address[]"
        },
        {
          "internalType": "bytes[]",
          "name": "_datas",
          "type": "bytes[]"
        }
      ],
      "name": "cast",
      "outputs": [],
      "stateMutability": "payable",
      "type": "function",
      "payable": true
    }
  ],
  "bytecode": "0x608060405234801561001057600080fd5b5061040e806100206000396000f3fe6080604052600436106100225760003560e01c8063e9049abd1461002e57610029565b3661002957005b600080fd5b610048600480360361004391908101906102a9565b61004a565b005b60008090505b848490508110156101345761012785858381811061006a57fe5b905060200201602061007f9190810190610280565b84848481811061008b57fe5b90506020028101803560016020038336030381126100a857600080fd5b8083019250508135905060208201915067ffffffffffffffff8111156100cd57600080fd5b6001810236038213156100df57600080fd5b8080601f016020809104026020016040519081016040528093929190818152602001838380828437600081840152601f19601f8201169050808301925050505050505061013b565b8080600101915050610050565b5050505050565b600073ffffffffffffffffffffffffffffffffffffffff168273ffffffffffffffffffffffffffffffffffffffff1614156101ab576040517f08c379a00000000000000000000000000000000000000000000000000000000081526004016101a29061035e565b60405180910390fd5b600080825160208401855af48015600181146101c6576101d1565b3d806000803e806000fd5b50505050565b6000813590506101e6816103c1565b92915050565b60008083601f8401126101fe57600080fd5b8235905067ffffffffffffffff81111561021757600080fd5b60208301915083602082028301111561022f57600080fd5b9250929050565b60008083601f84011261024857600080fd5b8235905067ffffffffffffffff81111561026157600080fd5b60208301915083602082028301111561027957600080fd5b9250929050565b60006020828403121561029257600080fd5b60006102a0848285016101d7565b91505092915050565b600080600080604085870312156102bf57600080fd5b600085013567ffffffffffffffff8111156102d957600080fd5b6102e5878288016101ec565b9450945050602085013567ffffffffffffffff81111561030457600080fd5b61031087828801610236565b925092505092959194509250565b600061032b600e8361037e565b91507f7461726765742d696e76616c69640000000000000000000000000000000000006000830152602082019050919050565b600060208201905081810360008301526103778161031e565b9050919050565b600082825260208201905092915050565b600061039a826103a1565b9050919050565b600073ffffffffffffffffffffffffffffffffffffffff82169050919050565b6103ca8161038f565b81146103d557600080fd5b5056fea26469706673582212208ca5dfe06c66b0c55fc684972297e0495ee4f1b7960f9628b0ae721e0a3cba3764736f6c63430006000033",
  "source": "pragma solidity ^0.6.0;\r\npragma experimental ABIEncoderV2;\r\n\r\ncontract InstaAccount {\r\n\r\n    receive() external payable {}\r\n\r\n    function spell(address _target, bytes memory _data) internal {\r\n        require(_target != address(0), \"target-invalid\");\r\n        assembly {\r\n            let succeeded := delegatecall(gas(), _target, add(_data, 0x20), mload(_data), 0, 0)\r\n\r\n            switch iszero(succeeded)\r\n                case 1 {\r\n                    // throw if delegatecall failed\r\n                    let size := returndatasize()\r\n                    returndatacopy(0x00, 0x00, size)\r\n                    revert(0x00, size)\r\n                }\r\n        }\r\n    }\r\n\r\n    function cast(\r\n        address[] calldata _targets,\r\n        bytes[] calldata _datas\r\n    )\r\n    external\r\n    payable\r\n    {\r\n        for (uint i = 0; i < _targets.length; i++) {\r\n            spell(_targets[i], _datas[i]);\r\n        }\r\n    }\r\n\r\n}",
  "sourcePath": "/mnt/e/Projects/tests/uni-resolver/contracts/Account.sol",
  "compiler": {
    "name": "solc",
    "version": "0.6.0+commit.26b70077.Emscripten.clang"
  },
  "schemaVersion": "3.2.4",
  "updatedAt": "2020-10-09T06:23:29.577Z",
  "networkType": "ethereum",
  "devdoc": {
    "methods": {}
  },
  "userdoc": {
    "methods": {}
  }
}