{
  "contractName": "InstaMemory",
  "abi": [
    {
      "inputs": [
        {
          "internalType": "uint256",
          "name": "_id",
          "type": "uint256"
        },
        {
          "internalType": "bytes32",
          "name": "_byte",
          "type": "bytes32"
        }
      ],
      "name": "setBytes",
      "outputs": [],
      "stateMutability": "nonpayable",
      "type": "function"
    },
    {
      "inputs": [
        {
          "internalType": "uint256",
          "name": "_id",
          "type": "uint256"
        }
      ],
      "name": "getBytes",
      "outputs": [
        {
          "internalType": "bytes32",
          "name": "_byte",
          "type": "bytes32"
        }
      ],
      "stateMutability": "nonpayable",
      "type": "function"
    },
    {
      "inputs": [
        {
          "internalType": "uint256",
          "name": "_id",
          "type": "uint256"
        },
        {
          "internalType": "uint256",
          "name": "_num",
          "type": "uint256"
        }
      ],
      "name": "setUint",
      "outputs": [],
      "stateMutability": "nonpayable",
      "type": "function"
    },
    {
      "inputs": [
        {
          "internalType": "uint256",
          "name": "_id",
          "type": "uint256"
        }
      ],
      "name": "getUint",
      "outputs": [
        {
          "internalType": "uint256",
          "name": "_num",
          "type": "uint256"
        }
      ],
      "stateMutability": "nonpayable",
      "type": "function"
    },
    {
      "inputs": [
        {
          "internalType": "uint256",
          "name": "_id",
          "type": "uint256"
        },
        {
          "internalType": "address",
          "name": "_addr",
          "type": "address"
        }
      ],
      "name": "setAddr",
      "outputs": [],
      "stateMutability": "nonpayable",
      "type": "function"
    },
    {
      "inputs": [
        {
          "internalType": "uint256",
          "name": "_id",
          "type": "uint256"
        }
      ],
      "name": "getAddr",
      "outputs": [
        {
          "internalType": "address",
          "name": "_addr",
          "type": "address"
        }
      ],
      "stateMutability": "nonpayable",
      "type": "function"
    }
  ],
  "bytecode": "0x608060405234801561001057600080fd5b506105d8806100206000396000f3fe608060405234801561001057600080fd5b50600436106100625760003560e01c8063455ded9e1461006757806357bc2ef31461009f57806361e3c944146100e1578063a9c70eaa14610119578063d81f84b71461015b578063eba36dbd146101c9575b600080fd5b61009d6004803603604081101561007d57600080fd5b810190808035906020019092919080359060200190929190505050610217565b005b6100cb600480360360208110156100b557600080fd5b810190808035906020019092919050505061026f565b6040518082815260200191505060405180910390f35b610117600480360360408110156100f757600080fd5b81019080803590602001909291908035906020019092919050505061031b565b005b6101456004803603602081101561012f57600080fd5b8101908080359060200190929190505050610374565b6040518082815260200191505060405180910390f35b6101876004803603602081101561017157600080fd5b8101908080359060200190929190505050610422565b604051808273ffffffffffffffffffffffffffffffffffffffff1673ffffffffffffffffffffffffffffffffffffffff16815260200191505060405180910390f35b610215600480360360408110156101df57600080fd5b8101908080359060200190929190803573ffffffffffffffffffffffffffffffffffffffff16906020019092919050505061050f565b005b806000803373ffffffffffffffffffffffffffffffffffffffff1673ffffffffffffffffffffffffffffffffffffffff1681526020019081526020016000206000848152602001908152602001600020819055505050565b60008060003373ffffffffffffffffffffffffffffffffffffffff1673ffffffffffffffffffffffffffffffffffffffff16815260200190815260200160002060008381526020019081526020016000205490506000803373ffffffffffffffffffffffffffffffffffffffff1673ffffffffffffffffffffffffffffffffffffffff168152602001908152602001600020600083815260200190815260200160002060009055919050565b80600160003373ffffffffffffffffffffffffffffffffffffffff1673ffffffffffffffffffffffffffffffffffffffff1681526020019081526020016000206000848152602001908152602001600020819055505050565b6000600160003373ffffffffffffffffffffffffffffffffffffffff1673ffffffffffffffffffffffffffffffffffffffff1681526020019081526020016000206000838152602001908152602001600020549050600160003373ffffffffffffffffffffffffffffffffffffffff1673ffffffffffffffffffffffffffffffffffffffff168152602001908152602001600020600083815260200190815260200160002060009055919050565b6000600260003373ffffffffffffffffffffffffffffffffffffffff1673ffffffffffffffffffffffffffffffffffffffff168152602001908152602001600020600083815260200190815260200160002060009054906101000a900473ffffffffffffffffffffffffffffffffffffffff169050600260003373ffffffffffffffffffffffffffffffffffffffff1673ffffffffffffffffffffffffffffffffffffffff168152602001908152602001600020600083815260200190815260200160002060006101000a81549073ffffffffffffffffffffffffffffffffffffffff0219169055919050565b80600260003373ffffffffffffffffffffffffffffffffffffffff1673ffffffffffffffffffffffffffffffffffffffff168152602001908152602001600020600084815260200190815260200160002060006101000a81548173ffffffffffffffffffffffffffffffffffffffff021916908373ffffffffffffffffffffffffffffffffffffffff160217905550505056fea26469706673582212202e108ec2d7608dbf7a29983381d9a4ae4d94cccc6cf28c484db63b067cebe27064736f6c63430006000033",
  "source": "pragma solidity ^0.6.0;\r\n\r\n/**\r\n * @title InstaMemory.\r\n * @dev Store Data For Cast Function.\r\n */\r\n\r\ncontract InstaMemory {\r\n\r\n    // Memory Bytes (Smart Account Address => Storage ID => Bytes).\r\n    mapping (address => mapping (uint => bytes32)) internal mbytes; // Use it to store execute data and delete in the same transaction\r\n    // Memory Uint (Smart Account Address => Storage ID => Uint).\r\n    mapping (address => mapping (uint => uint)) internal muint; // Use it to store execute data and delete in the same transaction\r\n    // Memory Address (Smart Account Address => Storage ID => Address).\r\n    mapping (address => mapping (uint => address)) internal maddr; // Use it to store execute data and delete in the same transaction\r\n\r\n    /**\r\n     * @dev Store Bytes.\r\n     * @param _id Storage ID.\r\n     * @param _byte bytes data to store.\r\n    */\r\n    function setBytes(uint _id, bytes32 _byte) public {\r\n        mbytes[msg.sender][_id] = _byte;\r\n    }\r\n\r\n    /**\r\n     * @dev Get Stored Bytes.\r\n     * @param _id Storage ID.\r\n    */\r\n    function getBytes(uint _id) public returns (bytes32 _byte) {\r\n        _byte = mbytes[msg.sender][_id];\r\n        delete mbytes[msg.sender][_id];\r\n    }\r\n\r\n    /**\r\n     * @dev Store Uint.\r\n     * @param _id Storage ID.\r\n     * @param _num uint data to store.\r\n    */\r\n    function setUint(uint _id, uint _num) public {\r\n        muint[msg.sender][_id] = _num;\r\n    }\r\n\r\n    /**\r\n     * @dev Get Stored Uint.\r\n     * @param _id Storage ID.\r\n    */\r\n    function getUint(uint _id) public returns (uint _num) {\r\n        _num = muint[msg.sender][_id];\r\n        delete muint[msg.sender][_id];\r\n    }\r\n\r\n    /**\r\n     * @dev Store Address.\r\n     * @param _id Storage ID.\r\n     * @param _addr Address data to store.\r\n    */\r\n    function setAddr(uint _id, address _addr) public {\r\n        maddr[msg.sender][_id] = _addr;\r\n    }\r\n\r\n    /**\r\n     * @dev Get Stored Address.\r\n     * @param _id Storage ID.\r\n    */\r\n    function getAddr(uint _id) public returns (address _addr) {\r\n        _addr = maddr[msg.sender][_id];\r\n        delete maddr[msg.sender][_id];\r\n    }\r\n\r\n}",
  "sourcePath": "/mnt/e/Projects/tests/uni-resolver/contracts/memory.sol",
  "compiler": {
    "name": "solc",
    "version": "0.6.0+commit.26b70077.Emscripten.clang"
  },
  "schemaVersion": "3.2.4",
  "updatedAt": "2020-10-09T06:23:29.611Z",
  "networkType": "ethereum",
  "devdoc": {
    "details": "Store Data For Cast Function.",
    "methods": {
      "getAddr(uint256)": {
        "details": "Get Stored Address.",
        "params": {
          "_id": "Storage ID."
        }
      },
      "getBytes(uint256)": {
        "details": "Get Stored Bytes.",
        "params": {
          "_id": "Storage ID."
        }
      },
      "getUint(uint256)": {
        "details": "Get Stored Uint.",
        "params": {
          "_id": "Storage ID."
        }
      },
      "setAddr(uint256,address)": {
        "details": "Store Address.",
        "params": {
          "_addr": "Address data to store.",
          "_id": "Storage ID."
        }
      },
      "setBytes(uint256,bytes32)": {
        "details": "Store Bytes.",
        "params": {
          "_byte": "bytes data to store.",
          "_id": "Storage ID."
        }
      },
      "setUint(uint256,uint256)": {
        "details": "Store Uint.",
        "params": {
          "_id": "Storage ID.",
          "_num": "uint data to store."
        }
      }
    },
    "title": "InstaMemory."
  },
  "userdoc": {
    "methods": {}
  }
}