{
  "contractName": "InstaUniswapV2Resolver",
  "abi": [
    {
      "inputs": [
        {
          "internalType": "address",
          "name": "buyAddr",
          "type": "address"
        },
        {
          "internalType": "address",
          "name": "sellAddr",
          "type": "address"
        },
        {
          "internalType": "uint256",
          "name": "sellAmt",
          "type": "uint256"
        },
        {
          "internalType": "uint256",
          "name": "slippage",
          "type": "uint256"
        }
      ],
      "name": "getBuyAmount",
      "outputs": [
        {
          "internalType": "uint256",
          "name": "buyAmt",
          "type": "uint256"
        },
        {
          "internalType": "uint256",
          "name": "unitAmt",
          "type": "uint256"
        }
      ],
      "stateMutability": "view",
      "type": "function",
      "constant": true
    },
    {
      "inputs": [
        {
          "internalType": "address",
          "name": "tokenA",
          "type": "address"
        },
        {
          "internalType": "address",
          "name": "tokenB",
          "type": "address"
        },
        {
          "internalType": "uint256",
          "name": "amtA",
          "type": "uint256"
        }
      ],
      "name": "getDepositAmount",
      "outputs": [
        {
          "internalType": "uint256",
          "name": "amtB",
          "type": "uint256"
        },
        {
          "internalType": "uint256",
          "name": "unitAmt",
          "type": "uint256"
        }
      ],
      "stateMutability": "view",
      "type": "function",
      "constant": true
    },
    {
      "inputs": [
        {
          "internalType": "address",
          "name": "tokenA",
          "type": "address"
        },
        {
          "internalType": "address",
          "name": "tokenB",
          "type": "address"
        },
        {
          "internalType": "uint256",
          "name": "amtA",
          "type": "uint256"
        },
        {
          "internalType": "uint256",
          "name": "amtB",
          "type": "uint256"
        }
      ],
      "name": "getDepositAmountNewPool",
      "outputs": [
        {
          "internalType": "uint256",
          "name": "unitAmt",
          "type": "uint256"
        }
      ],
      "stateMutability": "view",
      "type": "function",
      "constant": true
    },
    {
      "inputs": [],
      "name": "getEthAddr",
      "outputs": [
        {
          "internalType": "address",
          "name": "",
          "type": "address"
        }
      ],
      "stateMutability": "pure",
      "type": "function",
      "constant": true
    },
    {
      "inputs": [
        {
          "internalType": "address",
          "name": "buyAddr",
          "type": "address"
        },
        {
          "internalType": "address",
          "name": "sellAddr",
          "type": "address"
        },
        {
          "internalType": "address[]",
          "name": "tokens",
          "type": "address[]"
        },
        {
          "internalType": "uint256",
          "name": "buyAmt",
          "type": "uint256"
        }
      ],
      "name": "getOptimalBuyPath",
      "outputs": [
        {
          "internalType": "address[]",
          "name": "paths",
          "type": "address[]"
        },
        {
          "internalType": "uint256",
          "name": "sellAmt",
          "type": "uint256"
        }
      ],
      "stateMutability": "view",
      "type": "function",
      "constant": true
    },
    {
      "inputs": [
        {
          "internalType": "address",
          "name": "buyAddr",
          "type": "address"
        },
        {
          "internalType": "address",
          "name": "sellAddr",
          "type": "address"
        },
        {
          "internalType": "address[]",
          "name": "tokens",
          "type": "address[]"
        },
        {
          "internalType": "uint256",
          "name": "sellAmt",
          "type": "uint256"
        }
      ],
      "name": "getOptimalSellPath",
      "outputs": [
        {
          "internalType": "address[]",
          "name": "paths",
          "type": "address[]"
        },
        {
          "internalType": "uint256",
          "name": "buyAmt",
          "type": "uint256"
        }
      ],
      "stateMutability": "view",
      "type": "function",
      "constant": true
    },
    {
      "inputs": [
        {
          "internalType": "address",
          "name": "owner",
          "type": "address"
        },
        {
          "components": [
            {
              "internalType": "address",
              "name": "tokenA",
              "type": "address"
            },
            {
              "internalType": "address",
              "name": "tokenB",
              "type": "address"
            }
          ],
          "internalType": "struct Resolver.TokenPair[]",
          "name": "tokenPairs",
          "type": "tuple[]"
        }
      ],
      "name": "getPosition",
      "outputs": [
        {
          "components": [
            {
              "internalType": "uint256",
              "name": "tokenAShareAmt",
              "type": "uint256"
            },
            {
              "internalType": "uint256",
              "name": "tokenBShareAmt",
              "type": "uint256"
            },
            {
              "internalType": "uint256",
              "name": "uniAmt",
              "type": "uint256"
            },
            {
              "internalType": "uint256",
              "name": "totalSupply",
              "type": "uint256"
            }
          ],
          "internalType": "struct Resolver.PoolData[]",
          "name": "",
          "type": "tuple[]"
        }
      ],
      "stateMutability": "view",
      "type": "function",
      "constant": true
    },
    {
      "inputs": [
        {
          "internalType": "address",
          "name": "buyAddr",
          "type": "address"
        },
        {
          "internalType": "address",
          "name": "sellAddr",
          "type": "address"
        },
        {
          "internalType": "uint256",
          "name": "buyAmt",
          "type": "uint256"
        },
        {
          "internalType": "uint256",
          "name": "slippage",
          "type": "uint256"
        }
      ],
      "name": "getSellAmount",
      "outputs": [
        {
          "internalType": "uint256",
          "name": "sellAmt",
          "type": "uint256"
        },
        {
          "internalType": "uint256",
          "name": "unitAmt",
          "type": "uint256"
        }
      ],
      "stateMutability": "view",
      "type": "function",
      "constant": true
    },
    {
      "inputs": [
        {
          "internalType": "address",
          "name": "tokenA",
          "type": "address"
        },
        {
          "internalType": "address",
          "name": "tokenB",
          "type": "address"
        },
        {
          "internalType": "uint256",
          "name": "uniAmt",
          "type": "uint256"
        },
        {
          "internalType": "uint256",
          "name": "slippage",
          "type": "uint256"
        }
      ],
      "name": "getWithdrawAmounts",
      "outputs": [
        {
          "internalType": "uint256",
          "name": "amtA",
          "type": "uint256"
        },
        {
          "internalType": "uint256",
          "name": "amtB",
          "type": "uint256"
        },
        {
          "internalType": "uint256",
          "name": "unitAmtA",
          "type": "uint256"
        },
        {
          "internalType": "uint256",
          "name": "unitAmtB",
          "type": "uint256"
        }
      ],
      "stateMutability": "view",
      "type": "function",
      "constant": true
    },
    {
      "inputs": [],
      "name": "name",
      "outputs": [
        {
          "internalType": "string",
          "name": "",
          "type": "string"
        }
      ],
      "stateMutability": "view",
      "type": "function",
      "constant": true
    }
  ],
  "bytecode": "0x608060405234801561001057600080fd5b506139b2806100206000396000f3fe608060405234801561001057600080fd5b506004361061009e5760003560e01c80637c7d84f1116100665780637c7d84f1146101715780638c3bc15a146101a2578063a767e7e5146101d5578063b4bb12d114610206578063f19fcbe9146102375761009e565b806306fdde03146100a3578063202bb80c146100c1578063295ef574146100df5780635ccfb71d14610110578063786309a314610141575b600080fd5b6100ab610267565b6040516100b89190613640565b60405180910390f35b6100c96102a0565b6040516100d691906135aa565b60405180910390f35b6100f960048036036100f491908101906131d3565b6102bc565b60405161010792919061372d565b60405180910390f35b61012a60048036036101259190810190613184565b6102f7565b60405161013892919061372d565b60405180910390f35b61015b600480360361015691908101906131d3565b6107ee565b60405161016891906136e2565b60405180910390f35b61018b60048036036101869190810190613109565b610ab8565b6040516101999291906135ee565b60405180910390f35b6101bc60048036036101b791908101906131d3565b6111b6565b6040516101cc9493929190613756565b60405180910390f35b6101ef60048036036101ea9190810190613109565b611203565b6040516101fd9291906135ee565b60405180910390f35b610220600480360361021b91908101906131d3565b611901565b60405161022e92919061372d565b60405180910390f35b610251600480360361024c9190810190613236565b61193c565b60405161025e919061361e565b60405180910390f35b6040518060400160405280601581526020017f556e697377617056322d5265736f6c7665722d7631000000000000000000000081525081565b600073eeeeeeeeeeeeeeeeeeeeeeeeeeeeeeeeeeeeeeee905090565b6000806000806102cc8888611dc6565b915091506102db828288611e66565b93506102ea8185848989611fed565b9250505094509492505050565b6000806000806103078787611dc6565b915091506000610315612138565b905060008173ffffffffffffffffffffffffffffffffffffffff1663c45a01556040518163ffffffff1660e01b815260040160206040518083038186803b15801561035f57600080fd5b505afa158015610373573d6000803e3d6000fd5b505050506040513d601f19601f8201168201806040525061039791908101906130e0565b73ffffffffffffffffffffffffffffffffffffffff1663e6a4390585856040518363ffffffff1660e01b81526004016103d19291906135c5565b60206040518083038186803b1580156103e957600080fd5b505afa1580156103fd573d6000803e3d6000fd5b505050506040513d601f19601f8201168201806040525061042191908101906130e0565b9050600073ffffffffffffffffffffffffffffffffffffffff168173ffffffffffffffffffffffffffffffffffffffff161415610493576040517f08c379a000000000000000000000000000000000000000000000000000000000815260040161048a906136a2565b60405180910390fd5b60006105a48573ffffffffffffffffffffffffffffffffffffffff1663313ce5676040518163ffffffff1660e01b815260040160206040518083038186803b1580156104de57600080fd5b505afa1580156104f2573d6000803e3d6000fd5b505050506040513d601f19601f8201168201806040525061051691908101906132cb565b8673ffffffffffffffffffffffffffffffffffffffff166370a08231856040518263ffffffff1660e01b815260040161054f91906135aa565b60206040518083038186803b15801561056757600080fd5b505afa15801561057b573d6000803e3d6000fd5b505050506040513d601f19601f8201168201806040525061059f91908101906132cb565b612154565b905060006106b78573ffffffffffffffffffffffffffffffffffffffff1663313ce5676040518163ffffffff1660e01b815260040160206040518083038186803b1580156105f157600080fd5b505afa158015610605573d6000803e3d6000fd5b505050506040513d601f19601f8201168201806040525061062991908101906132cb565b8673ffffffffffffffffffffffffffffffffffffffff166370a08231866040518263ffffffff1660e01b815260040161066291906135aa565b60206040518083038186803b15801561067a57600080fd5b505afa15801561068e573d6000803e3d6000fd5b505050506040513d601f19601f820116820180604052506106b291908101906132cb565b612154565b90506106c3818361216e565b9650610755876107508873ffffffffffffffffffffffffffffffffffffffff1663313ce5676040518163ffffffff1660e01b815260040160206040518083038186803b15801561071257600080fd5b505afa158015610726573d6000803e3d6000fd5b505050506040513d601f19601f8201168201806040525061074a91908101906132cb565b8c612154565b6121a6565b97506107de8573ffffffffffffffffffffffffffffffffffffffff1663313ce5676040518163ffffffff1660e01b815260040160206040518083038186803b1580156107a057600080fd5b505afa1580156107b4573d6000803e3d6000fd5b505050506040513d601f19601f820116820180604052506107d891908101906132cb565b896121e6565b9750505050505050935093915050565b60008060006107fd8787611dc6565b91509150600061080b612138565b905060008173ffffffffffffffffffffffffffffffffffffffff1663c45a01556040518163ffffffff1660e01b815260040160206040518083038186803b15801561085557600080fd5b505afa158015610869573d6000803e3d6000fd5b505050506040513d601f19601f8201168201806040525061088d91908101906130e0565b73ffffffffffffffffffffffffffffffffffffffff1663e6a4390585856040518363ffffffff1660e01b81526004016108c79291906135c5565b60206040518083038186803b1580156108df57600080fd5b505afa1580156108f3573d6000803e3d6000fd5b505050506040513d601f19601f8201168201806040525061091791908101906130e0565b9050600073ffffffffffffffffffffffffffffffffffffffff168173ffffffffffffffffffffffffffffffffffffffff1614610988576040517f08c379a000000000000000000000000000000000000000000000000000000000815260040161097f906136c2565b60405180910390fd5b6000610a118573ffffffffffffffffffffffffffffffffffffffff1663313ce5676040518163ffffffff1660e01b815260040160206040518083038186803b1580156109d357600080fd5b505afa1580156109e7573d6000803e3d6000fd5b505050506040513d601f19601f82011682018060405250610a0b91908101906132cb565b89612154565b90506000610a9c8573ffffffffffffffffffffffffffffffffffffffff1663313ce5676040518163ffffffff1660e01b815260040160206040518083038186803b158015610a5e57600080fd5b505afa158015610a72573d6000803e3d6000fd5b505050506040513d601f19601f82011682018060405250610a9691908101906132cb565b89612154565b9050610aa8818361216e565b9650505050505050949350505050565b60606000806000610ac98888611dc6565b9150915060606002604051908082528060200260200182016040528015610aff5781602001602082028038833980820191505090505b5090508181600081518110610b1057fe5b602002602001019073ffffffffffffffffffffffffffffffffffffffff16908173ffffffffffffffffffffffffffffffffffffffff16815250508281600181518110610b5857fe5b602002602001019073ffffffffffffffffffffffffffffffffffffffff16908173ffffffffffffffffffffffffffffffffffffffff1681525050809450610b9f8187612200565b93506003604051908082528060200260200182016040528015610bd15781602001602082028038833980820191505090505b5090508181600081518110610be257fe5b602002602001019073ffffffffffffffffffffffffffffffffffffffff16908173ffffffffffffffffffffffffffffffffffffffff16815250508281600281518110610c2a57fe5b602002602001019073ffffffffffffffffffffffffffffffffffffffff16908173ffffffffffffffffffffffffffffffffffffffff168152505060008060008092505b8951831015610e3d57898381518110610c8257fe5b602002602001015184600181518110610c9757fe5b602002602001019073ffffffffffffffffffffffffffffffffffffffff16908173ffffffffffffffffffffffffffffffffffffffff1681525050610cdb848a612200565b905086811015610e30578096506003604051908082528060200260200182016040528015610d185781602001602082028038833980820191505090505b50975083600081518110610d2857fe5b602002602001015188600081518110610d3d57fe5b602002602001019073ffffffffffffffffffffffffffffffffffffffff16908173ffffffffffffffffffffffffffffffffffffffff168152505083600181518110610d8457fe5b602002602001015188600181518110610d9957fe5b602002602001019073ffffffffffffffffffffffffffffffffffffffff16908173ffffffffffffffffffffffffffffffffffffffff168152505083600281518110610de057fe5b602002602001015188600281518110610df557fe5b602002602001019073ffffffffffffffffffffffffffffffffffffffff16908173ffffffffffffffffffffffffffffffffffffffff16815250505b8280600101935050610c6d565b6004604051908082528060200260200182016040528015610e6d5781602001602082028038833980820191505090505b5093508484600081518110610e7e57fe5b602002602001019073ffffffffffffffffffffffffffffffffffffffff16908173ffffffffffffffffffffffffffffffffffffffff16815250508584600381518110610ec657fe5b602002602001019073ffffffffffffffffffffffffffffffffffffffff16908173ffffffffffffffffffffffffffffffffffffffff1681525050600092505b89518310156111a757600091505b895182101561119a57898381518110610f2857fe5b602002602001015184600181518110610f3d57fe5b602002602001019073ffffffffffffffffffffffffffffffffffffffff16908173ffffffffffffffffffffffffffffffffffffffff1681525050898281518110610f8357fe5b602002602001015184600281518110610f9857fe5b602002602001019073ffffffffffffffffffffffffffffffffffffffff16908173ffffffffffffffffffffffffffffffffffffffff1681525050610fdc848a612200565b90508681101561118d5780965060046040519080825280602002602001820160405280156110195781602001602082028038833980820191505090505b5097508360008151811061102957fe5b60200260200101518860008151811061103e57fe5b602002602001019073ffffffffffffffffffffffffffffffffffffffff16908173ffffffffffffffffffffffffffffffffffffffff16815250508360018151811061108557fe5b60200260200101518860018151811061109a57fe5b602002602001019073ffffffffffffffffffffffffffffffffffffffff16908173ffffffffffffffffffffffffffffffffffffffff1681525050836002815181106110e157fe5b6020026020010151886002815181106110f657fe5b602002602001019073ffffffffffffffffffffffffffffffffffffffff16908173ffffffffffffffffffffffffffffffffffffffff16815250508360038151811061113d57fe5b60200260200101518860038151811061115257fe5b602002602001019073ffffffffffffffffffffffffffffffffffffffff16908173ffffffffffffffffffffffffffffffffffffffff16815250505b8180600101925050610f13565b8280600101935050610f05565b50505050505094509492505050565b6000806000806000806111c98a8a611dc6565b915091506111d882828a6122f8565b80965081975050506111ee828288888c8c612647565b80945081955050505050945094509450949050565b606060008060006112148888611dc6565b915091506060600260405190808252806020026020018201604052801561124a5781602001602082028038833980820191505090505b509050818160008151811061125b57fe5b602002602001019073ffffffffffffffffffffffffffffffffffffffff16908173ffffffffffffffffffffffffffffffffffffffff168152505082816001815181106112a357fe5b602002602001019073ffffffffffffffffffffffffffffffffffffffff16908173ffffffffffffffffffffffffffffffffffffffff16815250508094506112ea81876127bf565b9350600360405190808252806020026020018201604052801561131c5781602001602082028038833980820191505090505b509050818160008151811061132d57fe5b602002602001019073ffffffffffffffffffffffffffffffffffffffff16908173ffffffffffffffffffffffffffffffffffffffff1681525050828160028151811061137557fe5b602002602001019073ffffffffffffffffffffffffffffffffffffffff16908173ffffffffffffffffffffffffffffffffffffffff168152505060008060008092505b8951831015611588578983815181106113cd57fe5b6020026020010151846001815181106113e257fe5b602002602001019073ffffffffffffffffffffffffffffffffffffffff16908173ffffffffffffffffffffffffffffffffffffffff1681525050611426848a6127bf565b90508681111561157b5780965060036040519080825280602002602001820160405280156114635781602001602082028038833980820191505090505b5097508360008151811061147357fe5b60200260200101518860008151811061148857fe5b602002602001019073ffffffffffffffffffffffffffffffffffffffff16908173ffffffffffffffffffffffffffffffffffffffff1681525050836001815181106114cf57fe5b6020026020010151886001815181106114e457fe5b602002602001019073ffffffffffffffffffffffffffffffffffffffff16908173ffffffffffffffffffffffffffffffffffffffff16815250508360028151811061152b57fe5b60200260200101518860028151811061154057fe5b602002602001019073ffffffffffffffffffffffffffffffffffffffff16908173ffffffffffffffffffffffffffffffffffffffff16815250505b82806001019350506113b8565b60046040519080825280602002602001820160405280156115b85781602001602082028038833980820191505090505b50935084846000815181106115c957fe5b602002602001019073ffffffffffffffffffffffffffffffffffffffff16908173ffffffffffffffffffffffffffffffffffffffff1681525050858460038151811061161157fe5b602002602001019073ffffffffffffffffffffffffffffffffffffffff16908173ffffffffffffffffffffffffffffffffffffffff1681525050600092505b89518310156118f257600091505b89518210156118e55789838151811061167357fe5b60200260200101518460018151811061168857fe5b602002602001019073ffffffffffffffffffffffffffffffffffffffff16908173ffffffffffffffffffffffffffffffffffffffff16815250508982815181106116ce57fe5b6020026020010151846002815181106116e357fe5b602002602001019073ffffffffffffffffffffffffffffffffffffffff16908173ffffffffffffffffffffffffffffffffffffffff1681525050611727848a6127bf565b9050868111156118d85780965060046040519080825280602002602001820160405280156117645781602001602082028038833980820191505090505b5097508360008151811061177457fe5b60200260200101518860008151811061178957fe5b602002602001019073ffffffffffffffffffffffffffffffffffffffff16908173ffffffffffffffffffffffffffffffffffffffff1681525050836001815181106117d057fe5b6020026020010151886001815181106117e557fe5b602002602001019073ffffffffffffffffffffffffffffffffffffffff16908173ffffffffffffffffffffffffffffffffffffffff16815250508360028151811061182c57fe5b60200260200101518860028151811061184157fe5b602002602001019073ffffffffffffffffffffffffffffffffffffffff16908173ffffffffffffffffffffffffffffffffffffffff16815250508360038151811061188857fe5b60200260200101518860038151811061189d57fe5b602002602001019073ffffffffffffffffffffffffffffffffffffffff16908173ffffffffffffffffffffffffffffffffffffffff16815250505b818060010192505061165e565b8280600101935050611650565b50505050505094509492505050565b6000806000806119118888611dc6565b91509150611920828288612898565b935061192f8285838989612a1f565b9250505094509492505050565b60606000611948612138565b905060008351905060608160405190808252806020026020018201604052801561198c57816020015b611979612e8f565b8152602001906001900390816119715790505b50905060008090505b82811015611db9576000806119d88884815181106119af57fe5b6020026020010151600001518985815181106119c757fe5b602002602001015160200151611dc6565b9150915060008673ffffffffffffffffffffffffffffffffffffffff1663c45a01556040518163ffffffff1660e01b815260040160206040518083038186803b158015611a2457600080fd5b505afa158015611a38573d6000803e3d6000fd5b505050506040513d601f19601f82011682018060405250611a5c91908101906130e0565b73ffffffffffffffffffffffffffffffffffffffff1663e6a4390584846040518363ffffffff1660e01b8152600401611a969291906135c5565b60206040518083038186803b158015611aae57600080fd5b505afa158015611ac2573d6000803e3d6000fd5b505050506040513d601f19601f82011682018060405250611ae691908101906130e0565b9050600073ffffffffffffffffffffffffffffffffffffffff168173ffffffffffffffffffffffffffffffffffffffff1614611da957600081905060008173ffffffffffffffffffffffffffffffffffffffff166370a082318d6040518263ffffffff1660e01b8152600401611b5c91906135aa565b60206040518083038186803b158015611b7457600080fd5b505afa158015611b88573d6000803e3d6000fd5b505050506040513d601f19601f82011682018060405250611bac91908101906132cb565b905060008273ffffffffffffffffffffffffffffffffffffffff166318160ddd6040518163ffffffff1660e01b815260040160206040518083038186803b158015611bf657600080fd5b505afa158015611c0a573d6000803e3d6000fd5b505050506040513d601f19601f82011682018060405250611c2e91908101906132cb565b90506000611c3c838361216e565b90506000611cd28873ffffffffffffffffffffffffffffffffffffffff166370a08231886040518263ffffffff1660e01b8152600401611c7c91906135aa565b60206040518083038186803b158015611c9457600080fd5b505afa158015611ca8573d6000803e3d6000fd5b505050506040513d601f19601f82011682018060405250611ccc91908101906132cb565b836121a6565b90506000611d688873ffffffffffffffffffffffffffffffffffffffff166370a08231896040518263ffffffff1660e01b8152600401611d1291906135aa565b60206040518083038186803b158015611d2a57600080fd5b505afa158015611d3e573d6000803e3d6000fd5b505050506040513d601f19601f82011682018060405250611d6291908101906132cb565b846121a6565b90506040518060800160405280838152602001828152602001868152602001858152508b8b81518110611d9757fe5b60200260200101819052505050505050505b5050508080600101915050611995565b5080935050505092915050565b600080611dd16102a0565b73ffffffffffffffffffffffffffffffffffffffff168473ffffffffffffffffffffffffffffffffffffffff1614611e095783611e12565b611e11612b6a565b5b9150611e1c6102a0565b73ffffffffffffffffffffffffffffffffffffffff168373ffffffffffffffffffffffffffffffffffffffff1614611e545782611e5d565b611e5c612b6a565b5b90509250929050565b600080611e71612138565b905060606002604051908082528060200260200182016040528015611ea55781602001602082028038833980820191505090505b5090508481600081518110611eb657fe5b602002602001019073ffffffffffffffffffffffffffffffffffffffff16908173ffffffffffffffffffffffffffffffffffffffff16815250508581600181518110611efe57fe5b602002602001019073ffffffffffffffffffffffffffffffffffffffff16908173ffffffffffffffffffffffffffffffffffffffff168152505060608273ffffffffffffffffffffffffffffffffffffffff16631f00ca7486846040518363ffffffff1660e01b8152600401611f759291906136fd565b60006040518083038186803b158015611f8d57600080fd5b505afa158015611fa1573d6000803e3d6000fd5b505050506040513d6000823e3d601f19601f82011682018060405250611fca919081019061328a565b905080600081518110611fd957fe5b602002602001015193505050509392505050565b6000806120778573ffffffffffffffffffffffffffffffffffffffff1663313ce5676040518163ffffffff1660e01b815260040160206040518083038186803b15801561203957600080fd5b505afa15801561204d573d6000803e3d6000fd5b505050506040513d601f19601f8201168201806040525061207191908101906132cb565b85612154565b905060006121028873ffffffffffffffffffffffffffffffffffffffff1663313ce5676040518163ffffffff1660e01b815260040160206040518083038186803b1580156120c457600080fd5b505afa1580156120d8573d6000803e3d6000fd5b505050506040513d601f19601f820116820180604052506120fc91908101906132cb565b88612154565b905061210e818361216e565b925061212b83612126670de0b6b3a764000087612b86565b6121a6565b9250505095945050505050565b6000737a250d5630b4cf539739df2c5dacb4c659f2488d905090565b60006121668284601203600a0a612bd6565b905092915050565b60008161219661218685670de0b6b3a7640000612bd6565b6002858161219057fe5b04612b86565b8161219d57fe5b04905092915050565b6000670de0b6b3a76400006121d66121be8585612bd6565b6002670de0b6b3a7640000816121d057fe5b04612b86565b816121dd57fe5b04905092915050565b600082601203600a0a82816121f757fe5b04905092915050565b60008061220b612138565b90506122178185612c38565b156122cd5760608173ffffffffffffffffffffffffffffffffffffffff16631f00ca7485876040518363ffffffff1660e01b81526004016122599291906136fd565b60006040518083038186803b15801561227157600080fd5b505afa158015612285573d6000803e3d6000fd5b505050506040513d6000823e3d601f19601f820116820180604052506122ae919081019061328a565b9050806000815181106122bd57fe5b60200260200101519250506122f1565b7fffffffffffffffffffffffffffffffffffffffffffffffffffffffffffffffff91505b5092915050565b6000806000612305612138565b905060008173ffffffffffffffffffffffffffffffffffffffff1663c45a01556040518163ffffffff1660e01b815260040160206040518083038186803b15801561234f57600080fd5b505afa158015612363573d6000803e3d6000fd5b505050506040513d601f19601f8201168201806040525061238791908101906130e0565b73ffffffffffffffffffffffffffffffffffffffff1663e6a4390588886040518363ffffffff1660e01b81526004016123c19291906135c5565b60206040518083038186803b1580156123d957600080fd5b505afa1580156123ed573d6000803e3d6000fd5b505050506040513d601f19601f8201168201806040525061241191908101906130e0565b9050600073ffffffffffffffffffffffffffffffffffffffff168173ffffffffffffffffffffffffffffffffffffffff161415612483576040517f08c379a000000000000000000000000000000000000000000000000000000000815260040161247a906136a2565b60405180910390fd5b60008190506000612511878373ffffffffffffffffffffffffffffffffffffffff166318160ddd6040518163ffffffff1660e01b815260040160206040518083038186803b1580156124d457600080fd5b505afa1580156124e8573d6000803e3d6000fd5b505050506040513d601f19601f8201168201806040525061250c91908101906132cb565b61216e565b90506125a58973ffffffffffffffffffffffffffffffffffffffff166370a08231856040518263ffffffff1660e01b815260040161254f91906135aa565b60206040518083038186803b15801561256757600080fd5b505afa15801561257b573d6000803e3d6000fd5b505050506040513d601f19601f8201168201806040525061259f91908101906132cb565b826121a6565b95506126398873ffffffffffffffffffffffffffffffffffffffff166370a08231856040518263ffffffff1660e01b81526004016125e391906135aa565b60206040518083038186803b1580156125fb57600080fd5b505afa15801561260f573d6000803e3d6000fd5b505050506040513d601f19601f8201168201806040525061263391908101906132cb565b826121a6565b945050505050935093915050565b60008060006126d38973ffffffffffffffffffffffffffffffffffffffff1663313ce5676040518163ffffffff1660e01b815260040160206040518083038186803b15801561269557600080fd5b505afa1580156126a9573d6000803e3d6000fd5b505050506040513d601f19601f820116820180604052506126cd91908101906132cb565b88612154565b9050600061275e8973ffffffffffffffffffffffffffffffffffffffff1663313ce5676040518163ffffffff1660e01b815260040160206040518083038186803b15801561272057600080fd5b505afa158015612734573d6000803e3d6000fd5b505050506040513d601f19601f8201168201806040525061275891908101906132cb565b88612154565b905061276a828761216e565b935061278784612782670de0b6b3a764000088612e3f565b6121a6565b9350612793818761216e565b92506127b0836127ab670de0b6b3a764000088612e3f565b6121a6565b92505050965096945050505050565b6000806127ca612138565b90506127d68185612c38565b1561288c5760608173ffffffffffffffffffffffffffffffffffffffff1663d06ca61f85876040518363ffffffff1660e01b81526004016128189291906136fd565b60006040518083038186803b15801561283057600080fd5b505afa158015612844573d6000803e3d6000fd5b505050506040513d6000823e3d601f19601f8201168201806040525061286d919081019061328a565b90508060018151811061287c57fe5b6020026020010151925050612891565b600091505b5092915050565b6000806128a3612138565b9050606060026040519080825280602002602001820160405280156128d75781602001602082028038833980820191505090505b50905084816000815181106128e857fe5b602002602001019073ffffffffffffffffffffffffffffffffffffffff16908173ffffffffffffffffffffffffffffffffffffffff1681525050858160018151811061293057fe5b602002602001019073ffffffffffffffffffffffffffffffffffffffff16908173ffffffffffffffffffffffffffffffffffffffff168152505060608273ffffffffffffffffffffffffffffffffffffffff1663d06ca61f86846040518363ffffffff1660e01b81526004016129a79291906136fd565b60006040518083038186803b1580156129bf57600080fd5b505afa1580156129d3573d6000803e3d6000fd5b505050506040513d6000823e3d601f19601f820116820180604052506129fc919081019061328a565b905080600181518110612a0b57fe5b602002602001015193505050509392505050565b600080612aa98573ffffffffffffffffffffffffffffffffffffffff1663313ce5676040518163ffffffff1660e01b815260040160206040518083038186803b158015612a6b57600080fd5b505afa158015612a7f573d6000803e3d6000fd5b505050506040513d601f19601f82011682018060405250612aa391908101906132cb565b85612154565b90506000612b348873ffffffffffffffffffffffffffffffffffffffff1663313ce5676040518163ffffffff1660e01b815260040160206040518083038186803b158015612af657600080fd5b505afa158015612b0a573d6000803e3d6000fd5b505050506040513d601f19601f82011682018060405250612b2e91908101906132cb565b88612154565b9050612b40818361216e565b9250612b5d83612b58670de0b6b3a764000087612e3f565b6121a6565b9250505095945050505050565b600073c778417e063141139fce010982780140aa0cd5ab905090565b6000828284019150811015612bd0576040517f08c379a0000000000000000000000000000000000000000000000000000000008152600401612bc790613662565b60405180910390fd5b92915050565b600080821480612bf35750828283850292508281612bf057fe5b04145b612c32576040517f08c379a0000000000000000000000000000000000000000000000000000000008152600401612c2990613662565b60405180910390fd5b92915050565b60006001905060005b6001835103811015612e3757826001820181518110612c5c57fe5b602002602001015173ffffffffffffffffffffffffffffffffffffffff16838281518110612c8657fe5b602002602001015173ffffffffffffffffffffffffffffffffffffffff161415612cb4576000915050612e39565b60008473ffffffffffffffffffffffffffffffffffffffff1663c45a01556040518163ffffffff1660e01b815260040160206040518083038186803b158015612cfc57600080fd5b505afa158015612d10573d6000803e3d6000fd5b505050506040513d601f19601f82011682018060405250612d3491908101906130e0565b73ffffffffffffffffffffffffffffffffffffffff1663e6a43905858481518110612d5b57fe5b6020026020010151866001860181518110612d7257fe5b60200260200101516040518363ffffffff1660e01b8152600401612d979291906135c5565b60206040518083038186803b158015612daf57600080fd5b505afa158015612dc3573d6000803e3d6000fd5b505050506040513d601f19601f82011682018060405250612de791908101906130e0565b9050600073ffffffffffffffffffffffffffffffffffffffff168173ffffffffffffffffffffffffffffffffffffffff161415612e2957600092505050612e39565b508080600101915050612c41565b505b92915050565b6000828284039150811115612e89576040517f08c379a0000000000000000000000000000000000000000000000000000000008152600401612e8090613682565b60405180910390fd5b92915050565b6040518060800160405280600081526020016000815260200160008152602001600081525090565b600081359050612ec68161394e565b92915050565b600081519050612edb8161394e565b92915050565b600082601f830112612ef257600080fd5b8135612f05612f00826137c8565b61379b565b91508181835260208401935060208101905083856020840282011115612f2a57600080fd5b60005b83811015612f5a5781612f408882612eb7565b845260208401935060208301925050600181019050612f2d565b5050505092915050565b600082601f830112612f7557600080fd5b8135612f88612f83826137f0565b61379b565b91508181835260208401935060208101905083856040840282011115612fad57600080fd5b60005b83811015612fdd5781612fc3888261306a565b845260208401935060408301925050600181019050612fb0565b5050505092915050565b600082601f830112612ff857600080fd5b815161300b61300682613818565b61379b565b9150818183526020840193506020810190508385602084028201111561303057600080fd5b60005b83811015613060578161304688826130cb565b845260208401935060208301925050600181019050613033565b5050505092915050565b60006040828403121561307c57600080fd5b613086604061379b565b9050600061309684828501612eb7565b60008301525060206130aa84828501612eb7565b60208301525092915050565b6000813590506130c581613965565b92915050565b6000815190506130da81613965565b92915050565b6000602082840312156130f257600080fd5b600061310084828501612ecc565b91505092915050565b6000806000806080858703121561311f57600080fd5b600061312d87828801612eb7565b945050602061313e87828801612eb7565b935050604085013567ffffffffffffffff81111561315b57600080fd5b61316787828801612ee1565b9250506060613178878288016130b6565b91505092959194509250565b60008060006060848603121561319957600080fd5b60006131a786828701612eb7565b93505060206131b886828701612eb7565b92505060406131c9868287016130b6565b9150509250925092565b600080600080608085870312156131e957600080fd5b60006131f787828801612eb7565b945050602061320887828801612eb7565b9350506040613219878288016130b6565b925050606061322a878288016130b6565b91505092959194509250565b6000806040838503121561324957600080fd5b600061325785828601612eb7565b925050602083013567ffffffffffffffff81111561327457600080fd5b61328085828601612f64565b9150509250929050565b60006020828403121561329c57600080fd5b600082015167ffffffffffffffff8111156132b657600080fd5b6132c284828501612fe7565b91505092915050565b6000602082840312156132dd57600080fd5b60006132eb848285016130cb565b91505092915050565b60006133008383613324565b60208301905092915050565b60006133188383613537565b60808301905092915050565b61332d816138ce565b82525050565b61333c816138ce565b82525050565b600061334d82613860565b613357818561389b565b935061336283613840565b8060005b8381101561339357815161337a88826132f4565b975061338583613881565b925050600181019050613366565b5085935050505092915050565b60006133ab8261386b565b6133b581856138ac565b93506133c083613850565b8060005b838110156133f15781516133d8888261330c565b97506133e38361388e565b9250506001810190506133c4565b5085935050505092915050565b600061340982613876565b61341381856138bd565b935061342381856020860161390a565b61342c8161393d565b840191505092915050565b6000613444600d836138bd565b91507f6d6174682d6e6f742d73616665000000000000000000000000000000000000006000830152602082019050919050565b6000613484600c836138bd565b91507f7375622d6f766572666c6f7700000000000000000000000000000000000000006000830152602082019050919050565b60006134c4600f836138bd565b91507f706169722d6e6f742d666f756e642e00000000000000000000000000000000006000830152602082019050919050565b6000613504600b836138bd565b91507f706169722d666f756e642e0000000000000000000000000000000000000000006000830152602082019050919050565b60808201600082015161354d600085018261358c565b506020820151613560602085018261358c565b506040820151613573604085018261358c565b506060820151613586606085018261358c565b50505050565b61359581613900565b82525050565b6135a481613900565b82525050565b60006020820190506135bf6000830184613333565b92915050565b60006040820190506135da6000830185613333565b6135e76020830184613333565b9392505050565b600060408201905081810360008301526136088185613342565b9050613617602083018461359b565b9392505050565b6000602082019050818103600083015261363881846133a0565b905092915050565b6000602082019050818103600083015261365a81846133fe565b905092915050565b6000602082019050818103600083015261367b81613437565b9050919050565b6000602082019050818103600083015261369b81613477565b9050919050565b600060208201905081810360008301526136bb816134b7565b9050919050565b600060208201905081810360008301526136db816134f7565b9050919050565b60006020820190506136f7600083018461359b565b92915050565b6000604082019050613712600083018561359b565b81810360208301526137248184613342565b90509392505050565b6000604082019050613742600083018561359b565b61374f602083018461359b565b9392505050565b600060808201905061376b600083018761359b565b613778602083018661359b565b613785604083018561359b565b613792606083018461359b565b95945050505050565b6000604051905081810181811067ffffffffffffffff821117156137be57600080fd5b8060405250919050565b600067ffffffffffffffff8211156137df57600080fd5b602082029050602081019050919050565b600067ffffffffffffffff82111561380757600080fd5b602082029050602081019050919050565b600067ffffffffffffffff82111561382f57600080fd5b602082029050602081019050919050565b6000819050602082019050919050565b6000819050602082019050919050565b600081519050919050565b600081519050919050565b600081519050919050565b6000602082019050919050565b6000602082019050919050565b600082825260208201905092915050565b600082825260208201905092915050565b600082825260208201905092915050565b60006138d9826138e0565b9050919050565b600073ffffffffffffffffffffffffffffffffffffffff82169050919050565b6000819050919050565b60005b8381101561392857808201518184015260208101905061390d565b83811115613937576000848401525b50505050565b6000601f19601f8301169050919050565b613957816138ce565b811461396257600080fd5b50565b61396e81613900565b811461397957600080fd5b5056fea26469706673582212201798ac007b9e1e6a396a297645adb60f4e246e587b9986b0c60e0670cba6194764736f6c63430006000033",
  "source": "pragma solidity ^0.6.0;\npragma experimental ABIEncoderV2;\n\ninterface IUniswapV2Router02 {\n    function factory() external pure returns (address);\n    function WETH() external pure returns (address);\n    function getAmountsOut(uint amountIn, address[] calldata path) external view returns (uint[] memory amounts);\n    function getAmountsIn(uint amountOut, address[] calldata path) external view returns (uint[] memory amounts);\n}\n\ninterface IUniswapV2Factory {\n  function getPair(address tokenA, address tokenB) external view returns (address pair);\n}\n\ninterface TokenInterface {\n    function allowance(address, address) external view returns (uint);\n    function balanceOf(address) external view returns (uint);\n    function approve(address, uint) external;\n    function transfer(address, uint) external returns (bool);\n    function decimals() external view returns (uint);\n    function totalSupply() external view returns (uint);\n}\n\ncontract DSMath {\n\n    function add(uint x, uint y) internal pure returns (uint z) {\n        require((z = x + y) >= x, \"math-not-safe\");\n    }\n\n    function mul(uint x, uint y) internal pure returns (uint z) {\n        require(y == 0 || (z = x * y) / y == x, \"math-not-safe\");\n    }\n\n    function sub(uint x, uint y) internal pure returns (uint z) {\n        require((z = x - y) <= x, \"sub-overflow\");\n    }\n\n    uint constant WAD = 10 ** 18;\n\n    function wmul(uint x, uint y) internal pure returns (uint z) {\n        z = add(mul(x, y), WAD / 2) / WAD;\n    }\n\n    function wdiv(uint x, uint y) internal pure returns (uint z) {\n        z = add(mul(x, WAD), y / 2) / y;\n    }\n\n}\n\n\ncontract Helpers is DSMath {\n    /**\n     * @dev get Ethereum address\n     */\n    function getEthAddr() public pure returns (address) {\n        return 0xEeeeeEeeeEeEeeEeEeEeeEEEeeeeEeeeeeeeEEeE;\n    }\n}\n\ncontract UniswapHelpers is Helpers {\n    /**\n     * @dev Return WETH address\n     */\n    function getAddressWETH() internal pure returns (address) {\n        return 0xc778417E063141139Fce010982780140Aa0cD5Ab;\n    }\n\n    /**\n     * @dev Return uniswap v2 router02 Address\n     */\n    function getUniswapAddr() internal pure returns (address) {\n        return 0x7a250d5630B4cF539739dF2C5dAcb4c659F2488D;\n    }\n\n    function convert18ToDec(uint _dec, uint256 _amt) internal pure returns (uint256 amt) {\n        amt = (_amt / 10 ** (18 - _dec));\n    }\n\n    function convertTo18(uint _dec, uint256 _amt) internal pure returns (uint256 amt) {\n        amt = mul(_amt, 10 ** (18 - _dec));\n    }\n\n    function changeEthAddress(address buy, address sell) internal pure returns(TokenInterface _buy, TokenInterface _sell){\n        _buy = buy == getEthAddr() ? TokenInterface(getAddressWETH()) : TokenInterface(buy);\n        _sell = sell == getEthAddr() ? TokenInterface(getAddressWETH()) : TokenInterface(sell);\n    }\n\n    function checkPaths(\n        IUniswapV2Router02 router,\n        address[] memory paths\n    ) internal view returns(bool isValid) {\n        isValid = true;\n        for (uint i; i < paths.length - 1; i++) {\n            if (paths[i] == paths[i + 1]) {\n                return false;\n            }\n            address pair = IUniswapV2Factory(router.factory()).getPair(paths[i], paths[i + 1]);\n            if (pair == address(0)) {\n                return false;\n            }\n        }\n    }\n\n    function getExpectedBuyAmt(\n        address buyAddr,\n        address sellAddr,\n        uint sellAmt\n    ) internal view returns(uint buyAmt) {\n        IUniswapV2Router02 router = IUniswapV2Router02(getUniswapAddr());\n        address[] memory paths = new address[](2);\n        paths[0] = address(sellAddr);\n        paths[1] = address(buyAddr);\n        uint[] memory amts = router.getAmountsOut(\n            sellAmt,\n            paths\n        );\n        buyAmt = amts[1];\n    }\n\n    function getExpectedSellAmt(\n        address buyAddr,\n        address sellAddr,\n        uint buyAmt\n    ) internal view returns(uint sellAmt) {\n        IUniswapV2Router02 router = IUniswapV2Router02(getUniswapAddr());\n        address[] memory paths = new address[](2);\n        paths[0] = address(sellAddr);\n        paths[1] = address(buyAddr);\n        uint[] memory amts = router.getAmountsIn(\n            buyAmt,\n            paths\n        );\n        sellAmt = amts[0];\n    }\n\n    function getBuyUnitAmt(\n        TokenInterface buyAddr,\n        uint expectedAmt,\n        TokenInterface sellAddr,\n        uint sellAmt,\n        uint slippage\n    ) internal view returns (uint unitAmt) {\n        uint _sellAmt = convertTo18((sellAddr).decimals(), sellAmt);\n        uint _buyAmt = convertTo18(buyAddr.decimals(), expectedAmt);\n        unitAmt = wdiv(_buyAmt, _sellAmt);\n        unitAmt = wmul(unitAmt, sub(WAD, slippage));\n    }\n\n    function getSellUnitAmt(\n        TokenInterface sellAddr,\n        uint expectedAmt,\n        TokenInterface buyAddr,\n        uint buyAmt,\n        uint slippage\n    ) internal view returns (uint unitAmt) {\n        uint _buyAmt = convertTo18(buyAddr.decimals(), buyAmt);\n        uint _sellAmt = convertTo18(sellAddr.decimals(), expectedAmt);\n        unitAmt = wdiv(_sellAmt, _buyAmt);\n        unitAmt = wmul(unitAmt, add(WAD, slippage));\n    }\n\n    function _getWithdrawUnitAmts(\n        TokenInterface tokenA,\n        TokenInterface tokenB,\n        uint amtA,\n        uint amtB,\n        uint uniAmt,\n        uint slippage\n    ) internal view returns (uint unitAmtA, uint unitAmtB) {\n        uint _amtA = convertTo18(tokenA.decimals(), amtA);\n        uint _amtB = convertTo18(tokenB.decimals(), amtB);\n        unitAmtA = wdiv(_amtA, uniAmt);\n        unitAmtA = wmul(unitAmtA, sub(WAD, slippage));\n        unitAmtB = wdiv(_amtB, uniAmt);\n        unitAmtB = wmul(unitAmtB, sub(WAD, slippage));\n    }\n\n    function _getWithdrawAmts(\n        TokenInterface _tokenA,\n        TokenInterface _tokenB,\n        uint uniAmt\n    ) internal view returns (uint amtA, uint amtB)\n    {\n        IUniswapV2Router02 router = IUniswapV2Router02(getUniswapAddr());\n        address exchangeAddr = IUniswapV2Factory(router.factory()).getPair(address(_tokenA), address(_tokenB));\n        require(exchangeAddr != address(0), \"pair-not-found.\");\n        TokenInterface uniToken = TokenInterface(exchangeAddr);\n        uint share = wdiv(uniAmt, uniToken.totalSupply());\n        amtA = wmul(_tokenA.balanceOf(exchangeAddr), share);\n        amtB = wmul(_tokenB.balanceOf(exchangeAddr), share);\n    }\n\n    function _getExpectedBuyAmtByPath(\n        address[] memory paths,\n        uint sellAmt\n    ) internal view returns(uint buyAmt) {\n        IUniswapV2Router02 router = IUniswapV2Router02(getUniswapAddr());\n\n        if (checkPaths(router, paths)) {\n            uint[] memory amts = router.getAmountsOut(\n                sellAmt,\n                paths\n            );\n            buyAmt = amts[1];\n        } else {\n            buyAmt = 0;\n        }\n    }\n\n    function _getExpectedSellAmtByPath(\n        address[] memory paths,\n        uint buyAmt\n    ) internal view returns(uint sellAmt) {\n        IUniswapV2Router02 router = IUniswapV2Router02(getUniswapAddr());\n\n        if (checkPaths(router, paths)) {\n           uint[] memory amts = router.getAmountsIn(\n                buyAmt,\n                paths\n            );\n            sellAmt = amts[0];\n        } else {\n            sellAmt = uint(-1);\n        }\n    }\n}\n\n\ncontract Resolver is UniswapHelpers {\n\n    function getBuyAmount(address buyAddr, address sellAddr, uint sellAmt, uint slippage)\n    public view returns (uint buyAmt, uint unitAmt)\n    {\n        (TokenInterface _buyAddr, TokenInterface _sellAddr) = changeEthAddress(buyAddr, sellAddr);\n        buyAmt = getExpectedBuyAmt(address(_buyAddr), address(_sellAddr), sellAmt);\n        unitAmt = getBuyUnitAmt(_buyAddr, buyAmt, _sellAddr, sellAmt, slippage);\n    }\n\n    function getSellAmount(address buyAddr, address sellAddr, uint buyAmt, uint slippage)\n    public view returns (uint sellAmt, uint unitAmt)\n    {\n        (TokenInterface _buyAddr, TokenInterface _sellAddr) = changeEthAddress(buyAddr, sellAddr);\n        sellAmt = getExpectedSellAmt(address(_buyAddr), address(_sellAddr), buyAmt);\n        unitAmt = getSellUnitAmt(_sellAddr, sellAmt, _buyAddr, buyAmt, slippage);\n    }\n\n    function getDepositAmount(\n        address tokenA,\n        address tokenB,\n        uint amtA\n    ) public view returns (uint amtB, uint unitAmt)\n    {\n        (TokenInterface _tokenA, TokenInterface _tokenB) = changeEthAddress(tokenA, tokenB);\n        IUniswapV2Router02 router = IUniswapV2Router02(getUniswapAddr());\n        address exchangeAddr = IUniswapV2Factory(router.factory()).getPair(address(_tokenA), address(_tokenB));\n        require(exchangeAddr != address(0), \"pair-not-found.\");\n        uint _amtA18 = convertTo18(_tokenA.decimals(), _tokenA.balanceOf(exchangeAddr));\n        uint _amtB18 = convertTo18(_tokenB.decimals(), _tokenB.balanceOf(exchangeAddr));\n        unitAmt = wdiv(_amtB18, _amtA18);\n        amtB = wmul(unitAmt, convertTo18(_tokenA.decimals(), amtA));\n        amtB = convert18ToDec(_tokenB.decimals(), amtB);\n    }\n\n    function getDepositAmountNewPool(\n        address tokenA,\n        address tokenB,\n        uint amtA,\n        uint amtB\n    ) public view returns (uint unitAmt)\n    {\n        (TokenInterface _tokenA, TokenInterface _tokenB) = changeEthAddress(tokenA, tokenB);\n        IUniswapV2Router02 router = IUniswapV2Router02(getUniswapAddr());\n        address exchangeAddr = IUniswapV2Factory(router.factory()).getPair(address(_tokenA), address(_tokenB));\n        require(exchangeAddr == address(0), \"pair-found.\");\n        uint _amtA18 = convertTo18(_tokenA.decimals(), amtA);\n        uint _amtB18 = convertTo18(_tokenB.decimals(), amtB);\n        unitAmt = wdiv(_amtB18, _amtA18);\n    }\n\n    function getWithdrawAmounts(\n        address tokenA,\n        address tokenB,\n        uint uniAmt,\n        uint slippage\n    ) public view returns (uint amtA, uint amtB, uint unitAmtA, uint unitAmtB)\n    {\n        (TokenInterface _tokenA, TokenInterface _tokenB) = changeEthAddress(tokenA, tokenB);\n        (amtA, amtB) = _getWithdrawAmts(\n            _tokenA,\n            _tokenB,\n            uniAmt\n        );\n        (unitAmtA, unitAmtB) = _getWithdrawUnitAmts(\n            _tokenA,\n            _tokenB,\n            amtA,\n            amtB,\n            uniAmt,\n            slippage\n        );\n    }\n\n    struct TokenPair {\n        address tokenA;\n        address tokenB;\n    }\n\n    struct PoolData {\n        uint tokenAShareAmt;\n        uint tokenBShareAmt;\n        uint uniAmt;\n        uint totalSupply;\n    }\n\n    function getPosition(\n        address owner,\n        TokenPair[] memory tokenPairs\n    ) public view returns (PoolData[] memory)\n    {\n        IUniswapV2Router02 router = IUniswapV2Router02(getUniswapAddr());\n        uint _len = tokenPairs.length;\n        PoolData[] memory poolData = new PoolData[](_len);\n        for (uint i = 0; i < _len; i++) {\n            (TokenInterface tokenA, TokenInterface tokenB) = changeEthAddress(tokenPairs[i].tokenA, tokenPairs[i].tokenB);\n            address exchangeAddr = IUniswapV2Factory(router.factory()).getPair(\n                address(tokenA),\n                address(tokenB)\n            );\n            if (exchangeAddr != address(0)) {\n                TokenInterface uniToken = TokenInterface(exchangeAddr);\n                uint uniAmt = uniToken.balanceOf(owner);\n                uint totalSupply = uniToken.totalSupply();\n                uint share = wdiv(uniAmt, totalSupply);\n                uint amtA = wmul(tokenA.balanceOf(exchangeAddr), share);\n                uint amtB = wmul(tokenB.balanceOf(exchangeAddr), share);\n                poolData[i] = PoolData(\n                    amtA,\n                    amtB,\n                    uniAmt,\n                    totalSupply\n                );\n            }\n        }\n        return poolData;\n    }\n\n    function getOptimalSellPath(\n        address buyAddr,\n        address sellAddr,\n        address[] memory tokens,\n        uint sellAmt\n    ) public view returns (address[] memory paths, uint buyAmt)\n    {\n        (TokenInterface _buyAddr, TokenInterface _sellAddr) = changeEthAddress(buyAddr, sellAddr);\n\n        address[] memory _path = new address[](2);\n        _path[0] = address(_sellAddr);\n        _path[1] = address(_buyAddr);\n\n        paths = _path;\n        buyAmt = _getExpectedBuyAmtByPath(_path, sellAmt);\n\n        _path = new address[](3);\n        _path[0] = address(_sellAddr);\n        _path[2] = address(_buyAddr);\n\n        uint i;\n        uint j;\n        uint _buyAmt;\n\n        for(i = 0; i < tokens.length; i++) {\n            _path[1] = tokens[i];\n\n            _buyAmt = _getExpectedBuyAmtByPath(_path, sellAmt);\n\n            if (_buyAmt > buyAmt) {\n                buyAmt = _buyAmt;\n                paths = new address[](3);\n                paths[0] = _path[0];\n                paths[1] = _path[1];\n                paths[2] = _path[2];\n            }\n        }\n\n        _path = new address[](4);\n        _path[0] = address(_sellAddr);\n        _path[3] = address(_buyAddr);\n\n        for(i = 0; i < tokens.length; i++) {\n            for(j = 0; j < tokens.length; j++) {\n                _path[1] = tokens[i];\n                _path[2] = tokens[j];\n\n                _buyAmt = _getExpectedBuyAmtByPath(_path, sellAmt);\n\n                if (_buyAmt > buyAmt) {\n                    buyAmt = _buyAmt;\n                    paths = new address[](4);\n                    paths[0] = _path[0];\n                    paths[1] = _path[1];\n                    paths[2] = _path[2];\n                    paths[3] = _path[3];\n                }\n            }\n        }\n    }\n\n    function getOptimalBuyPath(\n        address buyAddr,\n        address sellAddr,\n        address[] memory tokens,\n        uint buyAmt\n    ) public view returns (address[] memory paths, uint sellAmt)\n    {\n        (TokenInterface _buyAddr, TokenInterface _sellAddr) = changeEthAddress(buyAddr, sellAddr);\n\n        address[] memory _path = new address[](2);\n        _path[0] = address(_sellAddr);\n        _path[1] = address(_buyAddr);\n\n        paths = _path;\n        sellAmt = _getExpectedSellAmtByPath(_path, buyAmt);\n\n        _path = new address[](3);\n        _path[0] = address(_sellAddr);\n        _path[2] = address(_buyAddr);\n\n        uint i;\n        uint j;\n        uint _sellAmt;\n\n        for(i = 0; i < tokens.length; i++) {\n            _path[1] = tokens[i];\n\n            _sellAmt = _getExpectedSellAmtByPath(_path, buyAmt);\n\n            if (_sellAmt < sellAmt) {\n                sellAmt = _sellAmt;\n                paths = new address[](3);\n                paths[0] = _path[0];\n                paths[1] = _path[1];\n                paths[2] = _path[2];\n            }\n        }\n\n        _path = new address[](4);\n        _path[0] = address(_sellAddr);\n        _path[3] = address(_buyAddr);\n\n        for(i = 0; i < tokens.length; i++) {\n            for(j = 0; j < tokens.length; j++) {\n                _path[1] = tokens[i];\n                _path[2] = tokens[j];\n\n                _sellAmt = _getExpectedSellAmtByPath(_path, buyAmt);\n\n                if (_sellAmt < sellAmt) {\n                    sellAmt = _sellAmt;\n                    paths = new address[](4);\n                    paths[0] = _path[0];\n                    paths[1] = _path[1];\n                    paths[2] = _path[2];\n                    paths[3] = _path[3];\n                }\n            }\n        }\n    }\n}\n\n\ncontract InstaUniswapV2Resolver is Resolver {\n    string public constant name = \"UniswapV2-Resolver-v1\";\n}\n\n\n",
  "sourcePath": "/mnt/e/Projects/tests/uni-resolver/contracts/Uniswap.sol",
  "compiler": {
    "name": "solc",
    "version": "0.6.0+commit.26b70077.Emscripten.clang"
  },
  "schemaVersion": "3.2.4",
  "updatedAt": "2020-10-03T13:27:32.335Z",
  "networkType": "ethereum",
  "devdoc": {
    "methods": {
      "getEthAddr()": {
        "details": "get Ethereum address"
      }
    }
  },
  "userdoc": {
    "methods": {}
  }
}