{
  "contractName": "InstaUniswapV2Resolver",
  "abi": [
    {
      "inputs": [
        {
          "internalType": "address",
          "name": "buyAddr",
          "type": "address"
        },
        {
          "internalType": "address",
          "name": "sellAddr",
          "type": "address"
        },
        {
          "internalType": "uint256",
          "name": "sellAmt",
          "type": "uint256"
        },
        {
          "internalType": "uint256",
          "name": "slippage",
          "type": "uint256"
        }
      ],
      "name": "getBuyAmount",
      "outputs": [
        {
          "internalType": "uint256",
          "name": "buyAmt",
          "type": "uint256"
        },
        {
          "internalType": "uint256",
          "name": "unitAmt",
          "type": "uint256"
        }
      ],
      "stateMutability": "view",
      "type": "function",
      "constant": true
    },
    {
      "inputs": [
        {
          "internalType": "address",
          "name": "tokenA",
          "type": "address"
        },
        {
          "internalType": "address",
          "name": "tokenB",
          "type": "address"
        },
        {
          "internalType": "uint256",
          "name": "amtA",
          "type": "uint256"
        }
      ],
      "name": "getDepositAmount",
      "outputs": [
        {
          "internalType": "uint256",
          "name": "amtB",
          "type": "uint256"
        },
        {
          "internalType": "uint256",
          "name": "unitAmt",
          "type": "uint256"
        }
      ],
      "stateMutability": "view",
      "type": "function",
      "constant": true
    },
    {
      "inputs": [
        {
          "internalType": "address",
          "name": "tokenA",
          "type": "address"
        },
        {
          "internalType": "address",
          "name": "tokenB",
          "type": "address"
        },
        {
          "internalType": "uint256",
          "name": "amtA",
          "type": "uint256"
        },
        {
          "internalType": "uint256",
          "name": "amtB",
          "type": "uint256"
        }
      ],
      "name": "getDepositAmountNewPool",
      "outputs": [
        {
          "internalType": "uint256",
          "name": "unitAmt",
          "type": "uint256"
        }
      ],
      "stateMutability": "view",
      "type": "function",
      "constant": true
    },
    {
      "inputs": [],
      "name": "getEthAddr",
      "outputs": [
        {
          "internalType": "address",
          "name": "",
          "type": "address"
        }
      ],
      "stateMutability": "pure",
      "type": "function",
      "constant": true
    },
    {
      "inputs": [
        {
          "internalType": "address",
          "name": "buyAddr",
          "type": "address"
        },
        {
          "internalType": "address",
          "name": "sellAddr",
          "type": "address"
        },
        {
          "internalType": "address[]",
          "name": "tokens",
          "type": "address[]"
        },
        {
          "internalType": "uint256",
          "name": "buyAmt",
          "type": "uint256"
        },
        {
          "internalType": "uint256",
          "name": "slippage",
          "type": "uint256"
        }
      ],
      "name": "getOptimalBuyPath",
      "outputs": [
        {
          "internalType": "address[]",
          "name": "paths",
          "type": "address[]"
        },
        {
          "internalType": "uint256",
          "name": "sellAmt",
          "type": "uint256"
        },
        {
          "internalType": "uint256",
          "name": "unitAmt",
          "type": "uint256"
        }
      ],
      "stateMutability": "view",
      "type": "function",
      "constant": true
    },
    {
      "inputs": [
        {
          "internalType": "address",
          "name": "buyAddr",
          "type": "address"
        },
        {
          "internalType": "address",
          "name": "sellAddr",
          "type": "address"
        },
        {
          "internalType": "address[]",
          "name": "tokens",
          "type": "address[]"
        },
        {
          "internalType": "uint256",
          "name": "sellAmt",
          "type": "uint256"
        },
        {
          "internalType": "uint256",
          "name": "slippage",
          "type": "uint256"
        }
      ],
      "name": "getOptimalSellPath",
      "outputs": [
        {
          "internalType": "address[]",
          "name": "paths",
          "type": "address[]"
        },
        {
          "internalType": "uint256",
          "name": "buyAmt",
          "type": "uint256"
        },
        {
          "internalType": "uint256",
          "name": "unitAmt",
          "type": "uint256"
        }
      ],
      "stateMutability": "view",
      "type": "function",
      "constant": true
    },
    {
      "inputs": [
        {
          "internalType": "address",
          "name": "owner",
          "type": "address"
        },
        {
          "components": [
            {
              "internalType": "address",
              "name": "tokenA",
              "type": "address"
            },
            {
              "internalType": "address",
              "name": "tokenB",
              "type": "address"
            }
          ],
          "internalType": "struct Resolver.TokenPair[]",
          "name": "tokenPairs",
          "type": "tuple[]"
        }
      ],
      "name": "getPosition",
      "outputs": [
        {
          "components": [
            {
              "internalType": "uint256",
              "name": "tokenAShareAmt",
              "type": "uint256"
            },
            {
              "internalType": "uint256",
              "name": "tokenBShareAmt",
              "type": "uint256"
            },
            {
              "internalType": "uint256",
              "name": "uniAmt",
              "type": "uint256"
            },
            {
              "internalType": "uint256",
              "name": "totalSupply",
              "type": "uint256"
            }
          ],
          "internalType": "struct Resolver.PoolData[]",
          "name": "",
          "type": "tuple[]"
        }
      ],
      "stateMutability": "view",
      "type": "function",
      "constant": true
    },
    {
      "inputs": [
        {
          "internalType": "address",
          "name": "buyAddr",
          "type": "address"
        },
        {
          "internalType": "address",
          "name": "sellAddr",
          "type": "address"
        },
        {
          "internalType": "uint256",
          "name": "buyAmt",
          "type": "uint256"
        },
        {
          "internalType": "uint256",
          "name": "slippage",
          "type": "uint256"
        }
      ],
      "name": "getSellAmount",
      "outputs": [
        {
          "internalType": "uint256",
          "name": "sellAmt",
          "type": "uint256"
        },
        {
          "internalType": "uint256",
          "name": "unitAmt",
          "type": "uint256"
        }
      ],
      "stateMutability": "view",
      "type": "function",
      "constant": true
    },
    {
      "inputs": [
        {
          "internalType": "address",
          "name": "tokenA",
          "type": "address"
        },
        {
          "internalType": "address",
          "name": "tokenB",
          "type": "address"
        },
        {
          "internalType": "uint256",
          "name": "uniAmt",
          "type": "uint256"
        },
        {
          "internalType": "uint256",
          "name": "slippage",
          "type": "uint256"
        }
      ],
      "name": "getWithdrawAmounts",
      "outputs": [
        {
          "internalType": "uint256",
          "name": "amtA",
          "type": "uint256"
        },
        {
          "internalType": "uint256",
          "name": "amtB",
          "type": "uint256"
        },
        {
          "internalType": "uint256",
          "name": "unitAmtA",
          "type": "uint256"
        },
        {
          "internalType": "uint256",
          "name": "unitAmtB",
          "type": "uint256"
        }
      ],
      "stateMutability": "view",
      "type": "function",
      "constant": true
    },
    {
      "inputs": [],
      "name": "name",
      "outputs": [
        {
          "internalType": "string",
          "name": "",
          "type": "string"
        }
      ],
      "stateMutability": "view",
      "type": "function",
      "constant": true
    }
  ],
  "bytecode": "0x608060405234801561001057600080fd5b506139fd806100206000396000f3fe608060405234801561001057600080fd5b506004361061009e5760003560e01c80638c3bc15a116100665780638c3bc15a14610171578063b4bb12d1146101a4578063c011768b146101d5578063c53e7ba214610207578063f19fcbe9146102395761009e565b806306fdde03146100a3578063202bb80c146100c1578063295ef574146100df5780635ccfb71d14610110578063786309a314610141575b600080fd5b6100ab610269565b6040516100b8919061368b565b60405180910390f35b6100c96102a2565b6040516100d691906135e7565b60405180910390f35b6100f960048036036100f49190810190613210565b6102be565b604051610107929190613778565b60405180910390f35b61012a600480360361012591908101906131c1565b6102f9565b604051610138929190613778565b60405180910390f35b61015b60048036036101569190810190613210565b6107f0565b604051610168919061372d565b60405180910390f35b61018b60048036036101869190810190613210565b610aba565b60405161019b94939291906137a1565b60405180910390f35b6101be60048036036101b99190810190613210565b610b07565b6040516101cc929190613778565b60405180910390f35b6101ef60048036036101ea9190810190613132565b610b42565b6040516101fe9392919061362b565b60405180910390f35b610221600480360361021c9190810190613132565b611252565b6040516102309392919061362b565b60405180910390f35b610253600480360361024e9190810190613273565b611962565b6040516102609190613669565b60405180910390f35b6040518060400160405280601581526020017f556e697377617056322d5265736f6c7665722d7631000000000000000000000081525081565b600073eeeeeeeeeeeeeeeeeeeeeeeeeeeeeeeeeeeeeeee905090565b6000806000806102ce8888611dec565b915091506102dd828288611e8c565b93506102ec8185848989612013565b9250505094509492505050565b6000806000806103098787611dec565b91509150600061031761215e565b905060008173ffffffffffffffffffffffffffffffffffffffff1663c45a01556040518163ffffffff1660e01b815260040160206040518083038186803b15801561036157600080fd5b505afa158015610375573d6000803e3d6000fd5b505050506040513d601f19601f820116820180604052506103999190810190613109565b73ffffffffffffffffffffffffffffffffffffffff1663e6a4390585856040518363ffffffff1660e01b81526004016103d3929190613602565b60206040518083038186803b1580156103eb57600080fd5b505afa1580156103ff573d6000803e3d6000fd5b505050506040513d601f19601f820116820180604052506104239190810190613109565b9050600073ffffffffffffffffffffffffffffffffffffffff168173ffffffffffffffffffffffffffffffffffffffff161415610495576040517f08c379a000000000000000000000000000000000000000000000000000000000815260040161048c906136ed565b60405180910390fd5b60006105a68573ffffffffffffffffffffffffffffffffffffffff1663313ce5676040518163ffffffff1660e01b815260040160206040518083038186803b1580156104e057600080fd5b505afa1580156104f4573d6000803e3d6000fd5b505050506040513d601f19601f820116820180604052506105189190810190613308565b8673ffffffffffffffffffffffffffffffffffffffff166370a08231856040518263ffffffff1660e01b815260040161055191906135e7565b60206040518083038186803b15801561056957600080fd5b505afa15801561057d573d6000803e3d6000fd5b505050506040513d601f19601f820116820180604052506105a19190810190613308565b61217a565b905060006106b98573ffffffffffffffffffffffffffffffffffffffff1663313ce5676040518163ffffffff1660e01b815260040160206040518083038186803b1580156105f357600080fd5b505afa158015610607573d6000803e3d6000fd5b505050506040513d601f19601f8201168201806040525061062b9190810190613308565b8673ffffffffffffffffffffffffffffffffffffffff166370a08231866040518263ffffffff1660e01b815260040161066491906135e7565b60206040518083038186803b15801561067c57600080fd5b505afa158015610690573d6000803e3d6000fd5b505050506040513d601f19601f820116820180604052506106b49190810190613308565b61217a565b90506106c58183612194565b9650610757876107528873ffffffffffffffffffffffffffffffffffffffff1663313ce5676040518163ffffffff1660e01b815260040160206040518083038186803b15801561071457600080fd5b505afa158015610728573d6000803e3d6000fd5b505050506040513d601f19601f8201168201806040525061074c9190810190613308565b8c61217a565b6121cc565b97506107e08573ffffffffffffffffffffffffffffffffffffffff1663313ce5676040518163ffffffff1660e01b815260040160206040518083038186803b1580156107a257600080fd5b505afa1580156107b6573d6000803e3d6000fd5b505050506040513d601f19601f820116820180604052506107da9190810190613308565b8961220c565b9750505050505050935093915050565b60008060006107ff8787611dec565b91509150600061080d61215e565b905060008173ffffffffffffffffffffffffffffffffffffffff1663c45a01556040518163ffffffff1660e01b815260040160206040518083038186803b15801561085757600080fd5b505afa15801561086b573d6000803e3d6000fd5b505050506040513d601f19601f8201168201806040525061088f9190810190613109565b73ffffffffffffffffffffffffffffffffffffffff1663e6a4390585856040518363ffffffff1660e01b81526004016108c9929190613602565b60206040518083038186803b1580156108e157600080fd5b505afa1580156108f5573d6000803e3d6000fd5b505050506040513d601f19601f820116820180604052506109199190810190613109565b9050600073ffffffffffffffffffffffffffffffffffffffff168173ffffffffffffffffffffffffffffffffffffffff161461098a576040517f08c379a00000000000000000000000000000000000000000000000000000000081526004016109819061370d565b60405180910390fd5b6000610a138573ffffffffffffffffffffffffffffffffffffffff1663313ce5676040518163ffffffff1660e01b815260040160206040518083038186803b1580156109d557600080fd5b505afa1580156109e9573d6000803e3d6000fd5b505050506040513d601f19601f82011682018060405250610a0d9190810190613308565b8961217a565b90506000610a9e8573ffffffffffffffffffffffffffffffffffffffff1663313ce5676040518163ffffffff1660e01b815260040160206040518083038186803b158015610a6057600080fd5b505afa158015610a74573d6000803e3d6000fd5b505050506040513d601f19601f82011682018060405250610a989190810190613308565b8961217a565b9050610aaa8183612194565b9650505050505050949350505050565b600080600080600080610acd8a8a611dec565b91509150610adc82828a612226565b8096508197505050610af2828288888c8c612575565b80945081955050505050945094509450949050565b600080600080610b178888611dec565b91509150610b268282886126ed565b9350610b358285838989612874565b9250505094509492505050565b6060600080600080610b548a8a611dec565b9150915060606002604051908082528060200260200182016040528015610b8a5781602001602082028038833980820191505090505b5090508181600081518110610b9b57fe5b602002602001019073ffffffffffffffffffffffffffffffffffffffff16908173ffffffffffffffffffffffffffffffffffffffff16815250508281600181518110610be357fe5b602002602001019073ffffffffffffffffffffffffffffffffffffffff16908173ffffffffffffffffffffffffffffffffffffffff1681525050809550610c2a81896129bf565b94506003604051908082528060200260200182016040528015610c5c5781602001602082028038833980820191505090505b5090508181600081518110610c6d57fe5b602002602001019073ffffffffffffffffffffffffffffffffffffffff16908173ffffffffffffffffffffffffffffffffffffffff16815250508281600281518110610cb557fe5b602002602001019073ffffffffffffffffffffffffffffffffffffffff16908173ffffffffffffffffffffffffffffffffffffffff168152505060008060008092505b8b51831015610ec8578b8381518110610d0d57fe5b602002602001015184600181518110610d2257fe5b602002602001019073ffffffffffffffffffffffffffffffffffffffff16908173ffffffffffffffffffffffffffffffffffffffff1681525050610d66848c6129bf565b905087811015610ebb578097506003604051908082528060200260200182016040528015610da35781602001602082028038833980820191505090505b50985083600081518110610db357fe5b602002602001015189600081518110610dc857fe5b602002602001019073ffffffffffffffffffffffffffffffffffffffff16908173ffffffffffffffffffffffffffffffffffffffff168152505083600181518110610e0f57fe5b602002602001015189600181518110610e2457fe5b602002602001019073ffffffffffffffffffffffffffffffffffffffff16908173ffffffffffffffffffffffffffffffffffffffff168152505083600281518110610e6b57fe5b602002602001015189600281518110610e8057fe5b602002602001019073ffffffffffffffffffffffffffffffffffffffff16908173ffffffffffffffffffffffffffffffffffffffff16815250505b8280600101935050610cf8565b6004604051908082528060200260200182016040528015610ef85781602001602082028038833980820191505090505b5093508484600081518110610f0957fe5b602002602001019073ffffffffffffffffffffffffffffffffffffffff16908173ffffffffffffffffffffffffffffffffffffffff16815250508584600381518110610f5157fe5b602002602001019073ffffffffffffffffffffffffffffffffffffffff16908173ffffffffffffffffffffffffffffffffffffffff1681525050600092505b8b5183101561123257600091505b8b51821015611225578b8381518110610fb357fe5b602002602001015184600181518110610fc857fe5b602002602001019073ffffffffffffffffffffffffffffffffffffffff16908173ffffffffffffffffffffffffffffffffffffffff16815250508b828151811061100e57fe5b60200260200101518460028151811061102357fe5b602002602001019073ffffffffffffffffffffffffffffffffffffffff16908173ffffffffffffffffffffffffffffffffffffffff1681525050611067848c6129bf565b9050878110156112185780975060046040519080825280602002602001820160405280156110a45781602001602082028038833980820191505090505b509850836000815181106110b457fe5b6020026020010151896000815181106110c957fe5b602002602001019073ffffffffffffffffffffffffffffffffffffffff16908173ffffffffffffffffffffffffffffffffffffffff16815250508360018151811061111057fe5b60200260200101518960018151811061112557fe5b602002602001019073ffffffffffffffffffffffffffffffffffffffff16908173ffffffffffffffffffffffffffffffffffffffff16815250508360028151811061116c57fe5b60200260200101518960028151811061118157fe5b602002602001019073ffffffffffffffffffffffffffffffffffffffff16908173ffffffffffffffffffffffffffffffffffffffff1681525050836003815181106111c857fe5b6020026020010151896003815181106111dd57fe5b602002602001019073ffffffffffffffffffffffffffffffffffffffff16908173ffffffffffffffffffffffffffffffffffffffff16815250505b8180600101925050610f9e565b8280600101935050610f90565b61123f8589888e8e612013565b9650505050505050955095509592505050565b60606000806000806112648a8a611dec565b915091506060600260405190808252806020026020018201604052801561129a5781602001602082028038833980820191505090505b50905081816000815181106112ab57fe5b602002602001019073ffffffffffffffffffffffffffffffffffffffff16908173ffffffffffffffffffffffffffffffffffffffff168152505082816001815181106112f357fe5b602002602001019073ffffffffffffffffffffffffffffffffffffffff16908173ffffffffffffffffffffffffffffffffffffffff168152505080955061133a8189612ab7565b9450600360405190808252806020026020018201604052801561136c5781602001602082028038833980820191505090505b509050818160008151811061137d57fe5b602002602001019073ffffffffffffffffffffffffffffffffffffffff16908173ffffffffffffffffffffffffffffffffffffffff168152505082816002815181106113c557fe5b602002602001019073ffffffffffffffffffffffffffffffffffffffff16908173ffffffffffffffffffffffffffffffffffffffff168152505060008060008092505b8b518310156115d8578b838151811061141d57fe5b60200260200101518460018151811061143257fe5b602002602001019073ffffffffffffffffffffffffffffffffffffffff16908173ffffffffffffffffffffffffffffffffffffffff1681525050611476848c612ab7565b9050878111156115cb5780975060036040519080825280602002602001820160405280156114b35781602001602082028038833980820191505090505b509850836000815181106114c357fe5b6020026020010151896000815181106114d857fe5b602002602001019073ffffffffffffffffffffffffffffffffffffffff16908173ffffffffffffffffffffffffffffffffffffffff16815250508360018151811061151f57fe5b60200260200101518960018151811061153457fe5b602002602001019073ffffffffffffffffffffffffffffffffffffffff16908173ffffffffffffffffffffffffffffffffffffffff16815250508360028151811061157b57fe5b60200260200101518960028151811061159057fe5b602002602001019073ffffffffffffffffffffffffffffffffffffffff16908173ffffffffffffffffffffffffffffffffffffffff16815250505b8280600101935050611408565b60046040519080825280602002602001820160405280156116085781602001602082028038833980820191505090505b509350848460008151811061161957fe5b602002602001019073ffffffffffffffffffffffffffffffffffffffff16908173ffffffffffffffffffffffffffffffffffffffff1681525050858460038151811061166157fe5b602002602001019073ffffffffffffffffffffffffffffffffffffffff16908173ffffffffffffffffffffffffffffffffffffffff1681525050600092505b8b5183101561194257600091505b8b51821015611935578b83815181106116c357fe5b6020026020010151846001815181106116d857fe5b602002602001019073ffffffffffffffffffffffffffffffffffffffff16908173ffffffffffffffffffffffffffffffffffffffff16815250508b828151811061171e57fe5b60200260200101518460028151811061173357fe5b602002602001019073ffffffffffffffffffffffffffffffffffffffff16908173ffffffffffffffffffffffffffffffffffffffff1681525050611777848c612ab7565b9050878111156119285780975060046040519080825280602002602001820160405280156117b45781602001602082028038833980820191505090505b509850836000815181106117c457fe5b6020026020010151896000815181106117d957fe5b602002602001019073ffffffffffffffffffffffffffffffffffffffff16908173ffffffffffffffffffffffffffffffffffffffff16815250508360018151811061182057fe5b60200260200101518960018151811061183557fe5b602002602001019073ffffffffffffffffffffffffffffffffffffffff16908173ffffffffffffffffffffffffffffffffffffffff16815250508360028151811061187c57fe5b60200260200101518960028151811061189157fe5b602002602001019073ffffffffffffffffffffffffffffffffffffffff16908173ffffffffffffffffffffffffffffffffffffffff1681525050836003815181106118d857fe5b6020026020010151896003815181106118ed57fe5b602002602001019073ffffffffffffffffffffffffffffffffffffffff16908173ffffffffffffffffffffffffffffffffffffffff16815250505b81806001019250506116ae565b82806001019350506116a0565b61194f8689878e8e612874565b9650505050505050955095509592505050565b6060600061196e61215e565b90506000835190506060816040519080825280602002602001820160405280156119b257816020015b61199f612eb8565b8152602001906001900390816119975790505b50905060008090505b82811015611ddf576000806119fe8884815181106119d557fe5b6020026020010151600001518985815181106119ed57fe5b602002602001015160200151611dec565b9150915060008673ffffffffffffffffffffffffffffffffffffffff1663c45a01556040518163ffffffff1660e01b815260040160206040518083038186803b158015611a4a57600080fd5b505afa158015611a5e573d6000803e3d6000fd5b505050506040513d601f19601f82011682018060405250611a829190810190613109565b73ffffffffffffffffffffffffffffffffffffffff1663e6a4390584846040518363ffffffff1660e01b8152600401611abc929190613602565b60206040518083038186803b158015611ad457600080fd5b505afa158015611ae8573d6000803e3d6000fd5b505050506040513d601f19601f82011682018060405250611b0c9190810190613109565b9050600073ffffffffffffffffffffffffffffffffffffffff168173ffffffffffffffffffffffffffffffffffffffff1614611dcf57600081905060008173ffffffffffffffffffffffffffffffffffffffff166370a082318d6040518263ffffffff1660e01b8152600401611b8291906135e7565b60206040518083038186803b158015611b9a57600080fd5b505afa158015611bae573d6000803e3d6000fd5b505050506040513d601f19601f82011682018060405250611bd29190810190613308565b905060008273ffffffffffffffffffffffffffffffffffffffff166318160ddd6040518163ffffffff1660e01b815260040160206040518083038186803b158015611c1c57600080fd5b505afa158015611c30573d6000803e3d6000fd5b505050506040513d601f19601f82011682018060405250611c549190810190613308565b90506000611c628383612194565b90506000611cf88873ffffffffffffffffffffffffffffffffffffffff166370a08231886040518263ffffffff1660e01b8152600401611ca291906135e7565b60206040518083038186803b158015611cba57600080fd5b505afa158015611cce573d6000803e3d6000fd5b505050506040513d601f19601f82011682018060405250611cf29190810190613308565b836121cc565b90506000611d8e8873ffffffffffffffffffffffffffffffffffffffff166370a08231896040518263ffffffff1660e01b8152600401611d3891906135e7565b60206040518083038186803b158015611d5057600080fd5b505afa158015611d64573d6000803e3d6000fd5b505050506040513d601f19601f82011682018060405250611d889190810190613308565b846121cc565b90506040518060800160405280838152602001828152602001868152602001858152508b8b81518110611dbd57fe5b60200260200101819052505050505050505b50505080806001019150506119bb565b5080935050505092915050565b600080611df76102a2565b73ffffffffffffffffffffffffffffffffffffffff168473ffffffffffffffffffffffffffffffffffffffff1614611e2f5783611e38565b611e37612b93565b5b9150611e426102a2565b73ffffffffffffffffffffffffffffffffffffffff168373ffffffffffffffffffffffffffffffffffffffff1614611e7a5782611e83565b611e82612b93565b5b90509250929050565b600080611e9761215e565b905060606002604051908082528060200260200182016040528015611ecb5781602001602082028038833980820191505090505b5090508481600081518110611edc57fe5b602002602001019073ffffffffffffffffffffffffffffffffffffffff16908173ffffffffffffffffffffffffffffffffffffffff16815250508581600181518110611f2457fe5b602002602001019073ffffffffffffffffffffffffffffffffffffffff16908173ffffffffffffffffffffffffffffffffffffffff168152505060608273ffffffffffffffffffffffffffffffffffffffff16631f00ca7486846040518363ffffffff1660e01b8152600401611f9b929190613748565b60006040518083038186803b158015611fb357600080fd5b505afa158015611fc7573d6000803e3d6000fd5b505050506040513d6000823e3d601f19601f82011682018060405250611ff091908101906132c7565b905080600081518110611fff57fe5b602002602001015193505050509392505050565b60008061209d8573ffffffffffffffffffffffffffffffffffffffff1663313ce5676040518163ffffffff1660e01b815260040160206040518083038186803b15801561205f57600080fd5b505afa158015612073573d6000803e3d6000fd5b505050506040513d601f19601f820116820180604052506120979190810190613308565b8561217a565b905060006121288873ffffffffffffffffffffffffffffffffffffffff1663313ce5676040518163ffffffff1660e01b815260040160206040518083038186803b1580156120ea57600080fd5b505afa1580156120fe573d6000803e3d6000fd5b505050506040513d601f19601f820116820180604052506121229190810190613308565b8861217a565b90506121348183612194565b92506121518361214c670de0b6b3a764000087612baf565b6121cc565b9250505095945050505050565b6000737a250d5630b4cf539739df2c5dacb4c659f2488d905090565b600061218c8284601203600a0a612bff565b905092915050565b6000816121bc6121ac85670de0b6b3a7640000612bff565b600285816121b657fe5b04612baf565b816121c357fe5b04905092915050565b6000670de0b6b3a76400006121fc6121e48585612bff565b6002670de0b6b3a7640000816121f657fe5b04612baf565b8161220357fe5b04905092915050565b600082601203600a0a828161221d57fe5b04905092915050565b600080600061223361215e565b905060008173ffffffffffffffffffffffffffffffffffffffff1663c45a01556040518163ffffffff1660e01b815260040160206040518083038186803b15801561227d57600080fd5b505afa158015612291573d6000803e3d6000fd5b505050506040513d601f19601f820116820180604052506122b59190810190613109565b73ffffffffffffffffffffffffffffffffffffffff1663e6a4390588886040518363ffffffff1660e01b81526004016122ef929190613602565b60206040518083038186803b15801561230757600080fd5b505afa15801561231b573d6000803e3d6000fd5b505050506040513d601f19601f8201168201806040525061233f9190810190613109565b9050600073ffffffffffffffffffffffffffffffffffffffff168173ffffffffffffffffffffffffffffffffffffffff1614156123b1576040517f08c379a00000000000000000000000000000000000000000000000000000000081526004016123a8906136ed565b60405180910390fd5b6000819050600061243f878373ffffffffffffffffffffffffffffffffffffffff166318160ddd6040518163ffffffff1660e01b815260040160206040518083038186803b15801561240257600080fd5b505afa158015612416573d6000803e3d6000fd5b505050506040513d601f19601f8201168201806040525061243a9190810190613308565b612194565b90506124d38973ffffffffffffffffffffffffffffffffffffffff166370a08231856040518263ffffffff1660e01b815260040161247d91906135e7565b60206040518083038186803b15801561249557600080fd5b505afa1580156124a9573d6000803e3d6000fd5b505050506040513d601f19601f820116820180604052506124cd9190810190613308565b826121cc565b95506125678873ffffffffffffffffffffffffffffffffffffffff166370a08231856040518263ffffffff1660e01b815260040161251191906135e7565b60206040518083038186803b15801561252957600080fd5b505afa15801561253d573d6000803e3d6000fd5b505050506040513d601f19601f820116820180604052506125619190810190613308565b826121cc565b945050505050935093915050565b60008060006126018973ffffffffffffffffffffffffffffffffffffffff1663313ce5676040518163ffffffff1660e01b815260040160206040518083038186803b1580156125c357600080fd5b505afa1580156125d7573d6000803e3d6000fd5b505050506040513d601f19601f820116820180604052506125fb9190810190613308565b8861217a565b9050600061268c8973ffffffffffffffffffffffffffffffffffffffff1663313ce5676040518163ffffffff1660e01b815260040160206040518083038186803b15801561264e57600080fd5b505afa158015612662573d6000803e3d6000fd5b505050506040513d601f19601f820116820180604052506126869190810190613308565b8861217a565b90506126988287612194565b93506126b5846126b0670de0b6b3a764000088612c61565b6121cc565b93506126c18187612194565b92506126de836126d9670de0b6b3a764000088612c61565b6121cc565b92505050965096945050505050565b6000806126f861215e565b90506060600260405190808252806020026020018201604052801561272c5781602001602082028038833980820191505090505b509050848160008151811061273d57fe5b602002602001019073ffffffffffffffffffffffffffffffffffffffff16908173ffffffffffffffffffffffffffffffffffffffff1681525050858160018151811061278557fe5b602002602001019073ffffffffffffffffffffffffffffffffffffffff16908173ffffffffffffffffffffffffffffffffffffffff168152505060608273ffffffffffffffffffffffffffffffffffffffff1663d06ca61f86846040518363ffffffff1660e01b81526004016127fc929190613748565b60006040518083038186803b15801561281457600080fd5b505afa158015612828573d6000803e3d6000fd5b505050506040513d6000823e3d601f19601f8201168201806040525061285191908101906132c7565b90508060018151811061286057fe5b602002602001015193505050509392505050565b6000806128fe8573ffffffffffffffffffffffffffffffffffffffff1663313ce5676040518163ffffffff1660e01b815260040160206040518083038186803b1580156128c057600080fd5b505afa1580156128d4573d6000803e3d6000fd5b505050506040513d601f19601f820116820180604052506128f89190810190613308565b8561217a565b905060006129898873ffffffffffffffffffffffffffffffffffffffff1663313ce5676040518163ffffffff1660e01b815260040160206040518083038186803b15801561294b57600080fd5b505afa15801561295f573d6000803e3d6000fd5b505050506040513d601f19601f820116820180604052506129839190810190613308565b8861217a565b90506129958183612194565b92506129b2836129ad670de0b6b3a764000087612c61565b6121cc565b9250505095945050505050565b6000806129ca61215e565b90506129d68185612cb1565b15612a8c5760608173ffffffffffffffffffffffffffffffffffffffff16631f00ca7485876040518363ffffffff1660e01b8152600401612a18929190613748565b60006040518083038186803b158015612a3057600080fd5b505afa158015612a44573d6000803e3d6000fd5b505050506040513d6000823e3d601f19601f82011682018060405250612a6d91908101906132c7565b905080600081518110612a7c57fe5b6020026020010151925050612ab0565b7fffffffffffffffffffffffffffffffffffffffffffffffffffffffffffffffff91505b5092915050565b600080612ac261215e565b9050612ace8185612cb1565b15612b875760608173ffffffffffffffffffffffffffffffffffffffff1663d06ca61f85876040518363ffffffff1660e01b8152600401612b10929190613748565b60006040518083038186803b158015612b2857600080fd5b505afa158015612b3c573d6000803e3d6000fd5b505050506040513d6000823e3d601f19601f82011682018060405250612b6591908101906132c7565b905080600182510381518110612b7757fe5b6020026020010151925050612b8c565b600091505b5092915050565b600073c778417e063141139fce010982780140aa0cd5ab905090565b6000828284019150811015612bf9576040517f08c379a0000000000000000000000000000000000000000000000000000000008152600401612bf0906136ad565b60405180910390fd5b92915050565b600080821480612c1c5750828283850292508281612c1957fe5b04145b612c5b576040517f08c379a0000000000000000000000000000000000000000000000000000000008152600401612c52906136ad565b60405180910390fd5b92915050565b6000828284039150811115612cab576040517f08c379a0000000000000000000000000000000000000000000000000000000008152600401612ca2906136cd565b60405180910390fd5b92915050565b60006001905060005b6001835103811015612eb057826001820181518110612cd557fe5b602002602001015173ffffffffffffffffffffffffffffffffffffffff16838281518110612cff57fe5b602002602001015173ffffffffffffffffffffffffffffffffffffffff161415612d2d576000915050612eb2565b60008473ffffffffffffffffffffffffffffffffffffffff1663c45a01556040518163ffffffff1660e01b815260040160206040518083038186803b158015612d7557600080fd5b505afa158015612d89573d6000803e3d6000fd5b505050506040513d601f19601f82011682018060405250612dad9190810190613109565b73ffffffffffffffffffffffffffffffffffffffff1663e6a43905858481518110612dd457fe5b6020026020010151866001860181518110612deb57fe5b60200260200101516040518363ffffffff1660e01b8152600401612e10929190613602565b60206040518083038186803b158015612e2857600080fd5b505afa158015612e3c573d6000803e3d6000fd5b505050506040513d601f19601f82011682018060405250612e609190810190613109565b9050600073ffffffffffffffffffffffffffffffffffffffff168173ffffffffffffffffffffffffffffffffffffffff161415612ea257600092505050612eb2565b508080600101915050612cba565b505b92915050565b6040518060800160405280600081526020016000815260200160008152602001600081525090565b600081359050612eef81613999565b92915050565b600081519050612f0481613999565b92915050565b600082601f830112612f1b57600080fd5b8135612f2e612f2982613813565b6137e6565b91508181835260208401935060208101905083856020840282011115612f5357600080fd5b60005b83811015612f835781612f698882612ee0565b845260208401935060208301925050600181019050612f56565b5050505092915050565b600082601f830112612f9e57600080fd5b8135612fb1612fac8261383b565b6137e6565b91508181835260208401935060208101905083856040840282011115612fd657600080fd5b60005b838110156130065781612fec8882613093565b845260208401935060408301925050600181019050612fd9565b5050505092915050565b600082601f83011261302157600080fd5b815161303461302f82613863565b6137e6565b9150818183526020840193506020810190508385602084028201111561305957600080fd5b60005b83811015613089578161306f88826130f4565b84526020840193506020830192505060018101905061305c565b5050505092915050565b6000604082840312156130a557600080fd5b6130af60406137e6565b905060006130bf84828501612ee0565b60008301525060206130d384828501612ee0565b60208301525092915050565b6000813590506130ee816139b0565b92915050565b600081519050613103816139b0565b92915050565b60006020828403121561311b57600080fd5b600061312984828501612ef5565b91505092915050565b600080600080600060a0868803121561314a57600080fd5b600061315888828901612ee0565b955050602061316988828901612ee0565b945050604086013567ffffffffffffffff81111561318657600080fd5b61319288828901612f0a565b93505060606131a3888289016130df565b92505060806131b4888289016130df565b9150509295509295909350565b6000806000606084860312156131d657600080fd5b60006131e486828701612ee0565b93505060206131f586828701612ee0565b9250506040613206868287016130df565b9150509250925092565b6000806000806080858703121561322657600080fd5b600061323487828801612ee0565b945050602061324587828801612ee0565b9350506040613256878288016130df565b9250506060613267878288016130df565b91505092959194509250565b6000806040838503121561328657600080fd5b600061329485828601612ee0565b925050602083013567ffffffffffffffff8111156132b157600080fd5b6132bd85828601612f8d565b9150509250929050565b6000602082840312156132d957600080fd5b600082015167ffffffffffffffff8111156132f357600080fd5b6132ff84828501613010565b91505092915050565b60006020828403121561331a57600080fd5b6000613328848285016130f4565b91505092915050565b600061333d8383613361565b60208301905092915050565b60006133558383613574565b60808301905092915050565b61336a81613919565b82525050565b61337981613919565b82525050565b600061338a826138ab565b61339481856138e6565b935061339f8361388b565b8060005b838110156133d05781516133b78882613331565b97506133c2836138cc565b9250506001810190506133a3565b5085935050505092915050565b60006133e8826138b6565b6133f281856138f7565b93506133fd8361389b565b8060005b8381101561342e5781516134158882613349565b9750613420836138d9565b925050600181019050613401565b5085935050505092915050565b6000613446826138c1565b6134508185613908565b9350613460818560208601613955565b61346981613988565b840191505092915050565b6000613481600d83613908565b91507f6d6174682d6e6f742d73616665000000000000000000000000000000000000006000830152602082019050919050565b60006134c1600c83613908565b91507f7375622d6f766572666c6f7700000000000000000000000000000000000000006000830152602082019050919050565b6000613501600f83613908565b91507f706169722d6e6f742d666f756e642e00000000000000000000000000000000006000830152602082019050919050565b6000613541600b83613908565b91507f706169722d666f756e642e0000000000000000000000000000000000000000006000830152602082019050919050565b60808201600082015161358a60008501826135c9565b50602082015161359d60208501826135c9565b5060408201516135b060408501826135c9565b5060608201516135c360608501826135c9565b50505050565b6135d28161394b565b82525050565b6135e18161394b565b82525050565b60006020820190506135fc6000830184613370565b92915050565b60006040820190506136176000830185613370565b6136246020830184613370565b9392505050565b60006060820190508181036000830152613645818661337f565b905061365460208301856135d8565b61366160408301846135d8565b949350505050565b6000602082019050818103600083015261368381846133dd565b905092915050565b600060208201905081810360008301526136a5818461343b565b905092915050565b600060208201905081810360008301526136c681613474565b9050919050565b600060208201905081810360008301526136e6816134b4565b9050919050565b60006020820190508181036000830152613706816134f4565b9050919050565b6000602082019050818103600083015261372681613534565b9050919050565b600060208201905061374260008301846135d8565b92915050565b600060408201905061375d60008301856135d8565b818103602083015261376f818461337f565b90509392505050565b600060408201905061378d60008301856135d8565b61379a60208301846135d8565b9392505050565b60006080820190506137b660008301876135d8565b6137c360208301866135d8565b6137d060408301856135d8565b6137dd60608301846135d8565b95945050505050565b6000604051905081810181811067ffffffffffffffff8211171561380957600080fd5b8060405250919050565b600067ffffffffffffffff82111561382a57600080fd5b602082029050602081019050919050565b600067ffffffffffffffff82111561385257600080fd5b602082029050602081019050919050565b600067ffffffffffffffff82111561387a57600080fd5b602082029050602081019050919050565b6000819050602082019050919050565b6000819050602082019050919050565b600081519050919050565b600081519050919050565b600081519050919050565b6000602082019050919050565b6000602082019050919050565b600082825260208201905092915050565b600082825260208201905092915050565b600082825260208201905092915050565b60006139248261392b565b9050919050565b600073ffffffffffffffffffffffffffffffffffffffff82169050919050565b6000819050919050565b60005b83811015613973578082015181840152602081019050613958565b83811115613982576000848401525b50505050565b6000601f19601f8301169050919050565b6139a281613919565b81146139ad57600080fd5b50565b6139b98161394b565b81146139c457600080fd5b5056fea26469706673582212202f5a35446277f1f575e53ff249a855e47bc546357b703d4b709a1deba16af1a164736f6c63430006000033",
  "source": "pragma solidity ^0.6.0;\npragma experimental ABIEncoderV2;\n\ninterface IUniswapV2Router02 {\n    function factory() external pure returns (address);\n    function WETH() external pure returns (address);\n    function getAmountsOut(uint amountIn, address[] calldata path) external view returns (uint[] memory amounts);\n    function getAmountsIn(uint amountOut, address[] calldata path) external view returns (uint[] memory amounts);\n}\n\ninterface IUniswapV2Factory {\n  function getPair(address tokenA, address tokenB) external view returns (address pair);\n}\n\ninterface TokenInterface {\n    function allowance(address, address) external view returns (uint);\n    function balanceOf(address) external view returns (uint);\n    function approve(address, uint) external;\n    function transfer(address, uint) external returns (bool);\n    function decimals() external view returns (uint);\n    function totalSupply() external view returns (uint);\n}\n\ncontract DSMath {\n\n    function add(uint x, uint y) internal pure returns (uint z) {\n        require((z = x + y) >= x, \"math-not-safe\");\n    }\n\n    function mul(uint x, uint y) internal pure returns (uint z) {\n        require(y == 0 || (z = x * y) / y == x, \"math-not-safe\");\n    }\n\n    function sub(uint x, uint y) internal pure returns (uint z) {\n        require((z = x - y) <= x, \"sub-overflow\");\n    }\n\n    uint constant WAD = 10 ** 18;\n\n    function wmul(uint x, uint y) internal pure returns (uint z) {\n        z = add(mul(x, y), WAD / 2) / WAD;\n    }\n\n    function wdiv(uint x, uint y) internal pure returns (uint z) {\n        z = add(mul(x, WAD), y / 2) / y;\n    }\n\n}\n\n\ncontract Helpers is DSMath {\n    /**\n     * @dev get Ethereum address\n     */\n    function getEthAddr() public pure returns (address) {\n        return 0xEeeeeEeeeEeEeeEeEeEeeEEEeeeeEeeeeeeeEEeE;\n    }\n}\n\ncontract UniswapHelpers is Helpers {\n    /**\n     * @dev Return WETH address\n     */\n    function getAddressWETH() internal pure returns (address) {\n        return 0xc778417E063141139Fce010982780140Aa0cD5Ab;\n    }\n\n    /**\n     * @dev Return uniswap v2 router02 Address\n     */\n    function getUniswapAddr() internal pure returns (address) {\n        return 0x7a250d5630B4cF539739dF2C5dAcb4c659F2488D;\n    }\n\n    function convert18ToDec(uint _dec, uint256 _amt) internal pure returns (uint256 amt) {\n        amt = (_amt / 10 ** (18 - _dec));\n    }\n\n    function convertTo18(uint _dec, uint256 _amt) internal pure returns (uint256 amt) {\n        amt = mul(_amt, 10 ** (18 - _dec));\n    }\n\n    function changeEthAddress(address buy, address sell) internal pure returns(TokenInterface _buy, TokenInterface _sell){\n        _buy = buy == getEthAddr() ? TokenInterface(getAddressWETH()) : TokenInterface(buy);\n        _sell = sell == getEthAddr() ? TokenInterface(getAddressWETH()) : TokenInterface(sell);\n    }\n\n    function checkPaths(\n        IUniswapV2Router02 router,\n        address[] memory paths\n    ) internal view returns(bool isValid) {\n        isValid = true;\n        for (uint i; i < paths.length - 1; i++) {\n            if (paths[i] == paths[i + 1]) {\n                return false;\n            }\n            address pair = IUniswapV2Factory(router.factory()).getPair(paths[i], paths[i + 1]);\n            if (pair == address(0)) {\n                return false;\n            }\n        }\n    }\n\n    function getExpectedBuyAmt(\n        address buyAddr,\n        address sellAddr,\n        uint sellAmt\n    ) internal view returns(uint buyAmt) {\n        IUniswapV2Router02 router = IUniswapV2Router02(getUniswapAddr());\n        address[] memory paths = new address[](2);\n        paths[0] = address(sellAddr);\n        paths[1] = address(buyAddr);\n        uint[] memory amts = router.getAmountsOut(\n            sellAmt,\n            paths\n        );\n        buyAmt = amts[1];\n    }\n\n    function getExpectedSellAmt(\n        address buyAddr,\n        address sellAddr,\n        uint buyAmt\n    ) internal view returns(uint sellAmt) {\n        IUniswapV2Router02 router = IUniswapV2Router02(getUniswapAddr());\n        address[] memory paths = new address[](2);\n        paths[0] = address(sellAddr);\n        paths[1] = address(buyAddr);\n        uint[] memory amts = router.getAmountsIn(\n            buyAmt,\n            paths\n        );\n        sellAmt = amts[0];\n    }\n\n    function getBuyUnitAmt(\n        TokenInterface buyAddr,\n        uint expectedAmt,\n        TokenInterface sellAddr,\n        uint sellAmt,\n        uint slippage\n    ) internal view returns (uint unitAmt) {\n        uint _sellAmt = convertTo18((sellAddr).decimals(), sellAmt);\n        uint _buyAmt = convertTo18(buyAddr.decimals(), expectedAmt);\n        unitAmt = wdiv(_buyAmt, _sellAmt);\n        unitAmt = wmul(unitAmt, sub(WAD, slippage));\n    }\n\n    function getSellUnitAmt(\n        TokenInterface sellAddr,\n        uint expectedAmt,\n        TokenInterface buyAddr,\n        uint buyAmt,\n        uint slippage\n    ) internal view returns (uint unitAmt) {\n        uint _buyAmt = convertTo18(buyAddr.decimals(), buyAmt);\n        uint _sellAmt = convertTo18(sellAddr.decimals(), expectedAmt);\n        unitAmt = wdiv(_sellAmt, _buyAmt);\n        unitAmt = wmul(unitAmt, add(WAD, slippage));\n    }\n\n    function _getWithdrawUnitAmts(\n        TokenInterface tokenA,\n        TokenInterface tokenB,\n        uint amtA,\n        uint amtB,\n        uint uniAmt,\n        uint slippage\n    ) internal view returns (uint unitAmtA, uint unitAmtB) {\n        uint _amtA = convertTo18(tokenA.decimals(), amtA);\n        uint _amtB = convertTo18(tokenB.decimals(), amtB);\n        unitAmtA = wdiv(_amtA, uniAmt);\n        unitAmtA = wmul(unitAmtA, sub(WAD, slippage));\n        unitAmtB = wdiv(_amtB, uniAmt);\n        unitAmtB = wmul(unitAmtB, sub(WAD, slippage));\n    }\n\n    function _getWithdrawAmts(\n        TokenInterface _tokenA,\n        TokenInterface _tokenB,\n        uint uniAmt\n    ) internal view returns (uint amtA, uint amtB)\n    {\n        IUniswapV2Router02 router = IUniswapV2Router02(getUniswapAddr());\n        address exchangeAddr = IUniswapV2Factory(router.factory()).getPair(address(_tokenA), address(_tokenB));\n        require(exchangeAddr != address(0), \"pair-not-found.\");\n        TokenInterface uniToken = TokenInterface(exchangeAddr);\n        uint share = wdiv(uniAmt, uniToken.totalSupply());\n        amtA = wmul(_tokenA.balanceOf(exchangeAddr), share);\n        amtB = wmul(_tokenB.balanceOf(exchangeAddr), share);\n    }\n\n    function _getExpectedBuyAmtByPath(\n        address[] memory paths,\n        uint sellAmt\n    ) internal view returns(uint buyAmt) {\n        IUniswapV2Router02 router = IUniswapV2Router02(getUniswapAddr());\n\n        if (checkPaths(router, paths)) {\n            uint[] memory amts = router.getAmountsOut(\n                sellAmt,\n                paths\n            );\n            buyAmt = amts[amts.length - 1];\n        } else {\n            buyAmt = 0;\n        }\n    }\n\n    function _getExpectedSellAmtByPath(\n        address[] memory paths,\n        uint buyAmt\n    ) internal view returns(uint sellAmt) {\n        IUniswapV2Router02 router = IUniswapV2Router02(getUniswapAddr());\n\n        if (checkPaths(router, paths)) {\n           uint[] memory amts = router.getAmountsIn(\n                buyAmt,\n                paths\n            );\n            sellAmt = amts[0];\n        } else {\n            sellAmt = uint(-1);\n        }\n    }\n}\n\n\ncontract Resolver is UniswapHelpers {\n\n    function getBuyAmount(address buyAddr, address sellAddr, uint sellAmt, uint slippage)\n    public view returns (uint buyAmt, uint unitAmt)\n    {\n        (TokenInterface _buyAddr, TokenInterface _sellAddr) = changeEthAddress(buyAddr, sellAddr);\n        buyAmt = getExpectedBuyAmt(address(_buyAddr), address(_sellAddr), sellAmt);\n        unitAmt = getBuyUnitAmt(_buyAddr, buyAmt, _sellAddr, sellAmt, slippage);\n    }\n\n    function getSellAmount(address buyAddr, address sellAddr, uint buyAmt, uint slippage)\n    public view returns (uint sellAmt, uint unitAmt)\n    {\n        (TokenInterface _buyAddr, TokenInterface _sellAddr) = changeEthAddress(buyAddr, sellAddr);\n        sellAmt = getExpectedSellAmt(address(_buyAddr), address(_sellAddr), buyAmt);\n        unitAmt = getSellUnitAmt(_sellAddr, sellAmt, _buyAddr, buyAmt, slippage);\n    }\n\n    function getDepositAmount(\n        address tokenA,\n        address tokenB,\n        uint amtA\n    ) public view returns (uint amtB, uint unitAmt)\n    {\n        (TokenInterface _tokenA, TokenInterface _tokenB) = changeEthAddress(tokenA, tokenB);\n        IUniswapV2Router02 router = IUniswapV2Router02(getUniswapAddr());\n        address exchangeAddr = IUniswapV2Factory(router.factory()).getPair(address(_tokenA), address(_tokenB));\n        require(exchangeAddr != address(0), \"pair-not-found.\");\n        uint _amtA18 = convertTo18(_tokenA.decimals(), _tokenA.balanceOf(exchangeAddr));\n        uint _amtB18 = convertTo18(_tokenB.decimals(), _tokenB.balanceOf(exchangeAddr));\n        unitAmt = wdiv(_amtB18, _amtA18);\n        amtB = wmul(unitAmt, convertTo18(_tokenA.decimals(), amtA));\n        amtB = convert18ToDec(_tokenB.decimals(), amtB);\n    }\n\n    function getDepositAmountNewPool(\n        address tokenA,\n        address tokenB,\n        uint amtA,\n        uint amtB\n    ) public view returns (uint unitAmt)\n    {\n        (TokenInterface _tokenA, TokenInterface _tokenB) = changeEthAddress(tokenA, tokenB);\n        IUniswapV2Router02 router = IUniswapV2Router02(getUniswapAddr());\n        address exchangeAddr = IUniswapV2Factory(router.factory()).getPair(address(_tokenA), address(_tokenB));\n        require(exchangeAddr == address(0), \"pair-found.\");\n        uint _amtA18 = convertTo18(_tokenA.decimals(), amtA);\n        uint _amtB18 = convertTo18(_tokenB.decimals(), amtB);\n        unitAmt = wdiv(_amtB18, _amtA18);\n    }\n\n    function getWithdrawAmounts(\n        address tokenA,\n        address tokenB,\n        uint uniAmt,\n        uint slippage\n    ) public view returns (uint amtA, uint amtB, uint unitAmtA, uint unitAmtB)\n    {\n        (TokenInterface _tokenA, TokenInterface _tokenB) = changeEthAddress(tokenA, tokenB);\n        (amtA, amtB) = _getWithdrawAmts(\n            _tokenA,\n            _tokenB,\n            uniAmt\n        );\n        (unitAmtA, unitAmtB) = _getWithdrawUnitAmts(\n            _tokenA,\n            _tokenB,\n            amtA,\n            amtB,\n            uniAmt,\n            slippage\n        );\n    }\n\n    struct TokenPair {\n        address tokenA;\n        address tokenB;\n    }\n\n    struct PoolData {\n        uint tokenAShareAmt;\n        uint tokenBShareAmt;\n        uint uniAmt;\n        uint totalSupply;\n    }\n\n    function getPosition(\n        address owner,\n        TokenPair[] memory tokenPairs\n    ) public view returns (PoolData[] memory)\n    {\n        IUniswapV2Router02 router = IUniswapV2Router02(getUniswapAddr());\n        uint _len = tokenPairs.length;\n        PoolData[] memory poolData = new PoolData[](_len);\n        for (uint i = 0; i < _len; i++) {\n            (TokenInterface tokenA, TokenInterface tokenB) = changeEthAddress(tokenPairs[i].tokenA, tokenPairs[i].tokenB);\n            address exchangeAddr = IUniswapV2Factory(router.factory()).getPair(\n                address(tokenA),\n                address(tokenB)\n            );\n            if (exchangeAddr != address(0)) {\n                TokenInterface uniToken = TokenInterface(exchangeAddr);\n                uint uniAmt = uniToken.balanceOf(owner);\n                uint totalSupply = uniToken.totalSupply();\n                uint share = wdiv(uniAmt, totalSupply);\n                uint amtA = wmul(tokenA.balanceOf(exchangeAddr), share);\n                uint amtB = wmul(tokenB.balanceOf(exchangeAddr), share);\n                poolData[i] = PoolData(\n                    amtA,\n                    amtB,\n                    uniAmt,\n                    totalSupply\n                );\n            }\n        }\n        return poolData;\n    }\n\n    function getOptimalSellPath(\n        address buyAddr,\n        address sellAddr,\n        address[] memory tokens,\n        uint sellAmt,\n        uint slippage\n    ) public view returns (address[] memory paths, uint buyAmt, uint unitAmt)\n    {\n        (TokenInterface _buyAddr, TokenInterface _sellAddr) = changeEthAddress(buyAddr, sellAddr);\n\n        address[] memory _path = new address[](2);\n        _path[0] = address(_sellAddr);\n        _path[1] = address(_buyAddr);\n\n        paths = _path;\n        buyAmt = _getExpectedBuyAmtByPath(_path, sellAmt);\n\n        _path = new address[](3);\n        _path[0] = address(_sellAddr);\n        _path[2] = address(_buyAddr);\n\n        uint i;\n        uint j;\n        uint _buyAmt;\n\n        for(i = 0; i < tokens.length; i++) {\n            _path[1] = tokens[i];\n\n            _buyAmt = _getExpectedBuyAmtByPath(_path, sellAmt);\n\n            if (_buyAmt > buyAmt) {\n                buyAmt = _buyAmt;\n                paths = new address[](3);\n                paths[0] = _path[0];\n                paths[1] = _path[1];\n                paths[2] = _path[2];\n            }\n        }\n\n        _path = new address[](4);\n        _path[0] = address(_sellAddr);\n        _path[3] = address(_buyAddr);\n\n        for(i = 0; i < tokens.length; i++) {\n            for(j = 0; j < tokens.length; j++) {\n                _path[1] = tokens[i];\n                _path[2] = tokens[j];\n\n                _buyAmt = _getExpectedBuyAmtByPath(_path, sellAmt);\n\n                if (_buyAmt > buyAmt) {\n                    buyAmt = _buyAmt;\n                    paths = new address[](4);\n                    paths[0] = _path[0];\n                    paths[1] = _path[1];\n                    paths[2] = _path[2];\n                    paths[3] = _path[3];\n                }\n            }\n        }\n\n        unitAmt = getBuyUnitAmt(_buyAddr, buyAmt, _sellAddr, sellAmt, slippage);\n    }\n\n    function getOptimalBuyPath(\n        address buyAddr,\n        address sellAddr,\n        address[] memory tokens,\n        uint buyAmt,\n        uint slippage\n    ) public view returns (address[] memory paths, uint sellAmt, uint unitAmt)\n    {\n        (TokenInterface _buyAddr, TokenInterface _sellAddr) = changeEthAddress(buyAddr, sellAddr);\n\n        address[] memory _path = new address[](2);\n        _path[0] = address(_sellAddr);\n        _path[1] = address(_buyAddr);\n\n        paths = _path;\n        sellAmt = _getExpectedSellAmtByPath(_path, buyAmt);\n\n        _path = new address[](3);\n        _path[0] = address(_sellAddr);\n        _path[2] = address(_buyAddr);\n\n        uint i;\n        uint j;\n        uint _sellAmt;\n\n        for(i = 0; i < tokens.length; i++) {\n            _path[1] = tokens[i];\n\n            _sellAmt = _getExpectedSellAmtByPath(_path, buyAmt);\n\n            if (_sellAmt < sellAmt) {\n                sellAmt = _sellAmt;\n                paths = new address[](3);\n                paths[0] = _path[0];\n                paths[1] = _path[1];\n                paths[2] = _path[2];\n            }\n        }\n\n        _path = new address[](4);\n        _path[0] = address(_sellAddr);\n        _path[3] = address(_buyAddr);\n\n        for(i = 0; i < tokens.length; i++) {\n            for(j = 0; j < tokens.length; j++) {\n                _path[1] = tokens[i];\n                _path[2] = tokens[j];\n\n                _sellAmt = _getExpectedSellAmtByPath(_path, buyAmt);\n\n                if (_sellAmt < sellAmt) {\n                    sellAmt = _sellAmt;\n                    paths = new address[](4);\n                    paths[0] = _path[0];\n                    paths[1] = _path[1];\n                    paths[2] = _path[2];\n                    paths[3] = _path[3];\n                }\n            }\n        }\n\n        unitAmt = getSellUnitAmt(_sellAddr, sellAmt, _buyAddr, buyAmt, slippage);\n    }\n}\n\n\ncontract InstaUniswapV2Resolver is Resolver {\n    string public constant name = \"UniswapV2-Resolver-v1\";\n}\n\n\n",
  "sourcePath": "/mnt/e/Projects/tests/uni-resolver/contracts/Uniswap.sol",
  "compiler": {
    "name": "solc",
    "version": "0.6.0+commit.26b70077.Emscripten.clang"
  },
  "schemaVersion": "3.2.4",
  "updatedAt": "2020-10-09T06:21:57.836Z",
  "networkType": "ethereum",
  "devdoc": {
    "methods": {
      "getEthAddr()": {
        "details": "get Ethereum address"
      }
    }
  },
  "userdoc": {
    "methods": {}
  }
}