{
  "contractName": "Resolver",
  "abi": [
    {
      "inputs": [],
      "name": "getEthAddr",
      "outputs": [
        {
          "internalType": "address",
          "name": "",
          "type": "address"
        }
      ],
      "stateMutability": "pure",
      "type": "function"
    },
    {
      "inputs": [
        {
          "internalType": "address",
          "name": "buyAddr",
          "type": "address"
        },
        {
          "internalType": "address",
          "name": "sellAddr",
          "type": "address"
        },
        {
          "internalType": "uint256",
          "name": "sellAmt",
          "type": "uint256"
        },
        {
          "internalType": "uint256",
          "name": "slippage",
          "type": "uint256"
        }
      ],
      "name": "getBuyAmount",
      "outputs": [
        {
          "internalType": "uint256",
          "name": "buyAmt",
          "type": "uint256"
        },
        {
          "internalType": "uint256",
          "name": "unitAmt",
          "type": "uint256"
        }
      ],
      "stateMutability": "view",
      "type": "function"
    },
    {
      "inputs": [
        {
          "internalType": "address",
          "name": "buyAddr",
          "type": "address"
        },
        {
          "internalType": "address",
          "name": "sellAddr",
          "type": "address"
        },
        {
          "internalType": "uint256",
          "name": "buyAmt",
          "type": "uint256"
        },
        {
          "internalType": "uint256",
          "name": "slippage",
          "type": "uint256"
        }
      ],
      "name": "getSellAmount",
      "outputs": [
        {
          "internalType": "uint256",
          "name": "sellAmt",
          "type": "uint256"
        },
        {
          "internalType": "uint256",
          "name": "unitAmt",
          "type": "uint256"
        }
      ],
      "stateMutability": "view",
      "type": "function"
    },
    {
      "inputs": [
        {
          "internalType": "address",
          "name": "tokenA",
          "type": "address"
        },
        {
          "internalType": "address",
          "name": "tokenB",
          "type": "address"
        },
        {
          "internalType": "uint256",
          "name": "amtA",
          "type": "uint256"
        }
      ],
      "name": "getDepositAmount",
      "outputs": [
        {
          "internalType": "uint256",
          "name": "amtB",
          "type": "uint256"
        },
        {
          "internalType": "uint256",
          "name": "unitAmt",
          "type": "uint256"
        }
      ],
      "stateMutability": "view",
      "type": "function"
    },
    {
      "inputs": [
        {
          "internalType": "address",
          "name": "tokenA",
          "type": "address"
        },
        {
          "internalType": "address",
          "name": "tokenB",
          "type": "address"
        },
        {
          "internalType": "uint256",
          "name": "amtA",
          "type": "uint256"
        },
        {
          "internalType": "uint256",
          "name": "amtB",
          "type": "uint256"
        }
      ],
      "name": "getDepositAmountNewPool",
      "outputs": [
        {
          "internalType": "uint256",
          "name": "unitAmt",
          "type": "uint256"
        }
      ],
      "stateMutability": "view",
      "type": "function"
    },
    {
      "inputs": [
        {
          "internalType": "address",
          "name": "tokenA",
          "type": "address"
        },
        {
          "internalType": "address",
          "name": "tokenB",
          "type": "address"
        },
        {
          "internalType": "uint256",
          "name": "uniAmt",
          "type": "uint256"
        },
        {
          "internalType": "uint256",
          "name": "slippage",
          "type": "uint256"
        }
      ],
      "name": "getWithdrawAmounts",
      "outputs": [
        {
          "internalType": "uint256",
          "name": "amtA",
          "type": "uint256"
        },
        {
          "internalType": "uint256",
          "name": "amtB",
          "type": "uint256"
        },
        {
          "internalType": "uint256",
          "name": "unitAmtA",
          "type": "uint256"
        },
        {
          "internalType": "uint256",
          "name": "unitAmtB",
          "type": "uint256"
        }
      ],
      "stateMutability": "view",
      "type": "function"
    },
    {
      "inputs": [
        {
          "internalType": "address",
          "name": "owner",
          "type": "address"
        },
        {
          "components": [
            {
              "internalType": "address",
              "name": "tokenA",
              "type": "address"
            },
            {
              "internalType": "address",
              "name": "tokenB",
              "type": "address"
            }
          ],
          "internalType": "struct Resolver.TokenPair[]",
          "name": "tokenPairs",
          "type": "tuple[]"
        }
      ],
      "name": "getPosition",
      "outputs": [
        {
          "components": [
            {
              "internalType": "uint256",
              "name": "tokenAShareAmt",
              "type": "uint256"
            },
            {
              "internalType": "uint256",
              "name": "tokenBShareAmt",
              "type": "uint256"
            },
            {
              "internalType": "uint256",
              "name": "uniAmt",
              "type": "uint256"
            },
            {
              "internalType": "uint256",
              "name": "totalSupply",
              "type": "uint256"
            }
          ],
          "internalType": "struct Resolver.PoolData[]",
          "name": "",
          "type": "tuple[]"
        }
      ],
      "stateMutability": "view",
      "type": "function"
    },
    {
      "inputs": [
        {
          "internalType": "address",
          "name": "buyAddr",
          "type": "address"
        },
        {
          "internalType": "address",
          "name": "sellAddr",
          "type": "address"
        },
        {
          "internalType": "address[]",
          "name": "tokens",
          "type": "address[]"
        },
        {
          "internalType": "uint256",
          "name": "sellAmt",
          "type": "uint256"
        }
      ],
      "name": "getOptimalSellPath",
      "outputs": [
        {
          "internalType": "address[]",
          "name": "paths",
          "type": "address[]"
        },
        {
          "internalType": "uint256",
          "name": "buyAmt",
          "type": "uint256"
        }
      ],
      "stateMutability": "view",
      "type": "function"
    },
    {
      "inputs": [
        {
          "internalType": "address",
          "name": "buyAddr",
          "type": "address"
        },
        {
          "internalType": "address",
          "name": "sellAddr",
          "type": "address"
        },
        {
          "internalType": "address[]",
          "name": "tokens",
          "type": "address[]"
        },
        {
          "internalType": "uint256",
          "name": "buyAmt",
          "type": "uint256"
        }
      ],
      "name": "getOptimalBuyPath",
      "outputs": [
        {
          "internalType": "address[]",
          "name": "paths",
          "type": "address[]"
        },
        {
          "internalType": "uint256",
          "name": "sellAmt",
          "type": "uint256"
        }
      ],
      "stateMutability": "view",
      "type": "function"
    }
  ],
  "bytecode": "0x608060405234801561001057600080fd5b506138a9806100206000396000f3fe608060405234801561001057600080fd5b50600436106100935760003560e01c80637c7d84f1116100665780637c7d84f1146101485780638c3bc15a14610179578063a767e7e5146101ac578063b4bb12d1146101dd578063f19fcbe91461020e57610093565b8063202bb80c14610098578063295ef574146100b65780635ccfb71d146100e7578063786309a314610118575b600080fd5b6100a061023e565b6040516100ad9190613512565b60405180910390f35b6100d060048036036100cb9190810190613174565b61025a565b6040516100de929190613673565b60405180910390f35b61010160048036036100fc9190810190613125565b610295565b60405161010f929190613673565b60405180910390f35b610132600480360361012d9190810190613174565b61078c565b60405161013f9190613628565b60405180910390f35b610162600480360361015d91908101906130aa565b610a56565b604051610170929190613556565b60405180910390f35b610193600480360361018e9190810190613174565b611154565b6040516101a3949392919061369c565b60405180910390f35b6101c660048036036101c191908101906130aa565b6111a1565b6040516101d4929190613556565b60405180910390f35b6101f760048036036101f29190810190613174565b61189f565b604051610205929190613673565b60405180910390f35b610228600480360361022391908101906131d7565b6118da565b6040516102359190613586565b60405180910390f35b600073eeeeeeeeeeeeeeeeeeeeeeeeeeeeeeeeeeeeeeee905090565b60008060008061026a8888611d64565b91509150610279828288611e04565b93506102888185848989611f8b565b9250505094509492505050565b6000806000806102a58787611d64565b9150915060006102b36120d6565b905060008173ffffffffffffffffffffffffffffffffffffffff1663c45a01556040518163ffffffff1660e01b815260040160206040518083038186803b1580156102fd57600080fd5b505afa158015610311573d6000803e3d6000fd5b505050506040513d601f19601f820116820180604052506103359190810190613081565b73ffffffffffffffffffffffffffffffffffffffff1663e6a4390585856040518363ffffffff1660e01b815260040161036f92919061352d565b60206040518083038186803b15801561038757600080fd5b505afa15801561039b573d6000803e3d6000fd5b505050506040513d601f19601f820116820180604052506103bf9190810190613081565b9050600073ffffffffffffffffffffffffffffffffffffffff168173ffffffffffffffffffffffffffffffffffffffff161415610431576040517f08c379a0000000000000000000000000000000000000000000000000000000008152600401610428906135e8565b60405180910390fd5b60006105428573ffffffffffffffffffffffffffffffffffffffff1663313ce5676040518163ffffffff1660e01b815260040160206040518083038186803b15801561047c57600080fd5b505afa158015610490573d6000803e3d6000fd5b505050506040513d601f19601f820116820180604052506104b4919081019061326c565b8673ffffffffffffffffffffffffffffffffffffffff166370a08231856040518263ffffffff1660e01b81526004016104ed9190613512565b60206040518083038186803b15801561050557600080fd5b505afa158015610519573d6000803e3d6000fd5b505050506040513d601f19601f8201168201806040525061053d919081019061326c565b6120f2565b905060006106558573ffffffffffffffffffffffffffffffffffffffff1663313ce5676040518163ffffffff1660e01b815260040160206040518083038186803b15801561058f57600080fd5b505afa1580156105a3573d6000803e3d6000fd5b505050506040513d601f19601f820116820180604052506105c7919081019061326c565b8673ffffffffffffffffffffffffffffffffffffffff166370a08231866040518263ffffffff1660e01b81526004016106009190613512565b60206040518083038186803b15801561061857600080fd5b505afa15801561062c573d6000803e3d6000fd5b505050506040513d601f19601f82011682018060405250610650919081019061326c565b6120f2565b9050610661818361210c565b96506106f3876106ee8873ffffffffffffffffffffffffffffffffffffffff1663313ce5676040518163ffffffff1660e01b815260040160206040518083038186803b1580156106b057600080fd5b505afa1580156106c4573d6000803e3d6000fd5b505050506040513d601f19601f820116820180604052506106e8919081019061326c565b8c6120f2565b612144565b975061077c8573ffffffffffffffffffffffffffffffffffffffff1663313ce5676040518163ffffffff1660e01b815260040160206040518083038186803b15801561073e57600080fd5b505afa158015610752573d6000803e3d6000fd5b505050506040513d601f19601f82011682018060405250610776919081019061326c565b89612184565b9750505050505050935093915050565b600080600061079b8787611d64565b9150915060006107a96120d6565b905060008173ffffffffffffffffffffffffffffffffffffffff1663c45a01556040518163ffffffff1660e01b815260040160206040518083038186803b1580156107f357600080fd5b505afa158015610807573d6000803e3d6000fd5b505050506040513d601f19601f8201168201806040525061082b9190810190613081565b73ffffffffffffffffffffffffffffffffffffffff1663e6a4390585856040518363ffffffff1660e01b815260040161086592919061352d565b60206040518083038186803b15801561087d57600080fd5b505afa158015610891573d6000803e3d6000fd5b505050506040513d601f19601f820116820180604052506108b59190810190613081565b9050600073ffffffffffffffffffffffffffffffffffffffff168173ffffffffffffffffffffffffffffffffffffffff1614610926576040517f08c379a000000000000000000000000000000000000000000000000000000000815260040161091d90613608565b60405180910390fd5b60006109af8573ffffffffffffffffffffffffffffffffffffffff1663313ce5676040518163ffffffff1660e01b815260040160206040518083038186803b15801561097157600080fd5b505afa158015610985573d6000803e3d6000fd5b505050506040513d601f19601f820116820180604052506109a9919081019061326c565b896120f2565b90506000610a3a8573ffffffffffffffffffffffffffffffffffffffff1663313ce5676040518163ffffffff1660e01b815260040160206040518083038186803b1580156109fc57600080fd5b505afa158015610a10573d6000803e3d6000fd5b505050506040513d601f19601f82011682018060405250610a34919081019061326c565b896120f2565b9050610a46818361210c565b9650505050505050949350505050565b60606000806000610a678888611d64565b9150915060606002604051908082528060200260200182016040528015610a9d5781602001602082028038833980820191505090505b5090508181600081518110610aae57fe5b602002602001019073ffffffffffffffffffffffffffffffffffffffff16908173ffffffffffffffffffffffffffffffffffffffff16815250508281600181518110610af657fe5b602002602001019073ffffffffffffffffffffffffffffffffffffffff16908173ffffffffffffffffffffffffffffffffffffffff1681525050809450610b3d818761219e565b93506003604051908082528060200260200182016040528015610b6f5781602001602082028038833980820191505090505b5090508181600081518110610b8057fe5b602002602001019073ffffffffffffffffffffffffffffffffffffffff16908173ffffffffffffffffffffffffffffffffffffffff16815250508281600281518110610bc857fe5b602002602001019073ffffffffffffffffffffffffffffffffffffffff16908173ffffffffffffffffffffffffffffffffffffffff168152505060008060008092505b8951831015610ddb57898381518110610c2057fe5b602002602001015184600181518110610c3557fe5b602002602001019073ffffffffffffffffffffffffffffffffffffffff16908173ffffffffffffffffffffffffffffffffffffffff1681525050610c79848a61219e565b905086811015610dce578096506003604051908082528060200260200182016040528015610cb65781602001602082028038833980820191505090505b50975083600081518110610cc657fe5b602002602001015188600081518110610cdb57fe5b602002602001019073ffffffffffffffffffffffffffffffffffffffff16908173ffffffffffffffffffffffffffffffffffffffff168152505083600181518110610d2257fe5b602002602001015188600181518110610d3757fe5b602002602001019073ffffffffffffffffffffffffffffffffffffffff16908173ffffffffffffffffffffffffffffffffffffffff168152505083600281518110610d7e57fe5b602002602001015188600281518110610d9357fe5b602002602001019073ffffffffffffffffffffffffffffffffffffffff16908173ffffffffffffffffffffffffffffffffffffffff16815250505b8280600101935050610c0b565b6004604051908082528060200260200182016040528015610e0b5781602001602082028038833980820191505090505b5093508484600081518110610e1c57fe5b602002602001019073ffffffffffffffffffffffffffffffffffffffff16908173ffffffffffffffffffffffffffffffffffffffff16815250508584600381518110610e6457fe5b602002602001019073ffffffffffffffffffffffffffffffffffffffff16908173ffffffffffffffffffffffffffffffffffffffff1681525050600092505b895183101561114557600091505b895182101561113857898381518110610ec657fe5b602002602001015184600181518110610edb57fe5b602002602001019073ffffffffffffffffffffffffffffffffffffffff16908173ffffffffffffffffffffffffffffffffffffffff1681525050898281518110610f2157fe5b602002602001015184600281518110610f3657fe5b602002602001019073ffffffffffffffffffffffffffffffffffffffff16908173ffffffffffffffffffffffffffffffffffffffff1681525050610f7a848a61219e565b90508681101561112b578096506004604051908082528060200260200182016040528015610fb75781602001602082028038833980820191505090505b50975083600081518110610fc757fe5b602002602001015188600081518110610fdc57fe5b602002602001019073ffffffffffffffffffffffffffffffffffffffff16908173ffffffffffffffffffffffffffffffffffffffff16815250508360018151811061102357fe5b60200260200101518860018151811061103857fe5b602002602001019073ffffffffffffffffffffffffffffffffffffffff16908173ffffffffffffffffffffffffffffffffffffffff16815250508360028151811061107f57fe5b60200260200101518860028151811061109457fe5b602002602001019073ffffffffffffffffffffffffffffffffffffffff16908173ffffffffffffffffffffffffffffffffffffffff1681525050836003815181106110db57fe5b6020026020010151886003815181106110f057fe5b602002602001019073ffffffffffffffffffffffffffffffffffffffff16908173ffffffffffffffffffffffffffffffffffffffff16815250505b8180600101925050610eb1565b8280600101935050610ea3565b50505050505094509492505050565b6000806000806000806111678a8a611d64565b9150915061117682828a612296565b809650819750505061118c828288888c8c6125e5565b80945081955050505050945094509450949050565b606060008060006111b28888611d64565b91509150606060026040519080825280602002602001820160405280156111e85781602001602082028038833980820191505090505b50905081816000815181106111f957fe5b602002602001019073ffffffffffffffffffffffffffffffffffffffff16908173ffffffffffffffffffffffffffffffffffffffff1681525050828160018151811061124157fe5b602002602001019073ffffffffffffffffffffffffffffffffffffffff16908173ffffffffffffffffffffffffffffffffffffffff1681525050809450611288818761275d565b935060036040519080825280602002602001820160405280156112ba5781602001602082028038833980820191505090505b50905081816000815181106112cb57fe5b602002602001019073ffffffffffffffffffffffffffffffffffffffff16908173ffffffffffffffffffffffffffffffffffffffff1681525050828160028151811061131357fe5b602002602001019073ffffffffffffffffffffffffffffffffffffffff16908173ffffffffffffffffffffffffffffffffffffffff168152505060008060008092505b89518310156115265789838151811061136b57fe5b60200260200101518460018151811061138057fe5b602002602001019073ffffffffffffffffffffffffffffffffffffffff16908173ffffffffffffffffffffffffffffffffffffffff16815250506113c4848a61275d565b9050868111156115195780965060036040519080825280602002602001820160405280156114015781602001602082028038833980820191505090505b5097508360008151811061141157fe5b60200260200101518860008151811061142657fe5b602002602001019073ffffffffffffffffffffffffffffffffffffffff16908173ffffffffffffffffffffffffffffffffffffffff16815250508360018151811061146d57fe5b60200260200101518860018151811061148257fe5b602002602001019073ffffffffffffffffffffffffffffffffffffffff16908173ffffffffffffffffffffffffffffffffffffffff1681525050836002815181106114c957fe5b6020026020010151886002815181106114de57fe5b602002602001019073ffffffffffffffffffffffffffffffffffffffff16908173ffffffffffffffffffffffffffffffffffffffff16815250505b8280600101935050611356565b60046040519080825280602002602001820160405280156115565781602001602082028038833980820191505090505b509350848460008151811061156757fe5b602002602001019073ffffffffffffffffffffffffffffffffffffffff16908173ffffffffffffffffffffffffffffffffffffffff168152505085846003815181106115af57fe5b602002602001019073ffffffffffffffffffffffffffffffffffffffff16908173ffffffffffffffffffffffffffffffffffffffff1681525050600092505b895183101561189057600091505b89518210156118835789838151811061161157fe5b60200260200101518460018151811061162657fe5b602002602001019073ffffffffffffffffffffffffffffffffffffffff16908173ffffffffffffffffffffffffffffffffffffffff168152505089828151811061166c57fe5b60200260200101518460028151811061168157fe5b602002602001019073ffffffffffffffffffffffffffffffffffffffff16908173ffffffffffffffffffffffffffffffffffffffff16815250506116c5848a61275d565b9050868111156118765780965060046040519080825280602002602001820160405280156117025781602001602082028038833980820191505090505b5097508360008151811061171257fe5b60200260200101518860008151811061172757fe5b602002602001019073ffffffffffffffffffffffffffffffffffffffff16908173ffffffffffffffffffffffffffffffffffffffff16815250508360018151811061176e57fe5b60200260200101518860018151811061178357fe5b602002602001019073ffffffffffffffffffffffffffffffffffffffff16908173ffffffffffffffffffffffffffffffffffffffff1681525050836002815181106117ca57fe5b6020026020010151886002815181106117df57fe5b602002602001019073ffffffffffffffffffffffffffffffffffffffff16908173ffffffffffffffffffffffffffffffffffffffff16815250508360038151811061182657fe5b60200260200101518860038151811061183b57fe5b602002602001019073ffffffffffffffffffffffffffffffffffffffff16908173ffffffffffffffffffffffffffffffffffffffff16815250505b81806001019250506115fc565b82806001019350506115ee565b50505050505094509492505050565b6000806000806118af8888611d64565b915091506118be828288612839565b93506118cd82858389896129c0565b9250505094509492505050565b606060006118e66120d6565b905060008351905060608160405190808252806020026020018201604052801561192a57816020015b611917612e30565b81526020019060019003908161190f5790505b50905060008090505b82811015611d575760008061197688848151811061194d57fe5b60200260200101516000015189858151811061196557fe5b602002602001015160200151611d64565b9150915060008673ffffffffffffffffffffffffffffffffffffffff1663c45a01556040518163ffffffff1660e01b815260040160206040518083038186803b1580156119c257600080fd5b505afa1580156119d6573d6000803e3d6000fd5b505050506040513d601f19601f820116820180604052506119fa9190810190613081565b73ffffffffffffffffffffffffffffffffffffffff1663e6a4390584846040518363ffffffff1660e01b8152600401611a3492919061352d565b60206040518083038186803b158015611a4c57600080fd5b505afa158015611a60573d6000803e3d6000fd5b505050506040513d601f19601f82011682018060405250611a849190810190613081565b9050600073ffffffffffffffffffffffffffffffffffffffff168173ffffffffffffffffffffffffffffffffffffffff1614611d4757600081905060008173ffffffffffffffffffffffffffffffffffffffff166370a082318d6040518263ffffffff1660e01b8152600401611afa9190613512565b60206040518083038186803b158015611b1257600080fd5b505afa158015611b26573d6000803e3d6000fd5b505050506040513d601f19601f82011682018060405250611b4a919081019061326c565b905060008273ffffffffffffffffffffffffffffffffffffffff166318160ddd6040518163ffffffff1660e01b815260040160206040518083038186803b158015611b9457600080fd5b505afa158015611ba8573d6000803e3d6000fd5b505050506040513d601f19601f82011682018060405250611bcc919081019061326c565b90506000611bda838361210c565b90506000611c708873ffffffffffffffffffffffffffffffffffffffff166370a08231886040518263ffffffff1660e01b8152600401611c1a9190613512565b60206040518083038186803b158015611c3257600080fd5b505afa158015611c46573d6000803e3d6000fd5b505050506040513d601f19601f82011682018060405250611c6a919081019061326c565b83612144565b90506000611d068873ffffffffffffffffffffffffffffffffffffffff166370a08231896040518263ffffffff1660e01b8152600401611cb09190613512565b60206040518083038186803b158015611cc857600080fd5b505afa158015611cdc573d6000803e3d6000fd5b505050506040513d601f19601f82011682018060405250611d00919081019061326c565b84612144565b90506040518060800160405280838152602001828152602001868152602001858152508b8b81518110611d3557fe5b60200260200101819052505050505050505b5050508080600101915050611933565b5080935050505092915050565b600080611d6f61023e565b73ffffffffffffffffffffffffffffffffffffffff168473ffffffffffffffffffffffffffffffffffffffff1614611da75783611db0565b611daf612b0b565b5b9150611dba61023e565b73ffffffffffffffffffffffffffffffffffffffff168373ffffffffffffffffffffffffffffffffffffffff1614611df25782611dfb565b611dfa612b0b565b5b90509250929050565b600080611e0f6120d6565b905060606002604051908082528060200260200182016040528015611e435781602001602082028038833980820191505090505b5090508481600081518110611e5457fe5b602002602001019073ffffffffffffffffffffffffffffffffffffffff16908173ffffffffffffffffffffffffffffffffffffffff16815250508581600181518110611e9c57fe5b602002602001019073ffffffffffffffffffffffffffffffffffffffff16908173ffffffffffffffffffffffffffffffffffffffff168152505060608273ffffffffffffffffffffffffffffffffffffffff16631f00ca7486846040518363ffffffff1660e01b8152600401611f13929190613643565b60006040518083038186803b158015611f2b57600080fd5b505afa158015611f3f573d6000803e3d6000fd5b505050506040513d6000823e3d601f19601f82011682018060405250611f68919081019061322b565b905080600081518110611f7757fe5b602002602001015193505050509392505050565b6000806120158573ffffffffffffffffffffffffffffffffffffffff1663313ce5676040518163ffffffff1660e01b815260040160206040518083038186803b158015611fd757600080fd5b505afa158015611feb573d6000803e3d6000fd5b505050506040513d601f19601f8201168201806040525061200f919081019061326c565b856120f2565b905060006120a08873ffffffffffffffffffffffffffffffffffffffff1663313ce5676040518163ffffffff1660e01b815260040160206040518083038186803b15801561206257600080fd5b505afa158015612076573d6000803e3d6000fd5b505050506040513d601f19601f8201168201806040525061209a919081019061326c565b886120f2565b90506120ac818361210c565b92506120c9836120c4670de0b6b3a764000087612b27565b612144565b9250505095945050505050565b6000737a250d5630b4cf539739df2c5dacb4c659f2488d905090565b60006121048284601203600a0a612b77565b905092915050565b60008161213461212485670de0b6b3a7640000612b77565b6002858161212e57fe5b04612b27565b8161213b57fe5b04905092915050565b6000670de0b6b3a764000061217461215c8585612b77565b6002670de0b6b3a76400008161216e57fe5b04612b27565b8161217b57fe5b04905092915050565b600082601203600a0a828161219557fe5b04905092915050565b6000806121a96120d6565b90506121b58185612bd9565b1561226b5760608173ffffffffffffffffffffffffffffffffffffffff16631f00ca7485876040518363ffffffff1660e01b81526004016121f7929190613643565b60006040518083038186803b15801561220f57600080fd5b505afa158015612223573d6000803e3d6000fd5b505050506040513d6000823e3d601f19601f8201168201806040525061224c919081019061322b565b90508060008151811061225b57fe5b602002602001015192505061228f565b7fffffffffffffffffffffffffffffffffffffffffffffffffffffffffffffffff91505b5092915050565b60008060006122a36120d6565b905060008173ffffffffffffffffffffffffffffffffffffffff1663c45a01556040518163ffffffff1660e01b815260040160206040518083038186803b1580156122ed57600080fd5b505afa158015612301573d6000803e3d6000fd5b505050506040513d601f19601f820116820180604052506123259190810190613081565b73ffffffffffffffffffffffffffffffffffffffff1663e6a4390588886040518363ffffffff1660e01b815260040161235f92919061352d565b60206040518083038186803b15801561237757600080fd5b505afa15801561238b573d6000803e3d6000fd5b505050506040513d601f19601f820116820180604052506123af9190810190613081565b9050600073ffffffffffffffffffffffffffffffffffffffff168173ffffffffffffffffffffffffffffffffffffffff161415612421576040517f08c379a0000000000000000000000000000000000000000000000000000000008152600401612418906135e8565b60405180910390fd5b600081905060006124af878373ffffffffffffffffffffffffffffffffffffffff166318160ddd6040518163ffffffff1660e01b815260040160206040518083038186803b15801561247257600080fd5b505afa158015612486573d6000803e3d6000fd5b505050506040513d601f19601f820116820180604052506124aa919081019061326c565b61210c565b90506125438973ffffffffffffffffffffffffffffffffffffffff166370a08231856040518263ffffffff1660e01b81526004016124ed9190613512565b60206040518083038186803b15801561250557600080fd5b505afa158015612519573d6000803e3d6000fd5b505050506040513d601f19601f8201168201806040525061253d919081019061326c565b82612144565b95506125d78873ffffffffffffffffffffffffffffffffffffffff166370a08231856040518263ffffffff1660e01b81526004016125819190613512565b60206040518083038186803b15801561259957600080fd5b505afa1580156125ad573d6000803e3d6000fd5b505050506040513d601f19601f820116820180604052506125d1919081019061326c565b82612144565b945050505050935093915050565b60008060006126718973ffffffffffffffffffffffffffffffffffffffff1663313ce5676040518163ffffffff1660e01b815260040160206040518083038186803b15801561263357600080fd5b505afa158015612647573d6000803e3d6000fd5b505050506040513d601f19601f8201168201806040525061266b919081019061326c565b886120f2565b905060006126fc8973ffffffffffffffffffffffffffffffffffffffff1663313ce5676040518163ffffffff1660e01b815260040160206040518083038186803b1580156126be57600080fd5b505afa1580156126d2573d6000803e3d6000fd5b505050506040513d601f19601f820116820180604052506126f6919081019061326c565b886120f2565b9050612708828761210c565b935061272584612720670de0b6b3a764000088612de0565b612144565b9350612731818761210c565b925061274e83612749670de0b6b3a764000088612de0565b612144565b92505050965096945050505050565b6000806127686120d6565b90506127748185612bd9565b1561282d5760608173ffffffffffffffffffffffffffffffffffffffff1663d06ca61f85876040518363ffffffff1660e01b81526004016127b6929190613643565b60006040518083038186803b1580156127ce57600080fd5b505afa1580156127e2573d6000803e3d6000fd5b505050506040513d6000823e3d601f19601f8201168201806040525061280b919081019061322b565b90508060018251038151811061281d57fe5b6020026020010151925050612832565b600091505b5092915050565b6000806128446120d6565b9050606060026040519080825280602002602001820160405280156128785781602001602082028038833980820191505090505b509050848160008151811061288957fe5b602002602001019073ffffffffffffffffffffffffffffffffffffffff16908173ffffffffffffffffffffffffffffffffffffffff168152505085816001815181106128d157fe5b602002602001019073ffffffffffffffffffffffffffffffffffffffff16908173ffffffffffffffffffffffffffffffffffffffff168152505060608273ffffffffffffffffffffffffffffffffffffffff1663d06ca61f86846040518363ffffffff1660e01b8152600401612948929190613643565b60006040518083038186803b15801561296057600080fd5b505afa158015612974573d6000803e3d6000fd5b505050506040513d6000823e3d601f19601f8201168201806040525061299d919081019061322b565b9050806001815181106129ac57fe5b602002602001015193505050509392505050565b600080612a4a8573ffffffffffffffffffffffffffffffffffffffff1663313ce5676040518163ffffffff1660e01b815260040160206040518083038186803b158015612a0c57600080fd5b505afa158015612a20573d6000803e3d6000fd5b505050506040513d601f19601f82011682018060405250612a44919081019061326c565b856120f2565b90506000612ad58873ffffffffffffffffffffffffffffffffffffffff1663313ce5676040518163ffffffff1660e01b815260040160206040518083038186803b158015612a9757600080fd5b505afa158015612aab573d6000803e3d6000fd5b505050506040513d601f19601f82011682018060405250612acf919081019061326c565b886120f2565b9050612ae1818361210c565b9250612afe83612af9670de0b6b3a764000087612de0565b612144565b9250505095945050505050565b600073c778417e063141139fce010982780140aa0cd5ab905090565b6000828284019150811015612b71576040517f08c379a0000000000000000000000000000000000000000000000000000000008152600401612b68906135a8565b60405180910390fd5b92915050565b600080821480612b945750828283850292508281612b9157fe5b04145b612bd3576040517f08c379a0000000000000000000000000000000000000000000000000000000008152600401612bca906135a8565b60405180910390fd5b92915050565b60006001905060005b6001835103811015612dd857826001820181518110612bfd57fe5b602002602001015173ffffffffffffffffffffffffffffffffffffffff16838281518110612c2757fe5b602002602001015173ffffffffffffffffffffffffffffffffffffffff161415612c55576000915050612dda565b60008473ffffffffffffffffffffffffffffffffffffffff1663c45a01556040518163ffffffff1660e01b815260040160206040518083038186803b158015612c9d57600080fd5b505afa158015612cb1573d6000803e3d6000fd5b505050506040513d601f19601f82011682018060405250612cd59190810190613081565b73ffffffffffffffffffffffffffffffffffffffff1663e6a43905858481518110612cfc57fe5b6020026020010151866001860181518110612d1357fe5b60200260200101516040518363ffffffff1660e01b8152600401612d3892919061352d565b60206040518083038186803b158015612d5057600080fd5b505afa158015612d64573d6000803e3d6000fd5b505050506040513d601f19601f82011682018060405250612d889190810190613081565b9050600073ffffffffffffffffffffffffffffffffffffffff168173ffffffffffffffffffffffffffffffffffffffff161415612dca57600092505050612dda565b508080600101915050612be2565b505b92915050565b6000828284039150811115612e2a576040517f08c379a0000000000000000000000000000000000000000000000000000000008152600401612e21906135c8565b60405180910390fd5b92915050565b6040518060800160405280600081526020016000815260200160008152602001600081525090565b600081359050612e6781613845565b92915050565b600081519050612e7c81613845565b92915050565b600082601f830112612e9357600080fd5b8135612ea6612ea18261370e565b6136e1565b91508181835260208401935060208101905083856020840282011115612ecb57600080fd5b60005b83811015612efb5781612ee18882612e58565b845260208401935060208301925050600181019050612ece565b5050505092915050565b600082601f830112612f1657600080fd5b8135612f29612f2482613736565b6136e1565b91508181835260208401935060208101905083856040840282011115612f4e57600080fd5b60005b83811015612f7e5781612f64888261300b565b845260208401935060408301925050600181019050612f51565b5050505092915050565b600082601f830112612f9957600080fd5b8151612fac612fa78261375e565b6136e1565b91508181835260208401935060208101905083856020840282011115612fd157600080fd5b60005b838110156130015781612fe7888261306c565b845260208401935060208301925050600181019050612fd4565b5050505092915050565b60006040828403121561301d57600080fd5b61302760406136e1565b9050600061303784828501612e58565b600083015250602061304b84828501612e58565b60208301525092915050565b6000813590506130668161385c565b92915050565b60008151905061307b8161385c565b92915050565b60006020828403121561309357600080fd5b60006130a184828501612e6d565b91505092915050565b600080600080608085870312156130c057600080fd5b60006130ce87828801612e58565b94505060206130df87828801612e58565b935050604085013567ffffffffffffffff8111156130fc57600080fd5b61310887828801612e82565b925050606061311987828801613057565b91505092959194509250565b60008060006060848603121561313a57600080fd5b600061314886828701612e58565b935050602061315986828701612e58565b925050604061316a86828701613057565b9150509250925092565b6000806000806080858703121561318a57600080fd5b600061319887828801612e58565b94505060206131a987828801612e58565b93505060406131ba87828801613057565b92505060606131cb87828801613057565b91505092959194509250565b600080604083850312156131ea57600080fd5b60006131f885828601612e58565b925050602083013567ffffffffffffffff81111561321557600080fd5b61322185828601612f05565b9150509250929050565b60006020828403121561323d57600080fd5b600082015167ffffffffffffffff81111561325757600080fd5b61326384828501612f88565b91505092915050565b60006020828403121561327e57600080fd5b600061328c8482850161306c565b91505092915050565b60006132a183836132c5565b60208301905092915050565b60006132b9838361349f565b60808301905092915050565b6132ce81613809565b82525050565b6132dd81613809565b82525050565b60006132ee826137a6565b6132f881856137d6565b935061330383613786565b8060005b8381101561333457815161331b8882613295565b9750613326836137bc565b925050600181019050613307565b5085935050505092915050565b600061334c826137b1565b61335681856137e7565b935061336183613796565b8060005b8381101561339257815161337988826132ad565b9750613384836137c9565b925050600181019050613365565b5085935050505092915050565b60006133ac600d836137f8565b91507f6d6174682d6e6f742d73616665000000000000000000000000000000000000006000830152602082019050919050565b60006133ec600c836137f8565b91507f7375622d6f766572666c6f7700000000000000000000000000000000000000006000830152602082019050919050565b600061342c600f836137f8565b91507f706169722d6e6f742d666f756e642e00000000000000000000000000000000006000830152602082019050919050565b600061346c600b836137f8565b91507f706169722d666f756e642e0000000000000000000000000000000000000000006000830152602082019050919050565b6080820160008201516134b560008501826134f4565b5060208201516134c860208501826134f4565b5060408201516134db60408501826134f4565b5060608201516134ee60608501826134f4565b50505050565b6134fd8161383b565b82525050565b61350c8161383b565b82525050565b600060208201905061352760008301846132d4565b92915050565b600060408201905061354260008301856132d4565b61354f60208301846132d4565b9392505050565b6000604082019050818103600083015261357081856132e3565b905061357f6020830184613503565b9392505050565b600060208201905081810360008301526135a08184613341565b905092915050565b600060208201905081810360008301526135c18161339f565b9050919050565b600060208201905081810360008301526135e1816133df565b9050919050565b600060208201905081810360008301526136018161341f565b9050919050565b600060208201905081810360008301526136218161345f565b9050919050565b600060208201905061363d6000830184613503565b92915050565b60006040820190506136586000830185613503565b818103602083015261366a81846132e3565b90509392505050565b60006040820190506136886000830185613503565b6136956020830184613503565b9392505050565b60006080820190506136b16000830187613503565b6136be6020830186613503565b6136cb6040830185613503565b6136d86060830184613503565b95945050505050565b6000604051905081810181811067ffffffffffffffff8211171561370457600080fd5b8060405250919050565b600067ffffffffffffffff82111561372557600080fd5b602082029050602081019050919050565b600067ffffffffffffffff82111561374d57600080fd5b602082029050602081019050919050565b600067ffffffffffffffff82111561377557600080fd5b602082029050602081019050919050565b6000819050602082019050919050565b6000819050602082019050919050565b600081519050919050565b600081519050919050565b6000602082019050919050565b6000602082019050919050565b600082825260208201905092915050565b600082825260208201905092915050565b600082825260208201905092915050565b60006138148261381b565b9050919050565b600073ffffffffffffffffffffffffffffffffffffffff82169050919050565b6000819050919050565b61384e81613809565b811461385957600080fd5b50565b6138658161383b565b811461387057600080fd5b5056fea26469706673582212201061710150b359898cb3ef2c61181017affdddcd42d8173ef642a222adfabae164736f6c63430006000033",
  "source": "pragma solidity ^0.6.0;\npragma experimental ABIEncoderV2;\n\ninterface IUniswapV2Router02 {\n    function factory() external pure returns (address);\n    function WETH() external pure returns (address);\n    function getAmountsOut(uint amountIn, address[] calldata path) external view returns (uint[] memory amounts);\n    function getAmountsIn(uint amountOut, address[] calldata path) external view returns (uint[] memory amounts);\n}\n\ninterface IUniswapV2Factory {\n  function getPair(address tokenA, address tokenB) external view returns (address pair);\n}\n\ninterface TokenInterface {\n    function allowance(address, address) external view returns (uint);\n    function balanceOf(address) external view returns (uint);\n    function approve(address, uint) external;\n    function transfer(address, uint) external returns (bool);\n    function decimals() external view returns (uint);\n    function totalSupply() external view returns (uint);\n}\n\ncontract DSMath {\n\n    function add(uint x, uint y) internal pure returns (uint z) {\n        require((z = x + y) >= x, \"math-not-safe\");\n    }\n\n    function mul(uint x, uint y) internal pure returns (uint z) {\n        require(y == 0 || (z = x * y) / y == x, \"math-not-safe\");\n    }\n\n    function sub(uint x, uint y) internal pure returns (uint z) {\n        require((z = x - y) <= x, \"sub-overflow\");\n    }\n\n    uint constant WAD = 10 ** 18;\n\n    function wmul(uint x, uint y) internal pure returns (uint z) {\n        z = add(mul(x, y), WAD / 2) / WAD;\n    }\n\n    function wdiv(uint x, uint y) internal pure returns (uint z) {\n        z = add(mul(x, WAD), y / 2) / y;\n    }\n\n}\n\n\ncontract Helpers is DSMath {\n    /**\n     * @dev get Ethereum address\n     */\n    function getEthAddr() public pure returns (address) {\n        return 0xEeeeeEeeeEeEeeEeEeEeeEEEeeeeEeeeeeeeEEeE;\n    }\n}\n\ncontract UniswapHelpers is Helpers {\n    /**\n     * @dev Return WETH address\n     */\n    function getAddressWETH() internal pure returns (address) {\n        return 0xc778417E063141139Fce010982780140Aa0cD5Ab;\n    }\n\n    /**\n     * @dev Return uniswap v2 router02 Address\n     */\n    function getUniswapAddr() internal pure returns (address) {\n        return 0x7a250d5630B4cF539739dF2C5dAcb4c659F2488D;\n    }\n\n    function convert18ToDec(uint _dec, uint256 _amt) internal pure returns (uint256 amt) {\n        amt = (_amt / 10 ** (18 - _dec));\n    }\n\n    function convertTo18(uint _dec, uint256 _amt) internal pure returns (uint256 amt) {\n        amt = mul(_amt, 10 ** (18 - _dec));\n    }\n\n    function changeEthAddress(address buy, address sell) internal pure returns(TokenInterface _buy, TokenInterface _sell){\n        _buy = buy == getEthAddr() ? TokenInterface(getAddressWETH()) : TokenInterface(buy);\n        _sell = sell == getEthAddr() ? TokenInterface(getAddressWETH()) : TokenInterface(sell);\n    }\n\n    function checkPaths(\n        IUniswapV2Router02 router,\n        address[] memory paths\n    ) internal view returns(bool isValid) {\n        isValid = true;\n        for (uint i; i < paths.length - 1; i++) {\n            if (paths[i] == paths[i + 1]) {\n                return false;\n            }\n            address pair = IUniswapV2Factory(router.factory()).getPair(paths[i], paths[i + 1]);\n            if (pair == address(0)) {\n                return false;\n            }\n        }\n    }\n\n    function getExpectedBuyAmt(\n        address buyAddr,\n        address sellAddr,\n        uint sellAmt\n    ) internal view returns(uint buyAmt) {\n        IUniswapV2Router02 router = IUniswapV2Router02(getUniswapAddr());\n        address[] memory paths = new address[](2);\n        paths[0] = address(sellAddr);\n        paths[1] = address(buyAddr);\n        uint[] memory amts = router.getAmountsOut(\n            sellAmt,\n            paths\n        );\n        buyAmt = amts[1];\n    }\n\n    function getExpectedSellAmt(\n        address buyAddr,\n        address sellAddr,\n        uint buyAmt\n    ) internal view returns(uint sellAmt) {\n        IUniswapV2Router02 router = IUniswapV2Router02(getUniswapAddr());\n        address[] memory paths = new address[](2);\n        paths[0] = address(sellAddr);\n        paths[1] = address(buyAddr);\n        uint[] memory amts = router.getAmountsIn(\n            buyAmt,\n            paths\n        );\n        sellAmt = amts[0];\n    }\n\n    function getBuyUnitAmt(\n        TokenInterface buyAddr,\n        uint expectedAmt,\n        TokenInterface sellAddr,\n        uint sellAmt,\n        uint slippage\n    ) internal view returns (uint unitAmt) {\n        uint _sellAmt = convertTo18((sellAddr).decimals(), sellAmt);\n        uint _buyAmt = convertTo18(buyAddr.decimals(), expectedAmt);\n        unitAmt = wdiv(_buyAmt, _sellAmt);\n        unitAmt = wmul(unitAmt, sub(WAD, slippage));\n    }\n\n    function getSellUnitAmt(\n        TokenInterface sellAddr,\n        uint expectedAmt,\n        TokenInterface buyAddr,\n        uint buyAmt,\n        uint slippage\n    ) internal view returns (uint unitAmt) {\n        uint _buyAmt = convertTo18(buyAddr.decimals(), buyAmt);\n        uint _sellAmt = convertTo18(sellAddr.decimals(), expectedAmt);\n        unitAmt = wdiv(_sellAmt, _buyAmt);\n        unitAmt = wmul(unitAmt, add(WAD, slippage));\n    }\n\n    function _getWithdrawUnitAmts(\n        TokenInterface tokenA,\n        TokenInterface tokenB,\n        uint amtA,\n        uint amtB,\n        uint uniAmt,\n        uint slippage\n    ) internal view returns (uint unitAmtA, uint unitAmtB) {\n        uint _amtA = convertTo18(tokenA.decimals(), amtA);\n        uint _amtB = convertTo18(tokenB.decimals(), amtB);\n        unitAmtA = wdiv(_amtA, uniAmt);\n        unitAmtA = wmul(unitAmtA, sub(WAD, slippage));\n        unitAmtB = wdiv(_amtB, uniAmt);\n        unitAmtB = wmul(unitAmtB, sub(WAD, slippage));\n    }\n\n    function _getWithdrawAmts(\n        TokenInterface _tokenA,\n        TokenInterface _tokenB,\n        uint uniAmt\n    ) internal view returns (uint amtA, uint amtB)\n    {\n        IUniswapV2Router02 router = IUniswapV2Router02(getUniswapAddr());\n        address exchangeAddr = IUniswapV2Factory(router.factory()).getPair(address(_tokenA), address(_tokenB));\n        require(exchangeAddr != address(0), \"pair-not-found.\");\n        TokenInterface uniToken = TokenInterface(exchangeAddr);\n        uint share = wdiv(uniAmt, uniToken.totalSupply());\n        amtA = wmul(_tokenA.balanceOf(exchangeAddr), share);\n        amtB = wmul(_tokenB.balanceOf(exchangeAddr), share);\n    }\n\n    function _getExpectedBuyAmtByPath(\n        address[] memory paths,\n        uint sellAmt\n    ) internal view returns(uint buyAmt) {\n        IUniswapV2Router02 router = IUniswapV2Router02(getUniswapAddr());\n\n        if (checkPaths(router, paths)) {\n            uint[] memory amts = router.getAmountsOut(\n                sellAmt,\n                paths\n            );\n            buyAmt = amts[amts.length - 1];\n        } else {\n            buyAmt = 0;\n        }\n    }\n\n    function _getExpectedSellAmtByPath(\n        address[] memory paths,\n        uint buyAmt\n    ) internal view returns(uint sellAmt) {\n        IUniswapV2Router02 router = IUniswapV2Router02(getUniswapAddr());\n\n        if (checkPaths(router, paths)) {\n           uint[] memory amts = router.getAmountsIn(\n                buyAmt,\n                paths\n            );\n            sellAmt = amts[0];\n        } else {\n            sellAmt = uint(-1);\n        }\n    }\n}\n\n\ncontract Resolver is UniswapHelpers {\n\n    function getBuyAmount(address buyAddr, address sellAddr, uint sellAmt, uint slippage)\n    public view returns (uint buyAmt, uint unitAmt)\n    {\n        (TokenInterface _buyAddr, TokenInterface _sellAddr) = changeEthAddress(buyAddr, sellAddr);\n        buyAmt = getExpectedBuyAmt(address(_buyAddr), address(_sellAddr), sellAmt);\n        unitAmt = getBuyUnitAmt(_buyAddr, buyAmt, _sellAddr, sellAmt, slippage);\n    }\n\n    function getSellAmount(address buyAddr, address sellAddr, uint buyAmt, uint slippage)\n    public view returns (uint sellAmt, uint unitAmt)\n    {\n        (TokenInterface _buyAddr, TokenInterface _sellAddr) = changeEthAddress(buyAddr, sellAddr);\n        sellAmt = getExpectedSellAmt(address(_buyAddr), address(_sellAddr), buyAmt);\n        unitAmt = getSellUnitAmt(_sellAddr, sellAmt, _buyAddr, buyAmt, slippage);\n    }\n\n    function getDepositAmount(\n        address tokenA,\n        address tokenB,\n        uint amtA\n    ) public view returns (uint amtB, uint unitAmt)\n    {\n        (TokenInterface _tokenA, TokenInterface _tokenB) = changeEthAddress(tokenA, tokenB);\n        IUniswapV2Router02 router = IUniswapV2Router02(getUniswapAddr());\n        address exchangeAddr = IUniswapV2Factory(router.factory()).getPair(address(_tokenA), address(_tokenB));\n        require(exchangeAddr != address(0), \"pair-not-found.\");\n        uint _amtA18 = convertTo18(_tokenA.decimals(), _tokenA.balanceOf(exchangeAddr));\n        uint _amtB18 = convertTo18(_tokenB.decimals(), _tokenB.balanceOf(exchangeAddr));\n        unitAmt = wdiv(_amtB18, _amtA18);\n        amtB = wmul(unitAmt, convertTo18(_tokenA.decimals(), amtA));\n        amtB = convert18ToDec(_tokenB.decimals(), amtB);\n    }\n\n    function getDepositAmountNewPool(\n        address tokenA,\n        address tokenB,\n        uint amtA,\n        uint amtB\n    ) public view returns (uint unitAmt)\n    {\n        (TokenInterface _tokenA, TokenInterface _tokenB) = changeEthAddress(tokenA, tokenB);\n        IUniswapV2Router02 router = IUniswapV2Router02(getUniswapAddr());\n        address exchangeAddr = IUniswapV2Factory(router.factory()).getPair(address(_tokenA), address(_tokenB));\n        require(exchangeAddr == address(0), \"pair-found.\");\n        uint _amtA18 = convertTo18(_tokenA.decimals(), amtA);\n        uint _amtB18 = convertTo18(_tokenB.decimals(), amtB);\n        unitAmt = wdiv(_amtB18, _amtA18);\n    }\n\n    function getWithdrawAmounts(\n        address tokenA,\n        address tokenB,\n        uint uniAmt,\n        uint slippage\n    ) public view returns (uint amtA, uint amtB, uint unitAmtA, uint unitAmtB)\n    {\n        (TokenInterface _tokenA, TokenInterface _tokenB) = changeEthAddress(tokenA, tokenB);\n        (amtA, amtB) = _getWithdrawAmts(\n            _tokenA,\n            _tokenB,\n            uniAmt\n        );\n        (unitAmtA, unitAmtB) = _getWithdrawUnitAmts(\n            _tokenA,\n            _tokenB,\n            amtA,\n            amtB,\n            uniAmt,\n            slippage\n        );\n    }\n\n    struct TokenPair {\n        address tokenA;\n        address tokenB;\n    }\n\n    struct PoolData {\n        uint tokenAShareAmt;\n        uint tokenBShareAmt;\n        uint uniAmt;\n        uint totalSupply;\n    }\n\n    function getPosition(\n        address owner,\n        TokenPair[] memory tokenPairs\n    ) public view returns (PoolData[] memory)\n    {\n        IUniswapV2Router02 router = IUniswapV2Router02(getUniswapAddr());\n        uint _len = tokenPairs.length;\n        PoolData[] memory poolData = new PoolData[](_len);\n        for (uint i = 0; i < _len; i++) {\n            (TokenInterface tokenA, TokenInterface tokenB) = changeEthAddress(tokenPairs[i].tokenA, tokenPairs[i].tokenB);\n            address exchangeAddr = IUniswapV2Factory(router.factory()).getPair(\n                address(tokenA),\n                address(tokenB)\n            );\n            if (exchangeAddr != address(0)) {\n                TokenInterface uniToken = TokenInterface(exchangeAddr);\n                uint uniAmt = uniToken.balanceOf(owner);\n                uint totalSupply = uniToken.totalSupply();\n                uint share = wdiv(uniAmt, totalSupply);\n                uint amtA = wmul(tokenA.balanceOf(exchangeAddr), share);\n                uint amtB = wmul(tokenB.balanceOf(exchangeAddr), share);\n                poolData[i] = PoolData(\n                    amtA,\n                    amtB,\n                    uniAmt,\n                    totalSupply\n                );\n            }\n        }\n        return poolData;\n    }\n\n    function getOptimalSellPath(\n        address buyAddr,\n        address sellAddr,\n        address[] memory tokens,\n        uint sellAmt\n    ) public view returns (address[] memory paths, uint buyAmt)\n    {\n        (TokenInterface _buyAddr, TokenInterface _sellAddr) = changeEthAddress(buyAddr, sellAddr);\n\n        address[] memory _path = new address[](2);\n        _path[0] = address(_sellAddr);\n        _path[1] = address(_buyAddr);\n\n        paths = _path;\n        buyAmt = _getExpectedBuyAmtByPath(_path, sellAmt);\n\n        _path = new address[](3);\n        _path[0] = address(_sellAddr);\n        _path[2] = address(_buyAddr);\n\n        uint i;\n        uint j;\n        uint _buyAmt;\n\n        for(i = 0; i < tokens.length; i++) {\n            _path[1] = tokens[i];\n\n            _buyAmt = _getExpectedBuyAmtByPath(_path, sellAmt);\n\n            if (_buyAmt > buyAmt) {\n                buyAmt = _buyAmt;\n                paths = new address[](3);\n                paths[0] = _path[0];\n                paths[1] = _path[1];\n                paths[2] = _path[2];\n            }\n        }\n\n        _path = new address[](4);\n        _path[0] = address(_sellAddr);\n        _path[3] = address(_buyAddr);\n\n        for(i = 0; i < tokens.length; i++) {\n            for(j = 0; j < tokens.length; j++) {\n                _path[1] = tokens[i];\n                _path[2] = tokens[j];\n\n                _buyAmt = _getExpectedBuyAmtByPath(_path, sellAmt);\n\n                if (_buyAmt > buyAmt) {\n                    buyAmt = _buyAmt;\n                    paths = new address[](4);\n                    paths[0] = _path[0];\n                    paths[1] = _path[1];\n                    paths[2] = _path[2];\n                    paths[3] = _path[3];\n                }\n            }\n        }\n    }\n\n    function getOptimalBuyPath(\n        address buyAddr,\n        address sellAddr,\n        address[] memory tokens,\n        uint buyAmt\n    ) public view returns (address[] memory paths, uint sellAmt)\n    {\n        (TokenInterface _buyAddr, TokenInterface _sellAddr) = changeEthAddress(buyAddr, sellAddr);\n\n        address[] memory _path = new address[](2);\n        _path[0] = address(_sellAddr);\n        _path[1] = address(_buyAddr);\n\n        paths = _path;\n        sellAmt = _getExpectedSellAmtByPath(_path, buyAmt);\n\n        _path = new address[](3);\n        _path[0] = address(_sellAddr);\n        _path[2] = address(_buyAddr);\n\n        uint i;\n        uint j;\n        uint _sellAmt;\n\n        for(i = 0; i < tokens.length; i++) {\n            _path[1] = tokens[i];\n\n            _sellAmt = _getExpectedSellAmtByPath(_path, buyAmt);\n\n            if (_sellAmt < sellAmt) {\n                sellAmt = _sellAmt;\n                paths = new address[](3);\n                paths[0] = _path[0];\n                paths[1] = _path[1];\n                paths[2] = _path[2];\n            }\n        }\n\n        _path = new address[](4);\n        _path[0] = address(_sellAddr);\n        _path[3] = address(_buyAddr);\n\n        for(i = 0; i < tokens.length; i++) {\n            for(j = 0; j < tokens.length; j++) {\n                _path[1] = tokens[i];\n                _path[2] = tokens[j];\n\n                _sellAmt = _getExpectedSellAmtByPath(_path, buyAmt);\n\n                if (_sellAmt < sellAmt) {\n                    sellAmt = _sellAmt;\n                    paths = new address[](4);\n                    paths[0] = _path[0];\n                    paths[1] = _path[1];\n                    paths[2] = _path[2];\n                    paths[3] = _path[3];\n                }\n            }\n        }\n    }\n}\n\n\ncontract InstaUniswapV2Resolver is Resolver {\n    string public constant name = \"UniswapV2-Resolver-v1\";\n}\n\n\n",
  "sourcePath": "/mnt/e/Projects/tests/uni-resolver/contracts/Uniswap.sol",
  "compiler": {
    "name": "solc",
    "version": "0.6.0+commit.26b70077.Emscripten.clang"
  },
  "schemaVersion": "3.2.4",
  "updatedAt": "2020-10-03T14:11:20.018Z",
  "devdoc": {
    "methods": {
      "getEthAddr()": {
        "details": "get Ethereum address"
      }
    }
  },
  "userdoc": {
    "methods": {}
  }
}