{
  "contractName": "Resolver",
  "abi": [
    {
      "inputs": [],
      "name": "getEthAddr",
      "outputs": [
        {
          "internalType": "address",
          "name": "",
          "type": "address"
        }
      ],
      "stateMutability": "pure",
      "type": "function"
    },
    {
      "inputs": [
        {
          "internalType": "address",
          "name": "buyAddr",
          "type": "address"
        },
        {
          "internalType": "address",
          "name": "sellAddr",
          "type": "address"
        },
        {
          "internalType": "uint256",
          "name": "sellAmt",
          "type": "uint256"
        },
        {
          "internalType": "uint256",
          "name": "slippage",
          "type": "uint256"
        }
      ],
      "name": "getBuyAmount",
      "outputs": [
        {
          "internalType": "uint256",
          "name": "buyAmt",
          "type": "uint256"
        },
        {
          "internalType": "uint256",
          "name": "unitAmt",
          "type": "uint256"
        }
      ],
      "stateMutability": "view",
      "type": "function"
    },
    {
      "inputs": [
        {
          "internalType": "address",
          "name": "buyAddr",
          "type": "address"
        },
        {
          "internalType": "address",
          "name": "sellAddr",
          "type": "address"
        },
        {
          "internalType": "uint256",
          "name": "buyAmt",
          "type": "uint256"
        },
        {
          "internalType": "uint256",
          "name": "slippage",
          "type": "uint256"
        }
      ],
      "name": "getSellAmount",
      "outputs": [
        {
          "internalType": "uint256",
          "name": "sellAmt",
          "type": "uint256"
        },
        {
          "internalType": "uint256",
          "name": "unitAmt",
          "type": "uint256"
        }
      ],
      "stateMutability": "view",
      "type": "function"
    },
    {
      "inputs": [
        {
          "internalType": "address",
          "name": "tokenA",
          "type": "address"
        },
        {
          "internalType": "address",
          "name": "tokenB",
          "type": "address"
        },
        {
          "internalType": "uint256",
          "name": "amtA",
          "type": "uint256"
        }
      ],
      "name": "getDepositAmount",
      "outputs": [
        {
          "internalType": "uint256",
          "name": "amtB",
          "type": "uint256"
        },
        {
          "internalType": "uint256",
          "name": "unitAmt",
          "type": "uint256"
        }
      ],
      "stateMutability": "view",
      "type": "function"
    },
    {
      "inputs": [
        {
          "internalType": "address",
          "name": "tokenA",
          "type": "address"
        },
        {
          "internalType": "address",
          "name": "tokenB",
          "type": "address"
        },
        {
          "internalType": "uint256",
          "name": "amtA",
          "type": "uint256"
        },
        {
          "internalType": "uint256",
          "name": "amtB",
          "type": "uint256"
        }
      ],
      "name": "getDepositAmountNewPool",
      "outputs": [
        {
          "internalType": "uint256",
          "name": "unitAmt",
          "type": "uint256"
        }
      ],
      "stateMutability": "view",
      "type": "function"
    },
    {
      "inputs": [
        {
          "internalType": "address",
          "name": "tokenA",
          "type": "address"
        },
        {
          "internalType": "address",
          "name": "tokenB",
          "type": "address"
        },
        {
          "internalType": "uint256",
          "name": "uniAmt",
          "type": "uint256"
        },
        {
          "internalType": "uint256",
          "name": "slippage",
          "type": "uint256"
        }
      ],
      "name": "getWithdrawAmounts",
      "outputs": [
        {
          "internalType": "uint256",
          "name": "amtA",
          "type": "uint256"
        },
        {
          "internalType": "uint256",
          "name": "amtB",
          "type": "uint256"
        },
        {
          "internalType": "uint256",
          "name": "unitAmtA",
          "type": "uint256"
        },
        {
          "internalType": "uint256",
          "name": "unitAmtB",
          "type": "uint256"
        }
      ],
      "stateMutability": "view",
      "type": "function"
    },
    {
      "inputs": [
        {
          "internalType": "address",
          "name": "owner",
          "type": "address"
        },
        {
          "components": [
            {
              "internalType": "address",
              "name": "tokenA",
              "type": "address"
            },
            {
              "internalType": "address",
              "name": "tokenB",
              "type": "address"
            }
          ],
          "internalType": "struct Resolver.TokenPair[]",
          "name": "tokenPairs",
          "type": "tuple[]"
        }
      ],
      "name": "getPosition",
      "outputs": [
        {
          "components": [
            {
              "internalType": "uint256",
              "name": "tokenAShareAmt",
              "type": "uint256"
            },
            {
              "internalType": "uint256",
              "name": "tokenBShareAmt",
              "type": "uint256"
            },
            {
              "internalType": "uint256",
              "name": "uniAmt",
              "type": "uint256"
            },
            {
              "internalType": "uint256",
              "name": "totalSupply",
              "type": "uint256"
            }
          ],
          "internalType": "struct Resolver.PoolData[]",
          "name": "",
          "type": "tuple[]"
        }
      ],
      "stateMutability": "view",
      "type": "function"
    },
    {
      "inputs": [
        {
          "internalType": "address",
          "name": "buyAddr",
          "type": "address"
        },
        {
          "internalType": "address",
          "name": "sellAddr",
          "type": "address"
        },
        {
          "internalType": "address[]",
          "name": "tokens",
          "type": "address[]"
        },
        {
          "internalType": "uint256",
          "name": "sellAmt",
          "type": "uint256"
        },
        {
          "internalType": "uint256",
          "name": "slippage",
          "type": "uint256"
        }
      ],
      "name": "getOptimalSellPath",
      "outputs": [
        {
          "internalType": "address[]",
          "name": "paths",
          "type": "address[]"
        },
        {
          "internalType": "uint256",
          "name": "buyAmt",
          "type": "uint256"
        },
        {
          "internalType": "uint256",
          "name": "unitAmt",
          "type": "uint256"
        }
      ],
      "stateMutability": "view",
      "type": "function"
    },
    {
      "inputs": [
        {
          "internalType": "address",
          "name": "buyAddr",
          "type": "address"
        },
        {
          "internalType": "address",
          "name": "sellAddr",
          "type": "address"
        },
        {
          "internalType": "address[]",
          "name": "tokens",
          "type": "address[]"
        },
        {
          "internalType": "uint256",
          "name": "buyAmt",
          "type": "uint256"
        },
        {
          "internalType": "uint256",
          "name": "slippage",
          "type": "uint256"
        }
      ],
      "name": "getOptimalBuyPath",
      "outputs": [
        {
          "internalType": "address[]",
          "name": "paths",
          "type": "address[]"
        },
        {
          "internalType": "uint256",
          "name": "sellAmt",
          "type": "uint256"
        },
        {
          "internalType": "uint256",
          "name": "unitAmt",
          "type": "uint256"
        }
      ],
      "stateMutability": "view",
      "type": "function"
    }
  ],
  "bytecode": "0x608060405234801561001057600080fd5b506138f1806100206000396000f3fe608060405234801561001057600080fd5b50600436106100935760003560e01c80638c3bc15a116100665780638c3bc15a14610148578063b4bb12d11461017b578063c011768b146101ac578063c53e7ba2146101de578063f19fcbe91461021057610093565b8063202bb80c14610098578063295ef574146100b65780635ccfb71d146100e7578063786309a314610118575b600080fd5b6100a0610240565b6040516100ad919061354c565b60405180910390f35b6100d060048036036100cb91908101906131ae565b61025c565b6040516100de9291906136bb565b60405180910390f35b61010160048036036100fc919081019061315f565b610297565b60405161010f9291906136bb565b60405180910390f35b610132600480360361012d91908101906131ae565b61078e565b60405161013f9190613670565b60405180910390f35b610162600480360361015d91908101906131ae565b610a58565b60405161017294939291906136e4565b60405180910390f35b610195600480360361019091908101906131ae565b610aa5565b6040516101a39291906136bb565b60405180910390f35b6101c660048036036101c191908101906130d0565b610ae0565b6040516101d593929190613590565b60405180910390f35b6101f860048036036101f391908101906130d0565b6111f0565b60405161020793929190613590565b60405180910390f35b61022a60048036036102259190810190613211565b611900565b60405161023791906135ce565b60405180910390f35b600073eeeeeeeeeeeeeeeeeeeeeeeeeeeeeeeeeeeeeeee905090565b60008060008061026c8888611d8a565b9150915061027b828288611e2a565b935061028a8185848989611fb1565b9250505094509492505050565b6000806000806102a78787611d8a565b9150915060006102b56120fc565b905060008173ffffffffffffffffffffffffffffffffffffffff1663c45a01556040518163ffffffff1660e01b815260040160206040518083038186803b1580156102ff57600080fd5b505afa158015610313573d6000803e3d6000fd5b505050506040513d601f19601f8201168201806040525061033791908101906130a7565b73ffffffffffffffffffffffffffffffffffffffff1663e6a4390585856040518363ffffffff1660e01b8152600401610371929190613567565b60206040518083038186803b15801561038957600080fd5b505afa15801561039d573d6000803e3d6000fd5b505050506040513d601f19601f820116820180604052506103c191908101906130a7565b9050600073ffffffffffffffffffffffffffffffffffffffff168173ffffffffffffffffffffffffffffffffffffffff161415610433576040517f08c379a000000000000000000000000000000000000000000000000000000000815260040161042a90613630565b60405180910390fd5b60006105448573ffffffffffffffffffffffffffffffffffffffff1663313ce5676040518163ffffffff1660e01b815260040160206040518083038186803b15801561047e57600080fd5b505afa158015610492573d6000803e3d6000fd5b505050506040513d601f19601f820116820180604052506104b691908101906132a6565b8673ffffffffffffffffffffffffffffffffffffffff166370a08231856040518263ffffffff1660e01b81526004016104ef919061354c565b60206040518083038186803b15801561050757600080fd5b505afa15801561051b573d6000803e3d6000fd5b505050506040513d601f19601f8201168201806040525061053f91908101906132a6565b612118565b905060006106578573ffffffffffffffffffffffffffffffffffffffff1663313ce5676040518163ffffffff1660e01b815260040160206040518083038186803b15801561059157600080fd5b505afa1580156105a5573d6000803e3d6000fd5b505050506040513d601f19601f820116820180604052506105c991908101906132a6565b8673ffffffffffffffffffffffffffffffffffffffff166370a08231866040518263ffffffff1660e01b8152600401610602919061354c565b60206040518083038186803b15801561061a57600080fd5b505afa15801561062e573d6000803e3d6000fd5b505050506040513d601f19601f8201168201806040525061065291908101906132a6565b612118565b90506106638183612132565b96506106f5876106f08873ffffffffffffffffffffffffffffffffffffffff1663313ce5676040518163ffffffff1660e01b815260040160206040518083038186803b1580156106b257600080fd5b505afa1580156106c6573d6000803e3d6000fd5b505050506040513d601f19601f820116820180604052506106ea91908101906132a6565b8c612118565b61216a565b975061077e8573ffffffffffffffffffffffffffffffffffffffff1663313ce5676040518163ffffffff1660e01b815260040160206040518083038186803b15801561074057600080fd5b505afa158015610754573d6000803e3d6000fd5b505050506040513d601f19601f8201168201806040525061077891908101906132a6565b896121aa565b9750505050505050935093915050565b600080600061079d8787611d8a565b9150915060006107ab6120fc565b905060008173ffffffffffffffffffffffffffffffffffffffff1663c45a01556040518163ffffffff1660e01b815260040160206040518083038186803b1580156107f557600080fd5b505afa158015610809573d6000803e3d6000fd5b505050506040513d601f19601f8201168201806040525061082d91908101906130a7565b73ffffffffffffffffffffffffffffffffffffffff1663e6a4390585856040518363ffffffff1660e01b8152600401610867929190613567565b60206040518083038186803b15801561087f57600080fd5b505afa158015610893573d6000803e3d6000fd5b505050506040513d601f19601f820116820180604052506108b791908101906130a7565b9050600073ffffffffffffffffffffffffffffffffffffffff168173ffffffffffffffffffffffffffffffffffffffff1614610928576040517f08c379a000000000000000000000000000000000000000000000000000000000815260040161091f90613650565b60405180910390fd5b60006109b18573ffffffffffffffffffffffffffffffffffffffff1663313ce5676040518163ffffffff1660e01b815260040160206040518083038186803b15801561097357600080fd5b505afa158015610987573d6000803e3d6000fd5b505050506040513d601f19601f820116820180604052506109ab91908101906132a6565b89612118565b90506000610a3c8573ffffffffffffffffffffffffffffffffffffffff1663313ce5676040518163ffffffff1660e01b815260040160206040518083038186803b1580156109fe57600080fd5b505afa158015610a12573d6000803e3d6000fd5b505050506040513d601f19601f82011682018060405250610a3691908101906132a6565b89612118565b9050610a488183612132565b9650505050505050949350505050565b600080600080600080610a6b8a8a611d8a565b91509150610a7a82828a6121c4565b8096508197505050610a90828288888c8c612513565b80945081955050505050945094509450949050565b600080600080610ab58888611d8a565b91509150610ac482828861268b565b9350610ad38285838989612812565b9250505094509492505050565b6060600080600080610af28a8a611d8a565b9150915060606002604051908082528060200260200182016040528015610b285781602001602082028038833980820191505090505b5090508181600081518110610b3957fe5b602002602001019073ffffffffffffffffffffffffffffffffffffffff16908173ffffffffffffffffffffffffffffffffffffffff16815250508281600181518110610b8157fe5b602002602001019073ffffffffffffffffffffffffffffffffffffffff16908173ffffffffffffffffffffffffffffffffffffffff1681525050809550610bc8818961295d565b94506003604051908082528060200260200182016040528015610bfa5781602001602082028038833980820191505090505b5090508181600081518110610c0b57fe5b602002602001019073ffffffffffffffffffffffffffffffffffffffff16908173ffffffffffffffffffffffffffffffffffffffff16815250508281600281518110610c5357fe5b602002602001019073ffffffffffffffffffffffffffffffffffffffff16908173ffffffffffffffffffffffffffffffffffffffff168152505060008060008092505b8b51831015610e66578b8381518110610cab57fe5b602002602001015184600181518110610cc057fe5b602002602001019073ffffffffffffffffffffffffffffffffffffffff16908173ffffffffffffffffffffffffffffffffffffffff1681525050610d04848c61295d565b905087811015610e59578097506003604051908082528060200260200182016040528015610d415781602001602082028038833980820191505090505b50985083600081518110610d5157fe5b602002602001015189600081518110610d6657fe5b602002602001019073ffffffffffffffffffffffffffffffffffffffff16908173ffffffffffffffffffffffffffffffffffffffff168152505083600181518110610dad57fe5b602002602001015189600181518110610dc257fe5b602002602001019073ffffffffffffffffffffffffffffffffffffffff16908173ffffffffffffffffffffffffffffffffffffffff168152505083600281518110610e0957fe5b602002602001015189600281518110610e1e57fe5b602002602001019073ffffffffffffffffffffffffffffffffffffffff16908173ffffffffffffffffffffffffffffffffffffffff16815250505b8280600101935050610c96565b6004604051908082528060200260200182016040528015610e965781602001602082028038833980820191505090505b5093508484600081518110610ea757fe5b602002602001019073ffffffffffffffffffffffffffffffffffffffff16908173ffffffffffffffffffffffffffffffffffffffff16815250508584600381518110610eef57fe5b602002602001019073ffffffffffffffffffffffffffffffffffffffff16908173ffffffffffffffffffffffffffffffffffffffff1681525050600092505b8b518310156111d057600091505b8b518210156111c3578b8381518110610f5157fe5b602002602001015184600181518110610f6657fe5b602002602001019073ffffffffffffffffffffffffffffffffffffffff16908173ffffffffffffffffffffffffffffffffffffffff16815250508b8281518110610fac57fe5b602002602001015184600281518110610fc157fe5b602002602001019073ffffffffffffffffffffffffffffffffffffffff16908173ffffffffffffffffffffffffffffffffffffffff1681525050611005848c61295d565b9050878110156111b65780975060046040519080825280602002602001820160405280156110425781602001602082028038833980820191505090505b5098508360008151811061105257fe5b60200260200101518960008151811061106757fe5b602002602001019073ffffffffffffffffffffffffffffffffffffffff16908173ffffffffffffffffffffffffffffffffffffffff1681525050836001815181106110ae57fe5b6020026020010151896001815181106110c357fe5b602002602001019073ffffffffffffffffffffffffffffffffffffffff16908173ffffffffffffffffffffffffffffffffffffffff16815250508360028151811061110a57fe5b60200260200101518960028151811061111f57fe5b602002602001019073ffffffffffffffffffffffffffffffffffffffff16908173ffffffffffffffffffffffffffffffffffffffff16815250508360038151811061116657fe5b60200260200101518960038151811061117b57fe5b602002602001019073ffffffffffffffffffffffffffffffffffffffff16908173ffffffffffffffffffffffffffffffffffffffff16815250505b8180600101925050610f3c565b8280600101935050610f2e565b6111dd8589888e8e611fb1565b9650505050505050955095509592505050565b60606000806000806112028a8a611d8a565b91509150606060026040519080825280602002602001820160405280156112385781602001602082028038833980820191505090505b509050818160008151811061124957fe5b602002602001019073ffffffffffffffffffffffffffffffffffffffff16908173ffffffffffffffffffffffffffffffffffffffff1681525050828160018151811061129157fe5b602002602001019073ffffffffffffffffffffffffffffffffffffffff16908173ffffffffffffffffffffffffffffffffffffffff16815250508095506112d88189612a55565b9450600360405190808252806020026020018201604052801561130a5781602001602082028038833980820191505090505b509050818160008151811061131b57fe5b602002602001019073ffffffffffffffffffffffffffffffffffffffff16908173ffffffffffffffffffffffffffffffffffffffff1681525050828160028151811061136357fe5b602002602001019073ffffffffffffffffffffffffffffffffffffffff16908173ffffffffffffffffffffffffffffffffffffffff168152505060008060008092505b8b51831015611576578b83815181106113bb57fe5b6020026020010151846001815181106113d057fe5b602002602001019073ffffffffffffffffffffffffffffffffffffffff16908173ffffffffffffffffffffffffffffffffffffffff1681525050611414848c612a55565b9050878111156115695780975060036040519080825280602002602001820160405280156114515781602001602082028038833980820191505090505b5098508360008151811061146157fe5b60200260200101518960008151811061147657fe5b602002602001019073ffffffffffffffffffffffffffffffffffffffff16908173ffffffffffffffffffffffffffffffffffffffff1681525050836001815181106114bd57fe5b6020026020010151896001815181106114d257fe5b602002602001019073ffffffffffffffffffffffffffffffffffffffff16908173ffffffffffffffffffffffffffffffffffffffff16815250508360028151811061151957fe5b60200260200101518960028151811061152e57fe5b602002602001019073ffffffffffffffffffffffffffffffffffffffff16908173ffffffffffffffffffffffffffffffffffffffff16815250505b82806001019350506113a6565b60046040519080825280602002602001820160405280156115a65781602001602082028038833980820191505090505b50935084846000815181106115b757fe5b602002602001019073ffffffffffffffffffffffffffffffffffffffff16908173ffffffffffffffffffffffffffffffffffffffff168152505085846003815181106115ff57fe5b602002602001019073ffffffffffffffffffffffffffffffffffffffff16908173ffffffffffffffffffffffffffffffffffffffff1681525050600092505b8b518310156118e057600091505b8b518210156118d3578b838151811061166157fe5b60200260200101518460018151811061167657fe5b602002602001019073ffffffffffffffffffffffffffffffffffffffff16908173ffffffffffffffffffffffffffffffffffffffff16815250508b82815181106116bc57fe5b6020026020010151846002815181106116d157fe5b602002602001019073ffffffffffffffffffffffffffffffffffffffff16908173ffffffffffffffffffffffffffffffffffffffff1681525050611715848c612a55565b9050878111156118c65780975060046040519080825280602002602001820160405280156117525781602001602082028038833980820191505090505b5098508360008151811061176257fe5b60200260200101518960008151811061177757fe5b602002602001019073ffffffffffffffffffffffffffffffffffffffff16908173ffffffffffffffffffffffffffffffffffffffff1681525050836001815181106117be57fe5b6020026020010151896001815181106117d357fe5b602002602001019073ffffffffffffffffffffffffffffffffffffffff16908173ffffffffffffffffffffffffffffffffffffffff16815250508360028151811061181a57fe5b60200260200101518960028151811061182f57fe5b602002602001019073ffffffffffffffffffffffffffffffffffffffff16908173ffffffffffffffffffffffffffffffffffffffff16815250508360038151811061187657fe5b60200260200101518960038151811061188b57fe5b602002602001019073ffffffffffffffffffffffffffffffffffffffff16908173ffffffffffffffffffffffffffffffffffffffff16815250505b818060010192505061164c565b828060010193505061163e565b6118ed8689878e8e612812565b9650505050505050955095509592505050565b6060600061190c6120fc565b905060008351905060608160405190808252806020026020018201604052801561195057816020015b61193d612e56565b8152602001906001900390816119355790505b50905060008090505b82811015611d7d5760008061199c88848151811061197357fe5b60200260200101516000015189858151811061198b57fe5b602002602001015160200151611d8a565b9150915060008673ffffffffffffffffffffffffffffffffffffffff1663c45a01556040518163ffffffff1660e01b815260040160206040518083038186803b1580156119e857600080fd5b505afa1580156119fc573d6000803e3d6000fd5b505050506040513d601f19601f82011682018060405250611a2091908101906130a7565b73ffffffffffffffffffffffffffffffffffffffff1663e6a4390584846040518363ffffffff1660e01b8152600401611a5a929190613567565b60206040518083038186803b158015611a7257600080fd5b505afa158015611a86573d6000803e3d6000fd5b505050506040513d601f19601f82011682018060405250611aaa91908101906130a7565b9050600073ffffffffffffffffffffffffffffffffffffffff168173ffffffffffffffffffffffffffffffffffffffff1614611d6d57600081905060008173ffffffffffffffffffffffffffffffffffffffff166370a082318d6040518263ffffffff1660e01b8152600401611b20919061354c565b60206040518083038186803b158015611b3857600080fd5b505afa158015611b4c573d6000803e3d6000fd5b505050506040513d601f19601f82011682018060405250611b7091908101906132a6565b905060008273ffffffffffffffffffffffffffffffffffffffff166318160ddd6040518163ffffffff1660e01b815260040160206040518083038186803b158015611bba57600080fd5b505afa158015611bce573d6000803e3d6000fd5b505050506040513d601f19601f82011682018060405250611bf291908101906132a6565b90506000611c008383612132565b90506000611c968873ffffffffffffffffffffffffffffffffffffffff166370a08231886040518263ffffffff1660e01b8152600401611c40919061354c565b60206040518083038186803b158015611c5857600080fd5b505afa158015611c6c573d6000803e3d6000fd5b505050506040513d601f19601f82011682018060405250611c9091908101906132a6565b8361216a565b90506000611d2c8873ffffffffffffffffffffffffffffffffffffffff166370a08231896040518263ffffffff1660e01b8152600401611cd6919061354c565b60206040518083038186803b158015611cee57600080fd5b505afa158015611d02573d6000803e3d6000fd5b505050506040513d601f19601f82011682018060405250611d2691908101906132a6565b8461216a565b90506040518060800160405280838152602001828152602001868152602001858152508b8b81518110611d5b57fe5b60200260200101819052505050505050505b5050508080600101915050611959565b5080935050505092915050565b600080611d95610240565b73ffffffffffffffffffffffffffffffffffffffff168473ffffffffffffffffffffffffffffffffffffffff1614611dcd5783611dd6565b611dd5612b31565b5b9150611de0610240565b73ffffffffffffffffffffffffffffffffffffffff168373ffffffffffffffffffffffffffffffffffffffff1614611e185782611e21565b611e20612b31565b5b90509250929050565b600080611e356120fc565b905060606002604051908082528060200260200182016040528015611e695781602001602082028038833980820191505090505b5090508481600081518110611e7a57fe5b602002602001019073ffffffffffffffffffffffffffffffffffffffff16908173ffffffffffffffffffffffffffffffffffffffff16815250508581600181518110611ec257fe5b602002602001019073ffffffffffffffffffffffffffffffffffffffff16908173ffffffffffffffffffffffffffffffffffffffff168152505060608273ffffffffffffffffffffffffffffffffffffffff16631f00ca7486846040518363ffffffff1660e01b8152600401611f3992919061368b565b60006040518083038186803b158015611f5157600080fd5b505afa158015611f65573d6000803e3d6000fd5b505050506040513d6000823e3d601f19601f82011682018060405250611f8e9190810190613265565b905080600081518110611f9d57fe5b602002602001015193505050509392505050565b60008061203b8573ffffffffffffffffffffffffffffffffffffffff1663313ce5676040518163ffffffff1660e01b815260040160206040518083038186803b158015611ffd57600080fd5b505afa158015612011573d6000803e3d6000fd5b505050506040513d601f19601f8201168201806040525061203591908101906132a6565b85612118565b905060006120c68873ffffffffffffffffffffffffffffffffffffffff1663313ce5676040518163ffffffff1660e01b815260040160206040518083038186803b15801561208857600080fd5b505afa15801561209c573d6000803e3d6000fd5b505050506040513d601f19601f820116820180604052506120c091908101906132a6565b88612118565b90506120d28183612132565b92506120ef836120ea670de0b6b3a764000087612b4d565b61216a565b9250505095945050505050565b6000737a250d5630b4cf539739df2c5dacb4c659f2488d905090565b600061212a8284601203600a0a612b9d565b905092915050565b60008161215a61214a85670de0b6b3a7640000612b9d565b6002858161215457fe5b04612b4d565b8161216157fe5b04905092915050565b6000670de0b6b3a764000061219a6121828585612b9d565b6002670de0b6b3a76400008161219457fe5b04612b4d565b816121a157fe5b04905092915050565b600082601203600a0a82816121bb57fe5b04905092915050565b60008060006121d16120fc565b905060008173ffffffffffffffffffffffffffffffffffffffff1663c45a01556040518163ffffffff1660e01b815260040160206040518083038186803b15801561221b57600080fd5b505afa15801561222f573d6000803e3d6000fd5b505050506040513d601f19601f8201168201806040525061225391908101906130a7565b73ffffffffffffffffffffffffffffffffffffffff1663e6a4390588886040518363ffffffff1660e01b815260040161228d929190613567565b60206040518083038186803b1580156122a557600080fd5b505afa1580156122b9573d6000803e3d6000fd5b505050506040513d601f19601f820116820180604052506122dd91908101906130a7565b9050600073ffffffffffffffffffffffffffffffffffffffff168173ffffffffffffffffffffffffffffffffffffffff16141561234f576040517f08c379a000000000000000000000000000000000000000000000000000000000815260040161234690613630565b60405180910390fd5b600081905060006123dd878373ffffffffffffffffffffffffffffffffffffffff166318160ddd6040518163ffffffff1660e01b815260040160206040518083038186803b1580156123a057600080fd5b505afa1580156123b4573d6000803e3d6000fd5b505050506040513d601f19601f820116820180604052506123d891908101906132a6565b612132565b90506124718973ffffffffffffffffffffffffffffffffffffffff166370a08231856040518263ffffffff1660e01b815260040161241b919061354c565b60206040518083038186803b15801561243357600080fd5b505afa158015612447573d6000803e3d6000fd5b505050506040513d601f19601f8201168201806040525061246b91908101906132a6565b8261216a565b95506125058873ffffffffffffffffffffffffffffffffffffffff166370a08231856040518263ffffffff1660e01b81526004016124af919061354c565b60206040518083038186803b1580156124c757600080fd5b505afa1580156124db573d6000803e3d6000fd5b505050506040513d601f19601f820116820180604052506124ff91908101906132a6565b8261216a565b945050505050935093915050565b600080600061259f8973ffffffffffffffffffffffffffffffffffffffff1663313ce5676040518163ffffffff1660e01b815260040160206040518083038186803b15801561256157600080fd5b505afa158015612575573d6000803e3d6000fd5b505050506040513d601f19601f8201168201806040525061259991908101906132a6565b88612118565b9050600061262a8973ffffffffffffffffffffffffffffffffffffffff1663313ce5676040518163ffffffff1660e01b815260040160206040518083038186803b1580156125ec57600080fd5b505afa158015612600573d6000803e3d6000fd5b505050506040513d601f19601f8201168201806040525061262491908101906132a6565b88612118565b90506126368287612132565b93506126538461264e670de0b6b3a764000088612bff565b61216a565b935061265f8187612132565b925061267c83612677670de0b6b3a764000088612bff565b61216a565b92505050965096945050505050565b6000806126966120fc565b9050606060026040519080825280602002602001820160405280156126ca5781602001602082028038833980820191505090505b50905084816000815181106126db57fe5b602002602001019073ffffffffffffffffffffffffffffffffffffffff16908173ffffffffffffffffffffffffffffffffffffffff1681525050858160018151811061272357fe5b602002602001019073ffffffffffffffffffffffffffffffffffffffff16908173ffffffffffffffffffffffffffffffffffffffff168152505060608273ffffffffffffffffffffffffffffffffffffffff1663d06ca61f86846040518363ffffffff1660e01b815260040161279a92919061368b565b60006040518083038186803b1580156127b257600080fd5b505afa1580156127c6573d6000803e3d6000fd5b505050506040513d6000823e3d601f19601f820116820180604052506127ef9190810190613265565b9050806001815181106127fe57fe5b602002602001015193505050509392505050565b60008061289c8573ffffffffffffffffffffffffffffffffffffffff1663313ce5676040518163ffffffff1660e01b815260040160206040518083038186803b15801561285e57600080fd5b505afa158015612872573d6000803e3d6000fd5b505050506040513d601f19601f8201168201806040525061289691908101906132a6565b85612118565b905060006129278873ffffffffffffffffffffffffffffffffffffffff1663313ce5676040518163ffffffff1660e01b815260040160206040518083038186803b1580156128e957600080fd5b505afa1580156128fd573d6000803e3d6000fd5b505050506040513d601f19601f8201168201806040525061292191908101906132a6565b88612118565b90506129338183612132565b92506129508361294b670de0b6b3a764000087612bff565b61216a565b9250505095945050505050565b6000806129686120fc565b90506129748185612c4f565b15612a2a5760608173ffffffffffffffffffffffffffffffffffffffff16631f00ca7485876040518363ffffffff1660e01b81526004016129b692919061368b565b60006040518083038186803b1580156129ce57600080fd5b505afa1580156129e2573d6000803e3d6000fd5b505050506040513d6000823e3d601f19601f82011682018060405250612a0b9190810190613265565b905080600081518110612a1a57fe5b6020026020010151925050612a4e565b7fffffffffffffffffffffffffffffffffffffffffffffffffffffffffffffffff91505b5092915050565b600080612a606120fc565b9050612a6c8185612c4f565b15612b255760608173ffffffffffffffffffffffffffffffffffffffff1663d06ca61f85876040518363ffffffff1660e01b8152600401612aae92919061368b565b60006040518083038186803b158015612ac657600080fd5b505afa158015612ada573d6000803e3d6000fd5b505050506040513d6000823e3d601f19601f82011682018060405250612b039190810190613265565b905080600182510381518110612b1557fe5b6020026020010151925050612b2a565b600091505b5092915050565b600073c778417e063141139fce010982780140aa0cd5ab905090565b6000828284019150811015612b97576040517f08c379a0000000000000000000000000000000000000000000000000000000008152600401612b8e906135f0565b60405180910390fd5b92915050565b600080821480612bba5750828283850292508281612bb757fe5b04145b612bf9576040517f08c379a0000000000000000000000000000000000000000000000000000000008152600401612bf0906135f0565b60405180910390fd5b92915050565b6000828284039150811115612c49576040517f08c379a0000000000000000000000000000000000000000000000000000000008152600401612c4090613610565b60405180910390fd5b92915050565b60006001905060005b6001835103811015612e4e57826001820181518110612c7357fe5b602002602001015173ffffffffffffffffffffffffffffffffffffffff16838281518110612c9d57fe5b602002602001015173ffffffffffffffffffffffffffffffffffffffff161415612ccb576000915050612e50565b60008473ffffffffffffffffffffffffffffffffffffffff1663c45a01556040518163ffffffff1660e01b815260040160206040518083038186803b158015612d1357600080fd5b505afa158015612d27573d6000803e3d6000fd5b505050506040513d601f19601f82011682018060405250612d4b91908101906130a7565b73ffffffffffffffffffffffffffffffffffffffff1663e6a43905858481518110612d7257fe5b6020026020010151866001860181518110612d8957fe5b60200260200101516040518363ffffffff1660e01b8152600401612dae929190613567565b60206040518083038186803b158015612dc657600080fd5b505afa158015612dda573d6000803e3d6000fd5b505050506040513d601f19601f82011682018060405250612dfe91908101906130a7565b9050600073ffffffffffffffffffffffffffffffffffffffff168173ffffffffffffffffffffffffffffffffffffffff161415612e4057600092505050612e50565b508080600101915050612c58565b505b92915050565b6040518060800160405280600081526020016000815260200160008152602001600081525090565b600081359050612e8d8161388d565b92915050565b600081519050612ea28161388d565b92915050565b600082601f830112612eb957600080fd5b8135612ecc612ec782613756565b613729565b91508181835260208401935060208101905083856020840282011115612ef157600080fd5b60005b83811015612f215781612f078882612e7e565b845260208401935060208301925050600181019050612ef4565b5050505092915050565b600082601f830112612f3c57600080fd5b8135612f4f612f4a8261377e565b613729565b91508181835260208401935060208101905083856040840282011115612f7457600080fd5b60005b83811015612fa45781612f8a8882613031565b845260208401935060408301925050600181019050612f77565b5050505092915050565b600082601f830112612fbf57600080fd5b8151612fd2612fcd826137a6565b613729565b91508181835260208401935060208101905083856020840282011115612ff757600080fd5b60005b83811015613027578161300d8882613092565b845260208401935060208301925050600181019050612ffa565b5050505092915050565b60006040828403121561304357600080fd5b61304d6040613729565b9050600061305d84828501612e7e565b600083015250602061307184828501612e7e565b60208301525092915050565b60008135905061308c816138a4565b92915050565b6000815190506130a1816138a4565b92915050565b6000602082840312156130b957600080fd5b60006130c784828501612e93565b91505092915050565b600080600080600060a086880312156130e857600080fd5b60006130f688828901612e7e565b955050602061310788828901612e7e565b945050604086013567ffffffffffffffff81111561312457600080fd5b61313088828901612ea8565b93505060606131418882890161307d565b92505060806131528882890161307d565b9150509295509295909350565b60008060006060848603121561317457600080fd5b600061318286828701612e7e565b935050602061319386828701612e7e565b92505060406131a48682870161307d565b9150509250925092565b600080600080608085870312156131c457600080fd5b60006131d287828801612e7e565b94505060206131e387828801612e7e565b93505060406131f48782880161307d565b92505060606132058782880161307d565b91505092959194509250565b6000806040838503121561322457600080fd5b600061323285828601612e7e565b925050602083013567ffffffffffffffff81111561324f57600080fd5b61325b85828601612f2b565b9150509250929050565b60006020828403121561327757600080fd5b600082015167ffffffffffffffff81111561329157600080fd5b61329d84828501612fae565b91505092915050565b6000602082840312156132b857600080fd5b60006132c684828501613092565b91505092915050565b60006132db83836132ff565b60208301905092915050565b60006132f383836134d9565b60808301905092915050565b61330881613851565b82525050565b61331781613851565b82525050565b6000613328826137ee565b613332818561381e565b935061333d836137ce565b8060005b8381101561336e57815161335588826132cf565b975061336083613804565b925050600181019050613341565b5085935050505092915050565b6000613386826137f9565b613390818561382f565b935061339b836137de565b8060005b838110156133cc5781516133b388826132e7565b97506133be83613811565b92505060018101905061339f565b5085935050505092915050565b60006133e6600d83613840565b91507f6d6174682d6e6f742d73616665000000000000000000000000000000000000006000830152602082019050919050565b6000613426600c83613840565b91507f7375622d6f766572666c6f7700000000000000000000000000000000000000006000830152602082019050919050565b6000613466600f83613840565b91507f706169722d6e6f742d666f756e642e00000000000000000000000000000000006000830152602082019050919050565b60006134a6600b83613840565b91507f706169722d666f756e642e0000000000000000000000000000000000000000006000830152602082019050919050565b6080820160008201516134ef600085018261352e565b506020820151613502602085018261352e565b506040820151613515604085018261352e565b506060820151613528606085018261352e565b50505050565b61353781613883565b82525050565b61354681613883565b82525050565b6000602082019050613561600083018461330e565b92915050565b600060408201905061357c600083018561330e565b613589602083018461330e565b9392505050565b600060608201905081810360008301526135aa818661331d565b90506135b9602083018561353d565b6135c6604083018461353d565b949350505050565b600060208201905081810360008301526135e8818461337b565b905092915050565b60006020820190508181036000830152613609816133d9565b9050919050565b6000602082019050818103600083015261362981613419565b9050919050565b6000602082019050818103600083015261364981613459565b9050919050565b6000602082019050818103600083015261366981613499565b9050919050565b6000602082019050613685600083018461353d565b92915050565b60006040820190506136a0600083018561353d565b81810360208301526136b2818461331d565b90509392505050565b60006040820190506136d0600083018561353d565b6136dd602083018461353d565b9392505050565b60006080820190506136f9600083018761353d565b613706602083018661353d565b613713604083018561353d565b613720606083018461353d565b95945050505050565b6000604051905081810181811067ffffffffffffffff8211171561374c57600080fd5b8060405250919050565b600067ffffffffffffffff82111561376d57600080fd5b602082029050602081019050919050565b600067ffffffffffffffff82111561379557600080fd5b602082029050602081019050919050565b600067ffffffffffffffff8211156137bd57600080fd5b602082029050602081019050919050565b6000819050602082019050919050565b6000819050602082019050919050565b600081519050919050565b600081519050919050565b6000602082019050919050565b6000602082019050919050565b600082825260208201905092915050565b600082825260208201905092915050565b600082825260208201905092915050565b600061385c82613863565b9050919050565b600073ffffffffffffffffffffffffffffffffffffffff82169050919050565b6000819050919050565b61389681613851565b81146138a157600080fd5b50565b6138ad81613883565b81146138b857600080fd5b5056fea264697066735822122012d924e301b744d72efe14de58f68c556ab9a49c9a0441bf095ea5ae2aaa740e64736f6c63430006000033",
  "source": "pragma solidity ^0.6.0;\npragma experimental ABIEncoderV2;\n\ninterface IUniswapV2Router02 {\n    function factory() external pure returns (address);\n    function WETH() external pure returns (address);\n    function getAmountsOut(uint amountIn, address[] calldata path) external view returns (uint[] memory amounts);\n    function getAmountsIn(uint amountOut, address[] calldata path) external view returns (uint[] memory amounts);\n}\n\ninterface IUniswapV2Factory {\n  function getPair(address tokenA, address tokenB) external view returns (address pair);\n}\n\ninterface TokenInterface {\n    function allowance(address, address) external view returns (uint);\n    function balanceOf(address) external view returns (uint);\n    function approve(address, uint) external;\n    function transfer(address, uint) external returns (bool);\n    function decimals() external view returns (uint);\n    function totalSupply() external view returns (uint);\n}\n\ncontract DSMath {\n\n    function add(uint x, uint y) internal pure returns (uint z) {\n        require((z = x + y) >= x, \"math-not-safe\");\n    }\n\n    function mul(uint x, uint y) internal pure returns (uint z) {\n        require(y == 0 || (z = x * y) / y == x, \"math-not-safe\");\n    }\n\n    function sub(uint x, uint y) internal pure returns (uint z) {\n        require((z = x - y) <= x, \"sub-overflow\");\n    }\n\n    uint constant WAD = 10 ** 18;\n\n    function wmul(uint x, uint y) internal pure returns (uint z) {\n        z = add(mul(x, y), WAD / 2) / WAD;\n    }\n\n    function wdiv(uint x, uint y) internal pure returns (uint z) {\n        z = add(mul(x, WAD), y / 2) / y;\n    }\n\n}\n\n\ncontract Helpers is DSMath {\n    /**\n     * @dev get Ethereum address\n     */\n    function getEthAddr() public pure returns (address) {\n        return 0xEeeeeEeeeEeEeeEeEeEeeEEEeeeeEeeeeeeeEEeE;\n    }\n}\n\ncontract UniswapHelpers is Helpers {\n    /**\n     * @dev Return WETH address\n     */\n    function getAddressWETH() internal pure returns (address) {\n        return 0xc778417E063141139Fce010982780140Aa0cD5Ab;\n    }\n\n    /**\n     * @dev Return uniswap v2 router02 Address\n     */\n    function getUniswapAddr() internal pure returns (address) {\n        return 0x7a250d5630B4cF539739dF2C5dAcb4c659F2488D;\n    }\n\n    function convert18ToDec(uint _dec, uint256 _amt) internal pure returns (uint256 amt) {\n        amt = (_amt / 10 ** (18 - _dec));\n    }\n\n    function convertTo18(uint _dec, uint256 _amt) internal pure returns (uint256 amt) {\n        amt = mul(_amt, 10 ** (18 - _dec));\n    }\n\n    function changeEthAddress(address buy, address sell) internal pure returns(TokenInterface _buy, TokenInterface _sell){\n        _buy = buy == getEthAddr() ? TokenInterface(getAddressWETH()) : TokenInterface(buy);\n        _sell = sell == getEthAddr() ? TokenInterface(getAddressWETH()) : TokenInterface(sell);\n    }\n\n    function checkPaths(\n        IUniswapV2Router02 router,\n        address[] memory paths\n    ) internal view returns(bool isValid) {\n        isValid = true;\n        for (uint i; i < paths.length - 1; i++) {\n            if (paths[i] == paths[i + 1]) {\n                return false;\n            }\n            address pair = IUniswapV2Factory(router.factory()).getPair(paths[i], paths[i + 1]);\n            if (pair == address(0)) {\n                return false;\n            }\n        }\n    }\n\n    function getExpectedBuyAmt(\n        address buyAddr,\n        address sellAddr,\n        uint sellAmt\n    ) internal view returns(uint buyAmt) {\n        IUniswapV2Router02 router = IUniswapV2Router02(getUniswapAddr());\n        address[] memory paths = new address[](2);\n        paths[0] = address(sellAddr);\n        paths[1] = address(buyAddr);\n        uint[] memory amts = router.getAmountsOut(\n            sellAmt,\n            paths\n        );\n        buyAmt = amts[1];\n    }\n\n    function getExpectedSellAmt(\n        address buyAddr,\n        address sellAddr,\n        uint buyAmt\n    ) internal view returns(uint sellAmt) {\n        IUniswapV2Router02 router = IUniswapV2Router02(getUniswapAddr());\n        address[] memory paths = new address[](2);\n        paths[0] = address(sellAddr);\n        paths[1] = address(buyAddr);\n        uint[] memory amts = router.getAmountsIn(\n            buyAmt,\n            paths\n        );\n        sellAmt = amts[0];\n    }\n\n    function getBuyUnitAmt(\n        TokenInterface buyAddr,\n        uint expectedAmt,\n        TokenInterface sellAddr,\n        uint sellAmt,\n        uint slippage\n    ) internal view returns (uint unitAmt) {\n        uint _sellAmt = convertTo18((sellAddr).decimals(), sellAmt);\n        uint _buyAmt = convertTo18(buyAddr.decimals(), expectedAmt);\n        unitAmt = wdiv(_buyAmt, _sellAmt);\n        unitAmt = wmul(unitAmt, sub(WAD, slippage));\n    }\n\n    function getSellUnitAmt(\n        TokenInterface sellAddr,\n        uint expectedAmt,\n        TokenInterface buyAddr,\n        uint buyAmt,\n        uint slippage\n    ) internal view returns (uint unitAmt) {\n        uint _buyAmt = convertTo18(buyAddr.decimals(), buyAmt);\n        uint _sellAmt = convertTo18(sellAddr.decimals(), expectedAmt);\n        unitAmt = wdiv(_sellAmt, _buyAmt);\n        unitAmt = wmul(unitAmt, add(WAD, slippage));\n    }\n\n    function _getWithdrawUnitAmts(\n        TokenInterface tokenA,\n        TokenInterface tokenB,\n        uint amtA,\n        uint amtB,\n        uint uniAmt,\n        uint slippage\n    ) internal view returns (uint unitAmtA, uint unitAmtB) {\n        uint _amtA = convertTo18(tokenA.decimals(), amtA);\n        uint _amtB = convertTo18(tokenB.decimals(), amtB);\n        unitAmtA = wdiv(_amtA, uniAmt);\n        unitAmtA = wmul(unitAmtA, sub(WAD, slippage));\n        unitAmtB = wdiv(_amtB, uniAmt);\n        unitAmtB = wmul(unitAmtB, sub(WAD, slippage));\n    }\n\n    function _getWithdrawAmts(\n        TokenInterface _tokenA,\n        TokenInterface _tokenB,\n        uint uniAmt\n    ) internal view returns (uint amtA, uint amtB)\n    {\n        IUniswapV2Router02 router = IUniswapV2Router02(getUniswapAddr());\n        address exchangeAddr = IUniswapV2Factory(router.factory()).getPair(address(_tokenA), address(_tokenB));\n        require(exchangeAddr != address(0), \"pair-not-found.\");\n        TokenInterface uniToken = TokenInterface(exchangeAddr);\n        uint share = wdiv(uniAmt, uniToken.totalSupply());\n        amtA = wmul(_tokenA.balanceOf(exchangeAddr), share);\n        amtB = wmul(_tokenB.balanceOf(exchangeAddr), share);\n    }\n\n    function _getExpectedBuyAmtByPath(\n        address[] memory paths,\n        uint sellAmt\n    ) internal view returns(uint buyAmt) {\n        IUniswapV2Router02 router = IUniswapV2Router02(getUniswapAddr());\n\n        if (checkPaths(router, paths)) {\n            uint[] memory amts = router.getAmountsOut(\n                sellAmt,\n                paths\n            );\n            buyAmt = amts[amts.length - 1];\n        } else {\n            buyAmt = 0;\n        }\n    }\n\n    function _getExpectedSellAmtByPath(\n        address[] memory paths,\n        uint buyAmt\n    ) internal view returns(uint sellAmt) {\n        IUniswapV2Router02 router = IUniswapV2Router02(getUniswapAddr());\n\n        if (checkPaths(router, paths)) {\n           uint[] memory amts = router.getAmountsIn(\n                buyAmt,\n                paths\n            );\n            sellAmt = amts[0];\n        } else {\n            sellAmt = uint(-1);\n        }\n    }\n}\n\n\ncontract Resolver is UniswapHelpers {\n\n    function getBuyAmount(address buyAddr, address sellAddr, uint sellAmt, uint slippage)\n    public view returns (uint buyAmt, uint unitAmt)\n    {\n        (TokenInterface _buyAddr, TokenInterface _sellAddr) = changeEthAddress(buyAddr, sellAddr);\n        buyAmt = getExpectedBuyAmt(address(_buyAddr), address(_sellAddr), sellAmt);\n        unitAmt = getBuyUnitAmt(_buyAddr, buyAmt, _sellAddr, sellAmt, slippage);\n    }\n\n    function getSellAmount(address buyAddr, address sellAddr, uint buyAmt, uint slippage)\n    public view returns (uint sellAmt, uint unitAmt)\n    {\n        (TokenInterface _buyAddr, TokenInterface _sellAddr) = changeEthAddress(buyAddr, sellAddr);\n        sellAmt = getExpectedSellAmt(address(_buyAddr), address(_sellAddr), buyAmt);\n        unitAmt = getSellUnitAmt(_sellAddr, sellAmt, _buyAddr, buyAmt, slippage);\n    }\n\n    function getDepositAmount(\n        address tokenA,\n        address tokenB,\n        uint amtA\n    ) public view returns (uint amtB, uint unitAmt)\n    {\n        (TokenInterface _tokenA, TokenInterface _tokenB) = changeEthAddress(tokenA, tokenB);\n        IUniswapV2Router02 router = IUniswapV2Router02(getUniswapAddr());\n        address exchangeAddr = IUniswapV2Factory(router.factory()).getPair(address(_tokenA), address(_tokenB));\n        require(exchangeAddr != address(0), \"pair-not-found.\");\n        uint _amtA18 = convertTo18(_tokenA.decimals(), _tokenA.balanceOf(exchangeAddr));\n        uint _amtB18 = convertTo18(_tokenB.decimals(), _tokenB.balanceOf(exchangeAddr));\n        unitAmt = wdiv(_amtB18, _amtA18);\n        amtB = wmul(unitAmt, convertTo18(_tokenA.decimals(), amtA));\n        amtB = convert18ToDec(_tokenB.decimals(), amtB);\n    }\n\n    function getDepositAmountNewPool(\n        address tokenA,\n        address tokenB,\n        uint amtA,\n        uint amtB\n    ) public view returns (uint unitAmt)\n    {\n        (TokenInterface _tokenA, TokenInterface _tokenB) = changeEthAddress(tokenA, tokenB);\n        IUniswapV2Router02 router = IUniswapV2Router02(getUniswapAddr());\n        address exchangeAddr = IUniswapV2Factory(router.factory()).getPair(address(_tokenA), address(_tokenB));\n        require(exchangeAddr == address(0), \"pair-found.\");\n        uint _amtA18 = convertTo18(_tokenA.decimals(), amtA);\n        uint _amtB18 = convertTo18(_tokenB.decimals(), amtB);\n        unitAmt = wdiv(_amtB18, _amtA18);\n    }\n\n    function getWithdrawAmounts(\n        address tokenA,\n        address tokenB,\n        uint uniAmt,\n        uint slippage\n    ) public view returns (uint amtA, uint amtB, uint unitAmtA, uint unitAmtB)\n    {\n        (TokenInterface _tokenA, TokenInterface _tokenB) = changeEthAddress(tokenA, tokenB);\n        (amtA, amtB) = _getWithdrawAmts(\n            _tokenA,\n            _tokenB,\n            uniAmt\n        );\n        (unitAmtA, unitAmtB) = _getWithdrawUnitAmts(\n            _tokenA,\n            _tokenB,\n            amtA,\n            amtB,\n            uniAmt,\n            slippage\n        );\n    }\n\n    struct TokenPair {\n        address tokenA;\n        address tokenB;\n    }\n\n    struct PoolData {\n        uint tokenAShareAmt;\n        uint tokenBShareAmt;\n        uint uniAmt;\n        uint totalSupply;\n    }\n\n    function getPosition(\n        address owner,\n        TokenPair[] memory tokenPairs\n    ) public view returns (PoolData[] memory)\n    {\n        IUniswapV2Router02 router = IUniswapV2Router02(getUniswapAddr());\n        uint _len = tokenPairs.length;\n        PoolData[] memory poolData = new PoolData[](_len);\n        for (uint i = 0; i < _len; i++) {\n            (TokenInterface tokenA, TokenInterface tokenB) = changeEthAddress(tokenPairs[i].tokenA, tokenPairs[i].tokenB);\n            address exchangeAddr = IUniswapV2Factory(router.factory()).getPair(\n                address(tokenA),\n                address(tokenB)\n            );\n            if (exchangeAddr != address(0)) {\n                TokenInterface uniToken = TokenInterface(exchangeAddr);\n                uint uniAmt = uniToken.balanceOf(owner);\n                uint totalSupply = uniToken.totalSupply();\n                uint share = wdiv(uniAmt, totalSupply);\n                uint amtA = wmul(tokenA.balanceOf(exchangeAddr), share);\n                uint amtB = wmul(tokenB.balanceOf(exchangeAddr), share);\n                poolData[i] = PoolData(\n                    amtA,\n                    amtB,\n                    uniAmt,\n                    totalSupply\n                );\n            }\n        }\n        return poolData;\n    }\n\n    function getOptimalSellPath(\n        address buyAddr,\n        address sellAddr,\n        address[] memory tokens,\n        uint sellAmt,\n        uint slippage\n    ) public view returns (address[] memory paths, uint buyAmt, uint unitAmt)\n    {\n        (TokenInterface _buyAddr, TokenInterface _sellAddr) = changeEthAddress(buyAddr, sellAddr);\n\n        address[] memory _path = new address[](2);\n        _path[0] = address(_sellAddr);\n        _path[1] = address(_buyAddr);\n\n        paths = _path;\n        buyAmt = _getExpectedBuyAmtByPath(_path, sellAmt);\n\n        _path = new address[](3);\n        _path[0] = address(_sellAddr);\n        _path[2] = address(_buyAddr);\n\n        uint i;\n        uint j;\n        uint _buyAmt;\n\n        for(i = 0; i < tokens.length; i++) {\n            _path[1] = tokens[i];\n\n            _buyAmt = _getExpectedBuyAmtByPath(_path, sellAmt);\n\n            if (_buyAmt > buyAmt) {\n                buyAmt = _buyAmt;\n                paths = new address[](3);\n                paths[0] = _path[0];\n                paths[1] = _path[1];\n                paths[2] = _path[2];\n            }\n        }\n\n        _path = new address[](4);\n        _path[0] = address(_sellAddr);\n        _path[3] = address(_buyAddr);\n\n        for(i = 0; i < tokens.length; i++) {\n            for(j = 0; j < tokens.length; j++) {\n                _path[1] = tokens[i];\n                _path[2] = tokens[j];\n\n                _buyAmt = _getExpectedBuyAmtByPath(_path, sellAmt);\n\n                if (_buyAmt > buyAmt) {\n                    buyAmt = _buyAmt;\n                    paths = new address[](4);\n                    paths[0] = _path[0];\n                    paths[1] = _path[1];\n                    paths[2] = _path[2];\n                    paths[3] = _path[3];\n                }\n            }\n        }\n\n        unitAmt = getBuyUnitAmt(_buyAddr, buyAmt, _sellAddr, sellAmt, slippage);\n    }\n\n    function getOptimalBuyPath(\n        address buyAddr,\n        address sellAddr,\n        address[] memory tokens,\n        uint buyAmt,\n        uint slippage\n    ) public view returns (address[] memory paths, uint sellAmt, uint unitAmt)\n    {\n        (TokenInterface _buyAddr, TokenInterface _sellAddr) = changeEthAddress(buyAddr, sellAddr);\n\n        address[] memory _path = new address[](2);\n        _path[0] = address(_sellAddr);\n        _path[1] = address(_buyAddr);\n\n        paths = _path;\n        sellAmt = _getExpectedSellAmtByPath(_path, buyAmt);\n\n        _path = new address[](3);\n        _path[0] = address(_sellAddr);\n        _path[2] = address(_buyAddr);\n\n        uint i;\n        uint j;\n        uint _sellAmt;\n\n        for(i = 0; i < tokens.length; i++) {\n            _path[1] = tokens[i];\n\n            _sellAmt = _getExpectedSellAmtByPath(_path, buyAmt);\n\n            if (_sellAmt < sellAmt) {\n                sellAmt = _sellAmt;\n                paths = new address[](3);\n                paths[0] = _path[0];\n                paths[1] = _path[1];\n                paths[2] = _path[2];\n            }\n        }\n\n        _path = new address[](4);\n        _path[0] = address(_sellAddr);\n        _path[3] = address(_buyAddr);\n\n        for(i = 0; i < tokens.length; i++) {\n            for(j = 0; j < tokens.length; j++) {\n                _path[1] = tokens[i];\n                _path[2] = tokens[j];\n\n                _sellAmt = _getExpectedSellAmtByPath(_path, buyAmt);\n\n                if (_sellAmt < sellAmt) {\n                    sellAmt = _sellAmt;\n                    paths = new address[](4);\n                    paths[0] = _path[0];\n                    paths[1] = _path[1];\n                    paths[2] = _path[2];\n                    paths[3] = _path[3];\n                }\n            }\n        }\n\n        unitAmt = getSellUnitAmt(_sellAddr, sellAmt, _buyAddr, buyAmt, slippage);\n    }\n}\n\n\ncontract InstaUniswapV2Resolver is Resolver {\n    string public constant name = \"UniswapV2-Resolver-v1\";\n}\n\n\n",
  "sourcePath": "/mnt/e/Projects/tests/uni-resolver/contracts/Uniswap.sol",
  "compiler": {
    "name": "solc",
    "version": "0.6.0+commit.26b70077.Emscripten.clang"
  },
  "schemaVersion": "3.2.4",
  "updatedAt": "2020-10-07T04:50:15.895Z",
  "devdoc": {
    "methods": {
      "getEthAddr()": {
        "details": "get Ethereum address"
      }
    }
  },
  "userdoc": {
    "methods": {}
  }
}