{
  "contractName": "Stores",
  "abi": [
    {
      "inputs": [],
      "name": "connectorID",
      "outputs": [
        {
          "internalType": "uint256",
          "name": "model",
          "type": "uint256"
        },
        {
          "internalType": "uint256",
          "name": "id",
          "type": "uint256"
        }
      ],
      "stateMutability": "view",
      "type": "function"
    }
  ],
  "bytecode": "0x6080604052348015600f57600080fd5b50609e8061001e6000396000f3fe6080604052348015600f57600080fd5b506004361060285760003560e01c8063eb15f78114602d575b600080fd5b60336050565b604051808381526020018281526020019250505060405180910390f35b6000806000808191508090508092508193505050909156fea26469706673582212208314ba1d2f16dcfff3d8d21af4f025b7f36bb32c75549994cb50996fadcedd4c64736f6c63430006000033",
  "source": "pragma solidity ^0.6.0;\n\nimport { MemoryInterface, EventInterface} from \"./interfaces.sol\";\n\n\ncontract Stores {\n\n  /**\n   * @dev Return ethereum address\n   */\n  function getEthAddr() internal pure returns (address) {\n    return 0xEeeeeEeeeEeEeeEeEeEeeEEEeeeeEeeeeeeeEEeE; // ETH Address\n  }\n\n  /**\n   * @dev Return memory variable address\n   */\n  function getMemoryAddr() internal pure returns (address) {\n    return 0x8a5419CfC711B2343c17a6ABf4B2bAFaBb06957F; // InstaMemory Address\n  }\n\n  /**\n   * @dev Return InstaEvent Address.\n   */\n  function getEventAddr() internal pure returns (address) {\n    return 0x2af7ea6Cb911035f3eb1ED895Cb6692C39ecbA97; // InstaEvent Address\n  }\n\n  /**\n   * @dev Get Uint value from InstaMemory Contract.\n   */\n  function getUint(uint getId, uint val) internal returns (uint returnVal) {\n    returnVal = getId == 0 ? val : MemoryInterface(getMemoryAddr()).getUint(getId);\n  }\n\n  /**\n  * @dev Set Uint value in InstaMemory Contract.\n  */\n  function setUint(uint setId, uint val) virtual internal {\n    if (setId != 0) MemoryInterface(getMemoryAddr()).setUint(setId, val);\n  }\n\n  /**\n  * @dev emit event on event contract\n  */\n  function emitEvent(bytes32 eventCode, bytes memory eventData) virtual internal {\n    (uint model, uint id) = connectorID();\n    EventInterface(getEventAddr()).emitEvent(model, id, eventCode, eventData);\n  }\n\n  /**\n  * @dev Connector Details - needs to be changed before deployment\n  */\n  function connectorID() public view returns(uint model, uint id) {\n    (model, id) = (0, 0);\n  }\n\n}\n",
  "sourcePath": "/mnt/e/Projects/tests/uni-resolver/contracts/common/stores.sol",
  "compiler": {
    "name": "solc",
    "version": "0.6.0+commit.26b70077.Emscripten.clang"
  },
  "schemaVersion": "3.2.4",
  "updatedAt": "2020-10-05T11:34:58.776Z",
  "devdoc": {
    "methods": {
      "connectorID()": {
        "details": "Connector Details - needs to be changed before deployment"
      }
    }
  },
  "userdoc": {
    "methods": {}
  }
}