{
  "contractName": "UniswapLiquidity",
  "abi": [
    {
      "anonymous": false,
      "inputs": [
        {
          "indexed": true,
          "internalType": "address",
          "name": "tokenA",
          "type": "address"
        },
        {
          "indexed": true,
          "internalType": "address",
          "name": "tokenB",
          "type": "address"
        },
        {
          "indexed": false,
          "internalType": "uint256",
          "name": "amtA",
          "type": "uint256"
        },
        {
          "indexed": false,
          "internalType": "uint256",
          "name": "amtB",
          "type": "uint256"
        },
        {
          "indexed": false,
          "internalType": "uint256",
          "name": "uniAmount",
          "type": "uint256"
        },
        {
          "indexed": false,
          "internalType": "uint256",
          "name": "getId",
          "type": "uint256"
        },
        {
          "indexed": false,
          "internalType": "uint256",
          "name": "setId",
          "type": "uint256"
        }
      ],
      "name": "LogDepositLiquidity",
      "type": "event"
    },
    {
      "anonymous": false,
      "inputs": [
        {
          "indexed": true,
          "internalType": "address",
          "name": "tokenA",
          "type": "address"
        },
        {
          "indexed": true,
          "internalType": "address",
          "name": "tokenB",
          "type": "address"
        },
        {
          "indexed": false,
          "internalType": "uint256",
          "name": "amountA",
          "type": "uint256"
        },
        {
          "indexed": false,
          "internalType": "uint256",
          "name": "amountB",
          "type": "uint256"
        },
        {
          "indexed": false,
          "internalType": "uint256",
          "name": "uniAmount",
          "type": "uint256"
        },
        {
          "indexed": false,
          "internalType": "uint256",
          "name": "getId",
          "type": "uint256"
        },
        {
          "indexed": false,
          "internalType": "uint256[]",
          "name": "setId",
          "type": "uint256[]"
        }
      ],
      "name": "LogWithdrawLiquidity",
      "type": "event"
    },
    {
      "inputs": [],
      "name": "connectorID",
      "outputs": [
        {
          "internalType": "uint256",
          "name": "model",
          "type": "uint256"
        },
        {
          "internalType": "uint256",
          "name": "id",
          "type": "uint256"
        }
      ],
      "stateMutability": "view",
      "type": "function"
    },
    {
      "inputs": [
        {
          "internalType": "address",
          "name": "tokenA",
          "type": "address"
        },
        {
          "internalType": "address",
          "name": "tokenB",
          "type": "address"
        },
        {
          "internalType": "uint256",
          "name": "amtA",
          "type": "uint256"
        },
        {
          "internalType": "uint256",
          "name": "unitAmt",
          "type": "uint256"
        },
        {
          "internalType": "uint256",
          "name": "slippage",
          "type": "uint256"
        },
        {
          "internalType": "uint256",
          "name": "getId",
          "type": "uint256"
        },
        {
          "internalType": "uint256",
          "name": "setId",
          "type": "uint256"
        }
      ],
      "name": "deposit",
      "outputs": [],
      "stateMutability": "payable",
      "type": "function"
    },
    {
      "inputs": [
        {
          "internalType": "address",
          "name": "tokenA",
          "type": "address"
        },
        {
          "internalType": "address",
          "name": "tokenB",
          "type": "address"
        },
        {
          "internalType": "uint256",
          "name": "uniAmt",
          "type": "uint256"
        },
        {
          "internalType": "uint256",
          "name": "unitAmtA",
          "type": "uint256"
        },
        {
          "internalType": "uint256",
          "name": "unitAmtB",
          "type": "uint256"
        },
        {
          "internalType": "uint256",
          "name": "getId",
          "type": "uint256"
        },
        {
          "internalType": "uint256[]",
          "name": "setIds",
          "type": "uint256[]"
        }
      ],
      "name": "withdraw",
      "outputs": [],
      "stateMutability": "payable",
      "type": "function"
    }
  ],
  "bytecode": "0x608060405234801561001057600080fd5b50611c87806100206000396000f3fe6080604052600436106100345760003560e01c80636b241fa814610039578063c7807868146100cf578063eb15f781146101b0575b600080fd5b6100cd600480360360e081101561004f57600080fd5b81019080803573ffffffffffffffffffffffffffffffffffffffff169060200190929190803573ffffffffffffffffffffffffffffffffffffffff16906020019092919080359060200190929190803590602001909291908035906020019092919080359060200190929190803590602001909291905050506101e2565b005b6101ae600480360360e08110156100e557600080fd5b81019080803573ffffffffffffffffffffffffffffffffffffffff169060200190929190803573ffffffffffffffffffffffffffffffffffffffff169060200190929190803590602001909291908035906020019092919080359060200190929190803590602001909291908035906020019064010000000081111561016a57600080fd5b82018360208201111561017c57600080fd5b8035906020019184602083028401116401000000008311171561019e57600080fd5b909192939192939050505061022e565b005b3480156101bc57600080fd5b506101c56102ec565b604051808381526020018281526020019250505060405180910390f35b60006101ee8387610304565b905060008060006102028b8b868b8b6103b1565b9250925092506102128582610816565b6102218b8b8585858b8b61089d565b5050505050505050505050565b600061023a8488610304565b9050600080600061024e8c8c868c8c610a00565b9250925092506102718686600081811061026457fe5b9050602002013584610816565b61028e8686600181811061028157fe5b9050602002013583610816565b6102de8c8c8585858c8c8c80806020026020016040519081016040528093929190818152602001838360200280828437600081840152601f19601f82011690508083019250505050505050610ccc565b505050505050505050505050565b60008060008081915080905080925081935050509091565b60008083146103a757610315610eb1565b73ffffffffffffffffffffffffffffffffffffffff1663a9c70eaa846040518263ffffffff1660e01b815260040180828152602001915050602060405180830381600087803b15801561036757600080fd5b505af115801561037b573d6000803e3d6000fd5b505050506040513d602081101561039157600080fd5b81019080805190602001909291905050506103a9565b815b905092915050565b6000806000806103bf610ecd565b90506000806103ce8b8b610ee9565b915091507fffffffffffffffffffffffffffffffffffffffffffffffffffffffffffffffff89146103ff5788610409565b6104088b610f89565b5b95506105278173ffffffffffffffffffffffffffffffffffffffff1663313ce5676040518163ffffffff1660e01b815260040160206040518083038186803b15801561045457600080fd5b505afa158015610468573d6000803e3d6000fd5b505050506040513d602081101561047e57600080fd5b81019080805190602001909291905050506105228a61051d8673ffffffffffffffffffffffffffffffffffffffff1663313ce5676040518163ffffffff1660e01b815260040160206040518083038186803b1580156104dc57600080fd5b505afa1580156104f0573d6000803e3d6000fd5b505050506040513d602081101561050657600080fd5b81019080805190602001909291905050508b61108b565b6110a5565b6110e5565b945061053382876110ff565b61053d81866110ff565b8173ffffffffffffffffffffffffffffffffffffffff1663095ea7b384886040518363ffffffff1660e01b8152600401808373ffffffffffffffffffffffffffffffffffffffff1673ffffffffffffffffffffffffffffffffffffffff16815260200182815260200192505050600060405180830381600087803b1580156105c457600080fd5b505af11580156105d8573d6000803e3d6000fd5b505050508073ffffffffffffffffffffffffffffffffffffffff1663095ea7b384876040518363ffffffff1660e01b8152600401808373ffffffffffffffffffffffffffffffffffffffff1673ffffffffffffffffffffffffffffffffffffffff16815260200182815260200192505050600060405180830381600087803b15801561066357600080fd5b505af1158015610677573d6000803e3d6000fd5b50505050600061068883888a6111a0565b9050600061069783888b6111a0565b90508473ffffffffffffffffffffffffffffffffffffffff1663e8e3370085858b8b878730600142016040518963ffffffff1660e01b8152600401808973ffffffffffffffffffffffffffffffffffffffff1673ffffffffffffffffffffffffffffffffffffffff1681526020018873ffffffffffffffffffffffffffffffffffffffff1673ffffffffffffffffffffffffffffffffffffffff1681526020018781526020018681526020018581526020018481526020018373ffffffffffffffffffffffffffffffffffffffff1673ffffffffffffffffffffffffffffffffffffffff16815260200182815260200198505050505050505050606060405180830381600087803b1580156107ab57600080fd5b505af11580156107bf573d6000803e3d6000fd5b505050506040513d60608110156107d557600080fd5b81019080805190602001909291908051906020019092919080519060200190929190505050809850819950829a505050505050505050955095509592505050565b6000821461089957610826610eb1565b73ffffffffffffffffffffffffffffffffffffffff166361e3c94483836040518363ffffffff1660e01b81526004018083815260200182815260200192505050600060405180830381600087803b15801561088057600080fd5b505af1158015610894573d6000803e3d6000fd5b505050505b5050565b8573ffffffffffffffffffffffffffffffffffffffff168773ffffffffffffffffffffffffffffffffffffffff167fba5875b1622ee24abec441790d0a45a95a69d27df30fd2916593326656d237bb8787878787604051808681526020018581526020018481526020018381526020018281526020019550505050505060405180910390a360006040518080611c06604c9139604c01905060405180910390209050606088888888888888604051602001808873ffffffffffffffffffffffffffffffffffffffff1673ffffffffffffffffffffffffffffffffffffffff1681526020018773ffffffffffffffffffffffffffffffffffffffff1673ffffffffffffffffffffffffffffffffffffffff16815260200186815260200185815260200184815260200183815260200182815260200197505050505050505060405160208183030381529060405290506109f582826112e0565b505050505050505050565b600080600080600080610a148b8b8b6113e4565b809750819450829550839650505050506000610ab98373ffffffffffffffffffffffffffffffffffffffff1663313ce5676040518163ffffffff1660e01b815260040160206040518083038186803b158015610a6f57600080fd5b505afa158015610a83573d6000803e3d6000fd5b505050506040513d6020811015610a9957600080fd5b8101908080519060200190929190505050610ab48b886110a5565b6110e5565b90506000610b508373ffffffffffffffffffffffffffffffffffffffff1663313ce5676040518163ffffffff1660e01b815260040160206040518083038186803b158015610b0657600080fd5b505afa158015610b1a573d6000803e3d6000fd5b505050506040513d6020811015610b3057600080fd5b8101908080519060200190929190505050610b4b8b896110a5565b6110e5565b90508473ffffffffffffffffffffffffffffffffffffffff1663baa2abde858589868630600142016040518863ffffffff1660e01b8152600401808873ffffffffffffffffffffffffffffffffffffffff1673ffffffffffffffffffffffffffffffffffffffff1681526020018773ffffffffffffffffffffffffffffffffffffffff1673ffffffffffffffffffffffffffffffffffffffff1681526020018681526020018581526020018481526020018373ffffffffffffffffffffffffffffffffffffffff1673ffffffffffffffffffffffffffffffffffffffff1681526020018281526020019750505050505050506040805180830381600087803b158015610c5b57600080fd5b505af1158015610c6f573d6000803e3d6000fd5b505050506040513d6040811015610c8557600080fd5b81019080805190602001909291908051906020019092919050505080985081995050505050610cb482876117b0565b610cbe81866117b0565b505050955095509592505050565b8573ffffffffffffffffffffffffffffffffffffffff168773ffffffffffffffffffffffffffffffffffffffff167f43f0c8ec69d4b420508325850527c82aaa490daf01006b263b7e034035a2345987878787876040518086815260200185815260200184815260200183815260200180602001828103825283818151815260200191508051906020019060200280838360005b83811015610d7b578082015181840152602081019050610d60565b50505050905001965050505050505060405180910390a360006040518080611b96604f9139604f01905060405180910390209050606088888888888888604051602001808873ffffffffffffffffffffffffffffffffffffffff1673ffffffffffffffffffffffffffffffffffffffff1681526020018773ffffffffffffffffffffffffffffffffffffffff1673ffffffffffffffffffffffffffffffffffffffff16815260200186815260200185815260200184815260200183815260200180602001828103825283818151815260200191508051906020019060200280838360005b83811015610e7a578082015181840152602081019050610e5f565b50505050905001985050505050505050506040516020818303038152906040529050610ea682826112e0565b505050505050505050565b6000738a5419cfc711b2343c17a6abf4b2bafabb06957f905090565b6000737a250d5630b4cf539739df2c5dacb4c659f2488d905090565b600080610ef4611901565b73ffffffffffffffffffffffffffffffffffffffff168473ffffffffffffffffffffffffffffffffffffffff1614610f2c5783610f35565b610f3461191d565b5b9150610f3f611901565b73ffffffffffffffffffffffffffffffffffffffff168373ffffffffffffffffffffffffffffffffffffffff1614610f775782610f80565b610f7f61191d565b5b90509250929050565b6000610f93611901565b73ffffffffffffffffffffffffffffffffffffffff168273ffffffffffffffffffffffffffffffffffffffff1614611082578173ffffffffffffffffffffffffffffffffffffffff166370a08231306040518263ffffffff1660e01b8152600401808273ffffffffffffffffffffffffffffffffffffffff1673ffffffffffffffffffffffffffffffffffffffff16815260200191505060206040518083038186803b15801561104257600080fd5b505afa158015611056573d6000803e3d6000fd5b505050506040513d602081101561106c57600080fd5b8101908080519060200190929190505050611084565b475b9050919050565b600061109d8284601203600a0a611939565b905092915050565b6000670de0b6b3a76400006110d56110bd858561194d565b6002670de0b6b3a7640000816110cf57fe5b046119d3565b816110dc57fe5b04905092915050565b600082601203600a0a82816110f657fe5b04905092915050565b61110761191d565b73ffffffffffffffffffffffffffffffffffffffff168273ffffffffffffffffffffffffffffffffffffffff16141561119c578173ffffffffffffffffffffffffffffffffffffffff1663d0e30db0826040518263ffffffff1660e01b81526004016000604051808303818588803b15801561118257600080fd5b505af1158015611196573d6000803e3d6000fd5b50505050505b5050565b60008061122d8573ffffffffffffffffffffffffffffffffffffffff1663313ce5676040518163ffffffff1660e01b815260040160206040518083038186803b1580156111ec57600080fd5b505afa158015611200573d6000803e3d6000fd5b505050506040513d602081101561121657600080fd5b81019080805190602001909291905050508561108b565b905061124a81611245670de0b6b3a764000086611a5b565b6110a5565b91506112d68573ffffffffffffffffffffffffffffffffffffffff1663313ce5676040518163ffffffff1660e01b815260040160206040518083038186803b15801561129557600080fd5b505afa1580156112a9573d6000803e3d6000fd5b505050506040513d60208110156112bf57600080fd5b8101908080519060200190929190505050836110e5565b9150509392505050565b6000806112eb6102ec565b915091506112f7611a6f565b73ffffffffffffffffffffffffffffffffffffffff1663e14d4fb1838387876040518563ffffffff1660e01b81526004018085815260200184815260200183815260200180602001828103825283818151815260200191508051906020019080838360005b8381101561137757808201518184015260208101905061135c565b50505050905090810190601f1680156113a45780820380516001836020036101000a031916815260200191505b5095505050505050600060405180830381600087803b1580156113c657600080fd5b505af11580156113da573d6000803e3d6000fd5b5050505050505050565b6000806000806113f2610ecd565b93506113fe8787610ee9565b809350819450505060008473ffffffffffffffffffffffffffffffffffffffff1663c45a01556040518163ffffffff1660e01b815260040160206040518083038186803b15801561144e57600080fd5b505afa158015611462573d6000803e3d6000fd5b505050506040513d602081101561147857600080fd5b810190808051906020019092919050505073ffffffffffffffffffffffffffffffffffffffff1663e6a4390585856040518363ffffffff1660e01b8152600401808373ffffffffffffffffffffffffffffffffffffffff1673ffffffffffffffffffffffffffffffffffffffff1681526020018273ffffffffffffffffffffffffffffffffffffffff1673ffffffffffffffffffffffffffffffffffffffff1681526020019250505060206040518083038186803b15801561153957600080fd5b505afa15801561154d573d6000803e3d6000fd5b505050506040513d602081101561156357600080fd5b81019080805190602001909291905050509050600073ffffffffffffffffffffffffffffffffffffffff168173ffffffffffffffffffffffffffffffffffffffff161415611619576040517f08c379a000000000000000000000000000000000000000000000000000000000815260040180806020018281038252600f8152602001807f706169722d6e6f742d666f756e642e000000000000000000000000000000000081525060200191505060405180910390fd5b60008190507fffffffffffffffffffffffffffffffffffffffffffffffffffffffffffffffff871461164b5786611704565b8073ffffffffffffffffffffffffffffffffffffffff166370a08231306040518263ffffffff1660e01b8152600401808273ffffffffffffffffffffffffffffffffffffffff1673ffffffffffffffffffffffffffffffffffffffff16815260200191505060206040518083038186803b1580156116c857600080fd5b505afa1580156116dc573d6000803e3d6000fd5b505050506040513d60208110156116f257600080fd5b81019080805190602001909291905050505b92508073ffffffffffffffffffffffffffffffffffffffff1663095ea7b387856040518363ffffffff1660e01b8152600401808373ffffffffffffffffffffffffffffffffffffffff1673ffffffffffffffffffffffffffffffffffffffff16815260200182815260200192505050600060405180830381600087803b15801561178d57600080fd5b505af11580156117a1573d6000803e3d6000fd5b50505050505093509350935093565b6117b861191d565b73ffffffffffffffffffffffffffffffffffffffff168273ffffffffffffffffffffffffffffffffffffffff1614156118fd578173ffffffffffffffffffffffffffffffffffffffff1663095ea7b361180f61191d565b836040518363ffffffff1660e01b8152600401808373ffffffffffffffffffffffffffffffffffffffff1673ffffffffffffffffffffffffffffffffffffffff16815260200182815260200192505050600060405180830381600087803b15801561187957600080fd5b505af115801561188d573d6000803e3d6000fd5b505050508173ffffffffffffffffffffffffffffffffffffffff16632e1a7d4d826040518263ffffffff1660e01b815260040180828152602001915050600060405180830381600087803b1580156118e457600080fd5b505af11580156118f8573d6000803e3d6000fd5b505050505b5050565b600073eeeeeeeeeeeeeeeeeeeeeeeeeeeeeeeeeeeeeeee905090565b600073c778417e063141139fce010982780140aa0cd5ab905090565b6000611945838361194d565b905092915050565b60008083141561196057600090506119cd565b600082840290508284828161197157fe5b04146119c8576040517f08c379a0000000000000000000000000000000000000000000000000000000008152600401808060200182810382526021815260200180611be56021913960400191505060405180910390fd5b809150505b92915050565b600080828401905083811015611a51576040517f08c379a000000000000000000000000000000000000000000000000000000000815260040180806020018281038252601b8152602001807f536166654d6174683a206164646974696f6e206f766572666c6f77000000000081525060200191505060405180910390fd5b8091505092915050565b6000611a678383611a8b565b905092915050565b6000732af7ea6cb911035f3eb1ed895cb6692c39ecba97905090565b6000611acd83836040518060400160405280601e81526020017f536166654d6174683a207375627472616374696f6e206f766572666c6f770000815250611ad5565b905092915050565b6000838311158290611b82576040517f08c379a00000000000000000000000000000000000000000000000000000000081526004018080602001828103825283818151815260200191508051906020019080838360005b83811015611b47578082015181840152602081019050611b2c565b50505050905090810190601f168015611b745780820380516001836020036101000a031916815260200191505b509250505060405180910390fd5b506000838503905080915050939250505056fe4c6f6757697468647261774c697175696469747928616464726573732c616464726573732c75696e743235362c75696e743235362c75696e743235362c75696e743235362c75696e743235365b5d29536166654d6174683a206d756c7469706c69636174696f6e206f766572666c6f774c6f674465706f7369744c697175696469747928616464726573732c616464726573732c75696e743235362c75696e743235362c75696e743235362c75696e743235362c75696e7432353629a2646970667358221220550cfafaee92bc3b700c1eab4dd8ecdfb723c40ebc471835c66fc0c0ca4e6be364736f6c63430006000033",
  "source": "pragma solidity ^0.6.0;\r\n\r\n// import files from common directory\r\nimport { TokenInterface , MemoryInterface, EventInterface} from \"./common/interfaces.sol\";\r\nimport { Stores } from \"./common/stores.sol\";\r\nimport { DSMath } from \"./common/math.sol\";\r\n\r\ninterface IUniswapV2Router02 {\r\n    function factory() external pure returns (address);\r\n    function WETH() external pure returns (address);\r\n\r\n    function addLiquidity(\r\n        address tokenA,\r\n        address tokenB,\r\n        uint amountADesired,\r\n        uint amountBDesired,\r\n        uint amountAMin,\r\n        uint amountBMin,\r\n        address to,\r\n        uint deadline\r\n    ) external returns (uint amountA, uint amountB, uint liquidity);\r\n    function removeLiquidity(\r\n        address tokenA,\r\n        address tokenB,\r\n        uint liquidity,\r\n        uint amountAMin,\r\n        uint amountBMin,\r\n        address to,\r\n        uint deadline\r\n    ) external returns (uint amountA, uint amountB);\r\n    function swapExactTokensForTokens(\r\n        uint amountIn,\r\n        uint amountOutMin,\r\n        address[] calldata path,\r\n        address to,\r\n        uint deadline\r\n    ) external returns (uint[] memory amounts);\r\n    function swapTokensForExactTokens(\r\n        uint amountOut,\r\n        uint amountInMax,\r\n        address[] calldata path,\r\n        address to,\r\n        uint deadline\r\n    ) external returns (uint[] memory amounts);\r\n\r\n    function quote(uint amountA, uint reserveA, uint reserveB) external pure returns (uint amountB);\r\n    function getAmountOut(uint amountIn, uint reserveIn, uint reserveOut) external pure returns (uint amountOut);\r\n    function getAmountIn(uint amountOut, uint reserveIn, uint reserveOut) external pure returns (uint amountIn);\r\n    function getAmountsOut(uint amountIn, address[] calldata path) external view returns (uint[] memory amounts);\r\n    function getAmountsIn(uint amountOut, address[] calldata path) external view returns (uint[] memory amounts);\r\n}\r\n\r\ninterface IUniswapV2Factory {\r\n  function getPair(address tokenA, address tokenB) external view returns (address pair);\r\n  function allPairs(uint) external view returns (address pair);\r\n  function allPairsLength() external view returns (uint);\r\n\r\n  function feeTo() external view returns (address);\r\n  function feeToSetter() external view returns (address);\r\n\r\n  function createPair(address tokenA, address tokenB) external returns (address pair);\r\n}\r\n\r\ncontract UniswapHelpers is Stores, DSMath {\r\n    /**\r\n     * @dev Return WETH address\r\n     */\r\n    function getAddressWETH() internal pure returns (address) {\r\n        return 0xc778417E063141139Fce010982780140Aa0cD5Ab;\r\n    }\r\n\r\n    /**\r\n     * @dev Return uniswap v2 router02 Address\r\n     */\r\n    function getUniswapAddr() internal pure returns (address) {\r\n        return 0x7a250d5630B4cF539739dF2C5dAcb4c659F2488D;\r\n    }\r\n\r\n    function convert18ToDec(uint _dec, uint256 _amt) internal pure returns (uint256 amt) {\r\n        amt = (_amt / 10 ** (18 - _dec));\r\n    }\r\n\r\n    function convertTo18(uint _dec, uint256 _amt) internal pure returns (uint256 amt) {\r\n        amt = mul(_amt, 10 ** (18 - _dec));\r\n    }\r\n\r\n    function getTokenBalace(address token) internal view returns (uint256 amt) {\r\n        amt = token == getEthAddr() ? address(this).balance : TokenInterface(token).balanceOf(address(this));\r\n    }\r\n\r\n    function changeEthAddress(address buy, address sell) internal pure returns(TokenInterface _buy, TokenInterface _sell){\r\n        _buy = buy == getEthAddr() ? TokenInterface(getAddressWETH()) : TokenInterface(buy);\r\n        _sell = sell == getEthAddr() ? TokenInterface(getAddressWETH()) : TokenInterface(sell);\r\n    }\r\n\r\n    function convertEthToWeth(TokenInterface token, uint amount) internal {\r\n        if(address(token) == getAddressWETH()) token.deposit.value(amount)();\r\n    }\r\n\r\n    function convertWethToEth(TokenInterface token, uint amount) internal {\r\n       if(address(token) == getAddressWETH()) {\r\n            token.approve(getAddressWETH(), amount);\r\n            token.withdraw(amount);\r\n        }\r\n    }\r\n\r\n    function getExpectedBuyAmt(\r\n        IUniswapV2Router02 router,\r\n        address[] memory paths,\r\n        uint sellAmt\r\n    ) internal view returns(uint buyAmt) {\r\n        uint[] memory amts = router.getAmountsOut(\r\n            sellAmt,\r\n            paths\r\n        );\r\n        buyAmt = amts[1];\r\n    }\r\n\r\n    function getExpectedSellAmt(\r\n        IUniswapV2Router02 router,\r\n        address[] memory paths,\r\n        uint buyAmt\r\n    ) internal view returns(uint sellAmt) {\r\n        uint[] memory amts = router.getAmountsIn(\r\n            buyAmt,\r\n            paths\r\n        );\r\n        sellAmt = amts[0];\r\n    }\r\n\r\n    function checkPair(\r\n        IUniswapV2Router02 router,\r\n        address[] memory paths\r\n    ) internal view {\r\n        address pair = IUniswapV2Factory(router.factory()).getPair(paths[0], paths[1]);\r\n        require(pair != address(0), \"No-exchange-address\");\r\n    }\r\n\r\n    function checkPaths(\r\n        IUniswapV2Router02 router,\r\n        address[] memory paths\r\n    ) internal view {\r\n        for (uint i; i < paths.length - 1; i++) {\r\n            require(paths[i] != paths[i + 1], \"Wrong-path\");\r\n            address pair = IUniswapV2Factory(router.factory()).getPair(paths[i], paths[i + 1]);\r\n            require(pair != address(0), \"No-exchange-address\");\r\n        }\r\n    }\r\n\r\n    function getPaths(\r\n        address buyAddr,\r\n        address sellAddr\r\n    ) internal pure returns(address[] memory paths) {\r\n        paths = new address[](2);\r\n        paths[0] = address(sellAddr);\r\n        paths[1] = address(buyAddr);\r\n    }\r\n}\r\n\r\ncontract LiquidityHelpers is UniswapHelpers {\r\n\r\n    function getMinAmount(\r\n        TokenInterface token,\r\n        uint amt,\r\n        uint slippage\r\n    ) internal view returns(uint minAmt) {\r\n        uint _amt18 = convertTo18(token.decimals(), amt);\r\n        minAmt = wmul(_amt18, sub(WAD, slippage));\r\n        minAmt = convert18ToDec(token.decimals(), minAmt);\r\n    }\r\n\r\n    function changeEthToWeth(\r\n        address[] memory tokens\r\n    ) internal pure returns(TokenInterface[] memory _tokens) {\r\n        _tokens = new TokenInterface[](2);\r\n        _tokens[0] = tokens[0] == getEthAddr() ? TokenInterface(getAddressWETH()) : TokenInterface(tokens[0]);\r\n        _tokens[1] = tokens[1] == getEthAddr() ? TokenInterface(getAddressWETH()) : TokenInterface(tokens[1]);\r\n    }\r\n\r\n    function _addLiquidity(\r\n        address tokenA,\r\n        address tokenB,\r\n        uint _amt,\r\n        uint unitAmt,\r\n        uint slippage\r\n    ) internal returns (uint _amtA, uint _amtB, uint _liquidity) {\r\n        IUniswapV2Router02 router = IUniswapV2Router02(getUniswapAddr());\r\n        (TokenInterface _tokenA, TokenInterface _tokenB) = changeEthAddress(tokenA, tokenB);\r\n\r\n        _amtA = _amt == uint(-1) ? getTokenBalace(tokenA) : _amt;\r\n        _amtB = convert18ToDec(_tokenB.decimals(), wmul(unitAmt, convertTo18(_tokenA.decimals(), _amtA)));\r\n\r\n        convertEthToWeth(_tokenA, _amtA);\r\n        convertEthToWeth(_tokenB, _amtB);\r\n        _tokenA.approve(address(router), _amtA);\r\n        _tokenB.approve(address(router), _amtB);\r\n\r\n       uint minAmtA = getMinAmount(_tokenA, _amtA, slippage);\r\n        uint minAmtB = getMinAmount(_tokenB, _amtB, slippage);\r\n       (_amtA, _amtB, _liquidity) = router.addLiquidity(\r\n            address(_tokenA),\r\n            address(_tokenB),\r\n            _amtA,\r\n            _amtB,\r\n            minAmtA,\r\n            minAmtB,\r\n            address(this),\r\n            now + 1\r\n        );\r\n    }\r\n\r\n    function _removeLiquidity(\r\n        address tokenA,\r\n        address tokenB,\r\n        uint _amt,\r\n        uint unitAmtA,\r\n        uint unitAmtB\r\n    ) internal returns (uint _amtA, uint _amtB, uint _uniAmt) {\r\n        IUniswapV2Router02 router;\r\n        TokenInterface _tokenA;\r\n        TokenInterface _tokenB;\r\n        (router, _tokenA, _tokenB, _uniAmt) = _getRemoveLiquidityData(\r\n            tokenA,\r\n            tokenB,\r\n            _amt\r\n        );\r\n        {\r\n        uint minAmtA = convert18ToDec(_tokenA.decimals(), wmul(unitAmtA, _uniAmt));\r\n        uint minAmtB = convert18ToDec(_tokenB.decimals(), wmul(unitAmtB, _uniAmt));\r\n        (_amtA, _amtB) = router.removeLiquidity(\r\n            address(_tokenA),\r\n            address(_tokenB),\r\n            _uniAmt,\r\n            minAmtA,\r\n            minAmtB,\r\n            address(this),\r\n            now + 1\r\n        );\r\n        }\r\n        convertWethToEth(_tokenA, _amtA);\r\n        convertWethToEth(_tokenB, _amtB);\r\n    }\r\n\r\n    function _getRemoveLiquidityData(\r\n        address tokenA,\r\n        address tokenB,\r\n        uint _amt\r\n    ) internal returns (IUniswapV2Router02 router, TokenInterface _tokenA, TokenInterface _tokenB, uint _uniAmt) {\r\n        router = IUniswapV2Router02(getUniswapAddr());\r\n        (_tokenA, _tokenB) = changeEthAddress(tokenA, tokenB);\r\n        address exchangeAddr = IUniswapV2Factory(router.factory()).getPair(address(_tokenA), address(_tokenB));\r\n        require(exchangeAddr != address(0), \"pair-not-found.\");\r\n\r\n        TokenInterface uniToken = TokenInterface(exchangeAddr);\r\n        _uniAmt = _amt == uint(-1) ? uniToken.balanceOf(address(this)) : _amt;\r\n        uniToken.approve(address(router), _uniAmt);\r\n    }\r\n}\r\n\r\ncontract UniswapLiquidity is LiquidityHelpers {\r\n    event LogDepositLiquidity(\r\n        address indexed tokenA,\r\n        address indexed tokenB,\r\n        uint amtA,\r\n        uint amtB,\r\n        uint uniAmount,\r\n        uint getId,\r\n        uint setId\r\n    );\r\n\r\n    event LogWithdrawLiquidity(\r\n        address indexed tokenA,\r\n        address indexed tokenB,\r\n        uint amountA,\r\n        uint amountB,\r\n        uint uniAmount,\r\n        uint getId,\r\n        uint[] setId\r\n    );\r\n\r\n    function emitDeposit(\r\n        address tokenA,\r\n        address tokenB,\r\n        uint _amtA,\r\n        uint _amtB,\r\n        uint _uniAmt,\r\n        uint getId,\r\n        uint setId\r\n    ) internal {\r\n        emit LogDepositLiquidity(\r\n            tokenA,\r\n            tokenB,\r\n            _amtA,\r\n            _amtB,\r\n            _uniAmt,\r\n            getId,\r\n            setId\r\n        );\r\n\r\n        bytes32 _eventCode = keccak256(\"LogDepositLiquidity(address,address,uint256,uint256,uint256,uint256,uint256)\");\r\n        bytes memory _eventParam = abi.encode(\r\n            tokenA,\r\n            tokenB,\r\n            _amtA,\r\n            _amtB,\r\n            _uniAmt,\r\n            getId,\r\n            setId\r\n        );\r\n        emitEvent(_eventCode, _eventParam);\r\n    }\r\n\r\n    function emitWithdraw(\r\n        address tokenA,\r\n        address tokenB,\r\n        uint _amtA,\r\n        uint _amtB,\r\n        uint _uniAmt,\r\n        uint getId,\r\n        uint[] memory setIds\r\n    ) internal {\r\n        emit LogWithdrawLiquidity(\r\n            tokenA,\r\n            tokenB,\r\n            _amtA,\r\n            _amtB,\r\n            _uniAmt,\r\n            getId,\r\n            setIds\r\n        );\r\n        bytes32 _eventCode = keccak256(\"LogWithdrawLiquidity(address,address,uint256,uint256,uint256,uint256,uint256[])\");\r\n        bytes memory _eventParam = abi.encode(\r\n            tokenA,\r\n            tokenB,\r\n            _amtA,\r\n            _amtB,\r\n            _uniAmt,\r\n            getId,\r\n            setIds\r\n        );\r\n        emitEvent(_eventCode, _eventParam);\r\n    }\r\n\r\n    /**\r\n     * @dev Deposit Liquidity.\r\n     * @param tokenA tokenA address.(For ETH: 0xEeeeeEeeeEeEeeEeEeEeeEEEeeeeEeeeeeeeEEeE)\r\n     * @param tokenB tokenB address.(For ETH: 0xEeeeeEeeeEeEeeEeEeEeeEEEeeeeEeeeeeeeEEeE)\r\n     * @param amtA tokenA amount.\r\n     * @param unitAmt unit amount of amtB/amtA with slippage.\r\n     * @param slippage slippage amount.\r\n     * @param getId Get token amount at this ID from `InstaMemory` Contract.\r\n     * @param setId Set token amount at this ID in `InstaMemory` Contract.\r\n    */\r\n    function deposit(\r\n        address tokenA,\r\n        address tokenB,\r\n        uint amtA,\r\n        uint unitAmt,\r\n        uint slippage,\r\n        uint getId,\r\n        uint setId\r\n    ) external payable {\r\n        uint _amt = getUint(getId, amtA);\r\n\r\n        (uint _amtA, uint _amtB, uint _uniAmt) = _addLiquidity(\r\n                                            tokenA,\r\n                                            tokenB,\r\n                                            _amt,\r\n                                            unitAmt,\r\n                                            slippage\r\n                                            );\r\n        setUint(setId, _uniAmt);\r\n        emitDeposit(tokenA, tokenB, _amtA, _amtB, _uniAmt, getId, setId);\r\n    }\r\n\r\n    /**\r\n     * @dev Withdraw Liquidity.\r\n     * @param tokenA tokenA address.(For ETH: 0xEeeeeEeeeEeEeeEeEeEeeEEEeeeeEeeeeeeeEEeE)\r\n     * @param tokenB tokenB address.(For ETH: 0xEeeeeEeeeEeEeeEeEeEeeEEEeeeeEeeeeeeeEEeE)\r\n     * @param uniAmt uni token amount.\r\n     * @param unitAmtA unit amount of amtA/uniAmt with slippage.\r\n     * @param unitAmtB unit amount of amtB/uniAmt with slippage.\r\n     * @param getId Get token amount at this ID from `InstaMemory` Contract.\r\n     * @param setIds Set token amounts at this IDs in `InstaMemory` Contract.\r\n    */\r\n    function withdraw(\r\n        address tokenA,\r\n        address tokenB,\r\n        uint uniAmt,\r\n        uint unitAmtA,\r\n        uint unitAmtB,\r\n        uint getId,\r\n        uint[] calldata setIds\r\n    ) external payable {\r\n        uint _amt = getUint(getId, uniAmt);\r\n\r\n        (uint _amtA, uint _amtB, uint _uniAmt) = _removeLiquidity(\r\n            tokenA,\r\n            tokenB,\r\n            _amt,\r\n            unitAmtA,\r\n            unitAmtB\r\n        );\r\n\r\n        setUint(setIds[0], _amtA);\r\n        setUint(setIds[1], _amtB);\r\n        emitWithdraw(tokenA, tokenB, _amtA, _amtB, _uniAmt, getId, setIds);\r\n    }\r\n}\r\n\r\ncontract UniswapResolver is UniswapLiquidity {\r\n    event LogBuy(\r\n        address indexed buyToken,\r\n        address indexed sellToken,\r\n        uint256 buyAmt,\r\n        uint256 sellAmt,\r\n        uint256 getId,\r\n        uint256 setId\r\n    );\r\n\r\n    event LogSell(\r\n        address indexed buyToken,\r\n        address indexed sellToken,\r\n        uint256 buyAmt,\r\n        uint256 sellAmt,\r\n        uint256 getId,\r\n        uint256 setId\r\n    );\r\n\r\n    /**\r\n     * @dev Buy ETH/ERC20_Token.\r\n     * @param buyAddr buying token address.(For ETH: 0xEeeeeEeeeEeEeeEeEeEeeEEEeeeeEeeeeeeeEEeE)\r\n     * @param sellAddr selling token amount.(For ETH: 0xEeeeeEeeeEeEeeEeEeEeeEEEeeeeEeeeeeeeEEeE)\r\n     * @param buyAmt buying token amount.\r\n     * @param unitAmt unit amount of sellAmt/buyAmt with slippage.\r\n     * @param getId Get token amount at this ID from `InstaMemory` Contract.\r\n     * @param setId Set token amount at this ID in `InstaMemory` Contract.\r\n    */\r\n    function buy(\r\n        address buyAddr,\r\n        address sellAddr,\r\n        uint buyAmt,\r\n        uint unitAmt,\r\n        uint getId,\r\n        uint setId\r\n    ) external payable {\r\n        uint _buyAmt = getUint(getId, buyAmt);\r\n        (TokenInterface _buyAddr, TokenInterface _sellAddr) = changeEthAddress(buyAddr, sellAddr);\r\n        address[] memory paths = getPaths(address(_buyAddr), address(_sellAddr));\r\n\r\n        uint _slippageAmt = convert18ToDec(_sellAddr.decimals(),\r\n            wmul(unitAmt, convertTo18(_buyAddr.decimals(), _buyAmt)));\r\n\r\n        IUniswapV2Router02 router = IUniswapV2Router02(getUniswapAddr());\r\n\r\n        checkPair(router, paths);\r\n        uint _expectedAmt = getExpectedSellAmt(router, paths, _buyAmt);\r\n        require(_slippageAmt >= _expectedAmt, \"Too much slippage\");\r\n\r\n        convertEthToWeth(_sellAddr, _expectedAmt);\r\n        _sellAddr.approve(address(router), _expectedAmt);\r\n\r\n        uint _sellAmt = router.swapTokensForExactTokens(\r\n            _buyAmt,\r\n            _expectedAmt,\r\n            paths,\r\n            address(this),\r\n            now + 1\r\n        )[0];\r\n\r\n        convertWethToEth(_buyAddr, _buyAmt);\r\n\r\n        setUint(setId, _sellAmt);\r\n\r\n        emit LogBuy(buyAddr, sellAddr, _buyAmt, _sellAmt, getId, setId);\r\n        bytes32 _eventCode = keccak256(\"LogBuy(address,address,uint256,uint256,uint256,uint256)\");\r\n        bytes memory _eventParam = abi.encode(buyAddr, sellAddr, _buyAmt, _sellAmt, getId, setId);\r\n        (uint _type, uint _id) = connectorID();\r\n        EventInterface(getEventAddr()).emitEvent(_type, _id, _eventCode, _eventParam);\r\n    }\r\n\r\n    /**\r\n     * @dev Sell ETH/ERC20_Token.\r\n     * @param buyAddr buying token address.(For ETH: 0xEeeeeEeeeEeEeeEeEeEeeEEEeeeeEeeeeeeeEEeE)\r\n     * @param sellAddr selling token amount.(For ETH: 0xEeeeeEeeeEeEeeEeEeEeeEEEeeeeEeeeeeeeEEeE)\r\n     * @param sellAmt selling token amount.\r\n     * @param unitAmt unit amount of buyAmt/sellAmt with slippage.\r\n     * @param getId Get token amount at this ID from `InstaMemory` Contract.\r\n     * @param setId Set token amount at this ID in `InstaMemory` Contract.\r\n    */\r\n    function sell(\r\n        address buyAddr,\r\n        address sellAddr,\r\n        uint sellAmt,\r\n        uint unitAmt,\r\n        uint getId,\r\n        uint setId\r\n    ) external payable {\r\n        uint _sellAmt = getUint(getId, sellAmt);\r\n        (TokenInterface _buyAddr, TokenInterface _sellAddr) = changeEthAddress(buyAddr, sellAddr);\r\n        address[] memory paths = getPaths(address(_buyAddr), address(_sellAddr));\r\n\r\n        if (_sellAmt == uint(-1)) {\r\n            _sellAmt = sellAddr == getEthAddr() ? address(this).balance : _sellAddr.balanceOf(address(this));\r\n        }\r\n\r\n        uint _slippageAmt = convert18ToDec(_buyAddr.decimals(),\r\n            wmul(unitAmt, convertTo18(_sellAddr.decimals(), _sellAmt)));\r\n\r\n        IUniswapV2Router02 router = IUniswapV2Router02(getUniswapAddr());\r\n\r\n        checkPair(router, paths);\r\n        uint _expectedAmt = getExpectedBuyAmt(router, paths, _sellAmt);\r\n        require(_slippageAmt <= _expectedAmt, \"Too much slippage\");\r\n\r\n        convertEthToWeth(_sellAddr, _sellAmt);\r\n        _sellAddr.approve(address(router), _sellAmt);\r\n\r\n        uint _buyAmt = router.swapExactTokensForTokens(\r\n            _sellAmt,\r\n            _expectedAmt,\r\n            paths,\r\n            address(this),\r\n            now + 1\r\n        )[1];\r\n\r\n        convertWethToEth(_buyAddr, _buyAmt);\r\n\r\n        setUint(setId, _buyAmt);\r\n\r\n        emit LogSell(buyAddr, sellAddr, _buyAmt, _sellAmt, getId, setId);\r\n        bytes32 _eventCode = keccak256(\"LogSell(address,address,uint256,uint256,uint256,uint256)\");\r\n        bytes memory _eventParam = abi.encode(buyAddr, sellAddr, _buyAmt, _sellAmt, getId, setId);\r\n        (uint _type, uint _id) = connectorID();\r\n        EventInterface(getEventAddr()).emitEvent(_type, _id, _eventCode, _eventParam);\r\n    }\r\n\r\n    function buyViaPath(\r\n        address buyAddr,\r\n        address sellAddr,\r\n        uint buyAmt,\r\n        uint expectedSellAmt,\r\n        address[] calldata paths\r\n    ) external payable {\r\n        (TokenInterface _buyAddr, TokenInterface _sellAddr) = changeEthAddress(buyAddr, sellAddr);\r\n\r\n        IUniswapV2Router02 router = IUniswapV2Router02(getUniswapAddr());\r\n\r\n        checkPaths(router, paths);\r\n\r\n        convertEthToWeth(_sellAddr, expectedSellAmt);\r\n        _sellAddr.approve(address(router), expectedSellAmt);\r\n\r\n        uint _sellAmt = router.swapTokensForExactTokens(\r\n            buyAmt,\r\n            expectedSellAmt,\r\n            paths,\r\n            address(this),\r\n            now + 1\r\n        )[0];\r\n\r\n        convertWethToEth(_buyAddr, buyAmt);\r\n    }\r\n\r\n    function sellViaPath(\r\n        address buyAddr,\r\n        address sellAddr,\r\n        uint sellAmt,\r\n        uint expectedBuyAmt,\r\n        address[] calldata paths\r\n    ) external payable {\r\n        (TokenInterface _buyAddr, TokenInterface _sellAddr) = changeEthAddress(buyAddr, sellAddr);\r\n\r\n        if (sellAmt == uint(-1)) {\r\n            sellAmt = sellAddr == getEthAddr() ? address(this).balance : _sellAddr.balanceOf(address(this));\r\n        }\r\n\r\n        IUniswapV2Router02 router = IUniswapV2Router02(getUniswapAddr());\r\n\r\n        checkPaths(router, paths);\r\n\r\n        convertEthToWeth(_sellAddr, sellAmt);\r\n        _sellAddr.approve(address(router), sellAmt);\r\n\r\n        uint _buyAmt = router.swapExactTokensForTokens(\r\n            sellAmt,\r\n            expectedBuyAmt,\r\n            paths,\r\n            address(this),\r\n            now + 1\r\n        )[1];\r\n\r\n        convertWethToEth(_buyAddr, _buyAmt);\r\n    }\r\n}\r\n\r\n\r\ncontract ConnectUniswapV2 is UniswapResolver {\r\n    string public name = \"UniswapV2-v1\";\r\n}",
  "sourcePath": "/mnt/e/Projects/tests/uni-resolver/contracts/UniswapController.sol",
  "compiler": {
    "name": "solc",
    "version": "0.6.0+commit.26b70077.Emscripten.clang"
  },
  "schemaVersion": "3.2.4",
  "updatedAt": "2020-10-05T11:34:58.541Z",
  "devdoc": {
    "methods": {
      "connectorID()": {
        "details": "Connector Details - needs to be changed before deployment"
      },
      "deposit(address,address,uint256,uint256,uint256,uint256,uint256)": {
        "details": "Deposit Liquidity.",
        "params": {
          "amtA": "tokenA amount.",
          "getId": "Get token amount at this ID from `InstaMemory` Contract.",
          "setId": "Set token amount at this ID in `InstaMemory` Contract.",
          "slippage": "slippage amount.",
          "tokenA": "tokenA address.(For ETH: 0xEeeeeEeeeEeEeeEeEeEeeEEEeeeeEeeeeeeeEEeE)",
          "tokenB": "tokenB address.(For ETH: 0xEeeeeEeeeEeEeeEeEeEeeEEEeeeeEeeeeeeeEEeE)",
          "unitAmt": "unit amount of amtB/amtA with slippage."
        }
      },
      "withdraw(address,address,uint256,uint256,uint256,uint256,uint256[])": {
        "details": "Withdraw Liquidity.",
        "params": {
          "getId": "Get token amount at this ID from `InstaMemory` Contract.",
          "setIds": "Set token amounts at this IDs in `InstaMemory` Contract.",
          "tokenA": "tokenA address.(For ETH: 0xEeeeeEeeeEeEeeEeEeEeeEEEeeeeEeeeeeeeEEeE)",
          "tokenB": "tokenB address.(For ETH: 0xEeeeeEeeeEeEeeEeEeEeeEEEeeeeEeeeeeeeEEeE)",
          "uniAmt": "uni token amount.",
          "unitAmtA": "unit amount of amtA/uniAmt with slippage.",
          "unitAmtB": "unit amount of amtB/uniAmt with slippage."
        }
      }
    }
  },
  "userdoc": {
    "methods": {}
  }
}